:020000040800F2
:100000000050002041440008412B0008432B000809
:10001000452B0008472B0008492B00080000000072
:100020000000000000000000000000004B2B000852
:100030004D2B0008000000004F2B0008512B00083A
:10004000894400088944000889440008894400085C
:10005000894400088944000889440008894400084C
:10006000894400088944000889440008894400083C
:10007000894400088944000889440008894400082C
:10008000894400088944000889440008894400081C
:10009000894400088944000889440008894400080C
:1000A00089440008894400088944000889440008FC
:1000B00089440008894400088944000889440008EC
:1000C00089440008894400088944000889440008DC
:1000D0008944000889440008592B00088944000815
:1000E0008944000889440008894400080000000091
:1000F0000000000000000000000000000000000000
:0C01000000000000000000005FF808F1A3
:1001100010F8012B11F8013B012A28BF9A42F7D0B1
:10012000D01A704781F0004102E000BF83F0004325
:1001300030B54FEA41044FEA430594EA050F08BF82
:1001400090EA020F1FBF54EA000C55EA020C7FEA46
:10015000645C7FEA655C00F0E2804FEA5454D4EBC3
:100160005555B8BF6D420CDD2C4480EA020281EA8D
:10017000030382EA000083EA010180EA020281EAC5
:100180000303362D88BF30BD11F0004F4FEA013117
:100190004FF4801C4CEA113102D0404261EB410126
:1001A00013F0004F4FEA03334CEA133302D05242AC
:1001B00063EB430394EA050F00F0A780A4F1010468
:1001C000D5F1200E0DDB02FA0EFC22FA05F28018A2
:1001D00041F1000103FA0EF2801843FA05F3594188
:1001E0000EE0A5F120050EF1200E012A03FA0EFC07
:1001F00028BF4CF0020C43FA05F3C01851EBE37131
:1002000001F0004507D54FF0000EDCF1000C7EEB4D
:1002100000006EEB0101B1F5801F1BD3B1F5001F8B
:100220000CD349085FEA30004FEA3C0C04F10104AA
:100230004FEA445212F5800F80F09A80BCF1004FD3
:1002400008BF5FEA500C50F1000041EB045141EA55
:10025000050130BD5FEA4C0C404141EB0101013C1E
:1002600028BFB1F5801FE9D291F0000F04BF01460D
:100270000020B1FA81F308BF2033A3F10B03B3F1DF
:1002800020020CDA0C3208DD02F1140CC2F10C026F
:1002900001FA0CF021FA02F10CE002F11402D8BFCD
:1002A000C2F1200C01FA02F120FA0CFCDCBF41EA99
:1002B0000C019040E41AA2BF01EB0451294330BD68
:1002C0006FEA04041F3C1CDA0C340EDC04F1140445
:1002D000C4F1200220FA04F001FA02F340EA03001C
:1002E00021FA04F345EA030130BDC4F10C04C4F162
:1002F000200220FA02F001FA04F340EA0300294642
:1003000030BD21FA04F0294630BD94F0000F83F48B
:10031000801306BF81F480110134013D4EE77FEA6E
:10032000645C18BF7FEA655C29D094EA050F08BFBA
:1003300090EA020F05D054EA000C04BF194610469B
:1003400030BD91EA030F1EBF0021002030BD5FEADF
:10035000545C05D14000494128BF41F0004130BD07
:1003600014F580043CBF01F5801130BD01F000455B
:1003700045F0FE4141F470014FF0000030BD7FEACE
:10038000645C1ABF194610467FEA655C1CBF0B46C9
:10039000024650EA013406BF52EA033591EA030FE0
:1003A00041F4002130BD00BF90F0000F04BF0021D8
:1003B000704730B54FF4806404F132044FF000050B
:1003C0004FF0000150E700BF90F0000F04BF002184
:1003D000704730B54FF4806404F1320410F00045EA
:1003E00048BF40424FF000013EE700BF42004FEAE5
:1003F000E2014FEA31014FEA02701FBF12F07F4362
:1004000093F07F4F81F06051704732F07F4208BF18
:10041000704793F07F4F04BF41F40021704730B51F
:100420004FF4607401F0004521F000411CE700BF6B
:1004300050EA010208BF704730B54FF000050AE0EE
:1004400050EA010208BF704730B511F0004502D5EF
:10045000404261EB41014FF4806404F132045FEAF1
:10046000915C3FF4D8AE4FF003025FEADC0C18BF9A
:1004700003325FEADC0C18BF033202EBDC02C2F18C
:10048000200300FA03FC20FA02F001FA03FE40EA1E
:100490000E0021FA02F11444BDE600BF70B54FF022
:1004A000FF0C4CF4E06C1CEA11541DBF1CEA135500
:1004B00094EA0C0F95EA0C0F00F0DEF82C4481EA68
:1004C000030621EA4C5123EA4C5350EA013518BF88
:1004D00052EA033541F4801143F4801338D0A0FB75
:1004E00002CE4FF00005E1FB02E506F00042E0FB22
:1004F00003E54FF00006E1FB03569CF0000F18BF28
:100500004EF0010EA4F1FF04B6F5007F64F54074CF
:1005100004D25FEA4E0E6D4146EB060642EAC62162
:1005200041EA55514FEAC52040EA5E504FEACE2ECF
:10053000B4F1FD0C88BFBCF5E06F1ED8BEF1004FD2
:1005400008BF5FEA500E50F1000041EB045170BD4E
:1005500006F0004646EA010140EA020081EA030192
:10056000B4EB5C04C2BFD4EB0C0541EA045170BD8E
:1005700041F480114FF0000E013C00F3AB8014F108
:10058000360FDEBF002001F0004170BDC4F1000451
:10059000203C35DA0C341BDC04F11404C4F12005D2
:1005A00000FA05F320FA04F001FA05F240EA02002D
:1005B00001F0004221F0004110EBD37021FA04F663
:1005C00042EB06015EEA430E08BF20EAD37070BD1D
:1005D000C4F10C04C4F1200500FA04F320FA05F07C
:1005E00001FA04F240EA020001F0004110EBD3707E
:1005F00041F100015EEA430E08BF20EAD37070BDEE
:10060000C4F1200500FA05F24EEA020E20FA04F3C6
:1006100001FA05F243EA020321FA04F001F0004175
:1006200021FA04F220EA020000EBD3705EEA430EE6
:1006300008BF20EAD37070BD94F0000F0FD101F015
:100640000046400041EB010111F4801F08BF013C4E
:10065000F7D041EA060195F0000F18BF704703F08C
:100660000046520043EB030313F4801F08BF013D13
:10067000F7D043EA0603704794EA0C0F0CEA1355CF
:1006800018BF95EA0C0F0CD050EA410618BF52EA89
:100690004306D1D181EA030101F000414FF000008F
:1006A00070BD50EA410606BF1046194652EA43069D
:1006B00019D094EA0C0F02D150EA013613D195EA11
:1006C0000C0F05D152EA03361CBF104619460AD159
:1006D00081EA030101F0004141F0FE4141F4700163
:1006E0004FF0000070BD41F0FE4141F4780170BD53
:1006F00070B54FF0FF0C4CF4E06C1CEA11541DBFB8
:100700001CEA135594EA0C0F95EA0C0F00F0A7F8B9
:10071000A4EB050481EA030E52EA03354FEA0131E6
:1007200000F088804FEA03334FF0805545EA1313F9
:1007300043EA12634FEA022245EA111545EA1065C1
:100740004FEA00260EF000419D4208BF964244F158
:10075000FD0404F5407402D25B084FEA3202B61A77
:1007600065EB03055B084FEA32024FF480104FF44B
:10077000002CB6EB020E75EB030E22BFB61A7546BF
:1007800040EA0C005B084FEA3202B6EB020E75EB52
:10079000030E22BFB61A754640EA5C005B084FEABA
:1007A0003202B6EB020E75EB030E22BFB61A754687
:1007B00040EA9C005B084FEA3202B6EB020E75EB92
:1007C000030E22BFB61A754640EADC0055EA060E53
:1007D00018D04FEA051545EA16754FEA06164FEA96
:1007E000C30343EA52734FEAC2025FEA1C1CC0D142
:1007F00011F4801F0BD141EA00014FF000004FF0CF
:10080000004CB6E711F4801F04BF01430020B4F18F
:10081000FD0C88BFBCF5E06F3FF6AFAEB5EB030C47
:1008200004BFB6EB020C5FEA500C50F1000041EB44
:10083000045170BD0EF0004E4EEA113114EB5C0411
:10084000C2BFD4EB0C0541EA045170BD41F48011E4
:100850004FF0000E013C90E645EA060E8DE60CEAEC
:10086000135594EA0C0F08BF95EA0C0F3FF43BAF09
:1008700094EA0C0F0AD150EA01347FF434AF95EAC0
:100880000C0F7FF425AF104619462CE795EA0C0FA4
:1008900006D152EA03353FF4FDAE1046194622E771
:1008A00050EA410618BF52EA43067FF4C5AE50EA4B
:1008B00041047FF40DAF52EA43057FF4EBAE12E73B
:1008C0004FF0FF3C06E000BF4FF0010C02E000BF1C
:1008D0004FF0010C4DF804CD4FEA410C7FEA6C5CFF
:1008E0004FEA430C18BF7FEA6C5C1BD001B050EAA2
:1008F000410C0CBF52EA430C91EA030F02BF90EA8D
:10090000020F0020704710F1000F91EA030F58BF4B
:10091000994208BF90422CBFD8176FEAE37040F0AD
:10092000010070474FEA410C7FEA6C5C02D150EA4B
:10093000013C07D14FEA430C7FEA6C5CD6D152EA06
:10094000033CD3D05DF8040B704700BF84461046CB
:1009500062468C461946634600E000BF01B5FFF7CA
:10096000B7FF002848BF10F1000F01BD4DF808ED9A
:10097000FFF7F4FF0CBF012000205DF808FB00BF6B
:100980004DF808EDFFF7EAFF34BF012000205DF8C5
:1009900008FB00BF4DF808EDFFF7E0FF94BF012012
:1009A00000205DF808FB00BF4DF808EDFFF7CEFF13
:1009B00094BF012000205DF808FB00BF4DF808ED52
:1009C000FFF7C4FF34BF012000205DF808FB00BF23
:1009D0004FEA410C7FEA6C5C02D150EA013C0AD13B
:1009E0004FEA430C7FEA6C5C02D152EA033C02D12D
:1009F0004FF0000070474FF0010070474FEA41028E
:100A000012F5001215D211D56FF47873B3EB625260
:100A100012D94FEAC12343F0004343EA505311F087
:100A2000004F23FA02F018BF404270474FF0000019
:100A3000704750EA013005D111F0004008BF6FF057
:100A4000004070474FF00000704700BF4A0011D2CD
:100A500012F5001211D20DD56FF47873B3EB625218
:100A60000ED44FEAC12343F0004343EA505323FA24
:100A700002F070474FF00000704750EA013002D199
:100A80004FF0FF3070474FF0000070470348044BB1
:100A9000834202D0034B03B1184770477000002017
:100AA00070000020000000000548064B1B1AD90FFB
:100AB00001EBA301491002D0034B03B11847704763
:100AC00070000020700000200000000010B5064CEF
:100AD000237843B9FFF7DAFF044B13B10448AFF3AF
:100AE00000800123237010BD700000200000000072
:100AF000C479000808B5054B1BB105490548AFF39B
:100B00000080BDE80840FFF7CFBF00BF0000000035
:100B100074000020C47900080346094A126842B1F3
:100B2000074A106803446A46934206D8044A136091
:100B30007047034A03491160F2E74FF0FF307047F6
:100B40008C000020E00A00202DE9F04F87B00F1E36
:100B500073DD8246934603782D2B58D00024002263
:100B60003B4BCDE9042369264FF00008DFF8E09005
:100B700000220023CDE90023CDE902235B46B346E2
:100B80005646BA461F461DE00022324BDDE90201FF
:100B9000FFF784FCCDE902012846FFF715FCDDE9EB
:100BA0000223FFF7C5FA00222B4BFFF7BFFACDE96E
:100BB000020106E02E2D42D1BBF1690F41D14FF069
:100BC000640B0134544528DA355DA5F13003DBB2FE
:100BD000092BEFD8BBF1690FD6D01BA3D3E90023B3
:100BE00040464946FFF75AFC80468946A5F1300049
:100BF000FFF7EAFB42464B46FFF750FC02460B4626
:100C0000DDE90001FFF794FACDE90001D9E70124FD
:100C10000022124BCDE90423A5E7DDE90023DDE93D
:100C20000201FFF785FADDE90423FFF737FCC7E986
:100C30000001012007B0BDE8F08F0020FAE7002096
:100C4000F8E70020F6E700BF9A9999999999B93F7A
:100C50000000F03F00002440000048400000F0BFCA
:100C60002DE9F041F4B00546002300E00133E91816
:100C7000EA5C0AB1202AF9D1002A00F012845C1C37
:100C800000230B700A238DF8CF3197492846FFF7D0
:100C90003FFA30B195492846FFF73AFA002840F06C
:100CA000898100220023CDE92E23CDE93023CDE92F
:100CB000322300270EE00136AB5D0BB1202BFAD1B9
:100CC0002EAB03EBC702311B2819FFF73DFF88B19C
:100CD000741C0137022F01DC2646EDE782492846C5
:100CE000FFF716FA40B181492846FFF711FA0028AC
:100CF00000F0A4800027D5E3DDE92E23CDE93423DD
:100D0000DDE93001CDE93601DDE93245CDE938458F
:100D1000774E0496CDE90245CDE90001754800F013
:100D200081FD754E0022754BCDE9082302AD34AC30
:100D30000FCC0FC594E8030085E8030006F110030B
:100D400093E803008DE8030096E80F0001F0BEFB76
:100D5000044601282BD06A4D01221021284602F0BA
:100D6000C5FA04F1300267494EA803F08FFB4FF635
:100D7000FF7302224EA9644803F03BF9322002F0CF
:100D8000ADF800221021284602F0B0FA5F4B049320
:100D9000DDE93223CDE90223DDE93023CDE900236B
:100DA000DDE92E235A4800F03DFD01277AE334AFF8
:100DB00035463E460FCE0FC596E8030085E8030092
:100DC000DFF8508136AB0FCB8DE80F0097E80C00B1
:100DD00016A800F001FE464616AD0FCD0FC695E8E9
:100DE000030086E80300464D01221021284602F048
:100DF0007DFA04F1300243494EA803F047FB4FF659
:100E0000FF7302224EA9404803F0F3F8322002F0AB
:100E100065F800221021284602F068FA3E4B049340
:100E2000D8E90423CDE90223D8E90223CDE9002340
:100E3000D8E90023394800F0F5FCB6E7DDE92E23B8
:100E4000CDE93423DDE93001CDE93601DDE9324574
:100E5000CDE93845304E0496CDE90245CDE9000193
:100E60002F4800F0DFFC2B4E02AD34AC0FCC0FC589
:100E700094E8030085E8030006F1100393E80300FB
:100E80008DE8030096E80F0000F0E8FF0446012813
:100E90004AD01B4D01221021284602F027FA04F106
:100EA000300218494EA803F0F1FA4FF6FF73022200
:100EB0004EA9154803F09DF8322002F00FF80022E9
:100EC0001021284602F012FA104B0493DDE9322378
:100ED000CDE90223DDE93023CDE90023DDE92E232E
:100EE000104800F09FFC60E7E0790008E87900080E
:100EF000007A0008F0790008A800002000004E40A9
:100F000000080140047A000850090020347A0008E3
:100F1000247A000890000020207A0008087A00084F
:100F2000447A0008687A0008DFF8548234AD36ABA2
:100F30000FCB8DE80F0095E80C0016A800F050FECE
:100F4000474616AE0FCE0FC796E8030087E80300AA
:100F50008C4E0FCD0FC695E8030086E803008A4D3E
:100F600001221021284602F0C1F904F1300287491C
:100F70004EA803F08BFA4FF6FF7302224EA9844865
:100F800003F037F8322001F0A9FF00221021284693
:100F900002F0ACF97F4B0493D8E90423CDE9022396
:100FA000D8E90223CDE90023D8E900237A4800F0EC
:100FB00039FCFAE679492846FFF7AAF88046002866
:100FC00040F0B7802022002134A803F07FFA12E01D
:100FD0000136AB5D0BB1202BFAD134AB03EBC80269
:100FE000311B2819FFF7B0FD0746002800F05A8290
:100FF000741C08F10108B8F1030F01DC2646E8E78C
:10100000DDE93423CDE92E23DDE93623CDE9302394
:10101000DDE93823CDE93223594EDDE93A23CDE924
:10102000082302AD2EAC0FCC0FC594E8030085E871
:10103000030006F1100393E803008DE8030096E82F
:101040000F0001F043FA044601282BD04E4D012237
:101050001021284602F04AF904F130024B494EA80B
:1010600003F014FA4FF6FF7302224EA9484802F02B
:10107000C0FF322001F032FF00221021284602F08A
:1010800035F9474B0493DDE93823CDE90223DDE947
:101090003623CDE90023DDE93423424800F0C2FBCA
:1010A0000127FFE10DF1B80C354666460FCE0FC59E
:1010B00096E8030085E80300324F30AB0FCB8DE894
:1010C0000F009CE80C0016A800F086FC3E4616AD0A
:1010D0000FCD0FC695E8030086E803002A4D0122D4
:1010E0001021284602F002F904F1300227494EA8E7
:1010F00003F0CCF94FF6FF7302224EA9244802F008
:1011000078FF322001F0EAFE00221021284602F08A
:10111000EDF8204B0493D7E90423CDE90223D7E966
:101120000223CDE90023D7E900231F4800F07AFB12
:10113000B6E71E492846FEF7EBFF8046002840F040
:10114000E3806822002134A803F0C0F912E00136E0
:10115000AB5D0BB1202BFAD134AB03EBC802311BD2
:101160002819FFF7F1FC0746002800F09B81741C4A
:1011700008F10108B8F10C0F1ADC2646E8E700BFB9
:10118000A80000209000002000080140047A000818
:1011900050090020207A0008547A0008787A000864
:1011A000347A0008247A0008087A0008807A000857
:1011B0001CAEDDE93423CDE91C23DDE93623CDE97E
:1011C0001E23DDE93823CDE92023DDE93A23CDE9EB
:1011D0002223DDE93C23CDE92423DDE93E23CDE9CB
:1011E0002623DDE94023CDE92823DDE94223CDE9AB
:1011F0002A23DDE94423CDE92C23DDE94623CDE98B
:101200002E23DDE94823CDE93023DDE94A23CDE96A
:101210003223DDE94C23CDE914230EAD2EAC0FCCE7
:101220000FC594E8030085E8030008AD28AC0FCC97
:101230000FC594E8030085E8030002AD22AC0FCC93
:101240000FC594E8030085E8030020AB93E8030092
:101250008DE8030096E80F0001F0ECFB054601283D
:101260001CD0934C01221021204602F03FF805F1DA
:10127000300290494EA803F009F94FF6FF7302229D
:101280004EA98D4802F0B5FE322001F027FE002263
:101290001021204602F02AF8012703E122AF874CF3
:1012A0003E460FCE0FC496E8030084E8030024AB4B
:1012B0000FCB8DE80F0097E80C0016A800F08CFB10
:1012C0007F4E16AC0FCC0FC694E8030086E80300EF
:1012D000774C01221021204602F008F805F1300277
:1012E00074494EA803F0D2F84FF6FF7302224EA9BC
:1012F000714802F07EFE322001F0F0FD0022102144
:10130000204601F0F3FFC7E76E492846FEF700FFCD
:101310000746002872D12C446B492046FEF7F8FEA0
:1013200060B36A492046FEF7F3FE002846D06849BC
:101330002046FEF7EDFE002840F0B48000F0D4F91E
:1013400004465B4D01221021284601F0CFFF04F135
:10135000300258494EA803F099F84FF6FF73022265
:101360004EA9554802F045FE322001F0B7FD00229B
:101370001021284601F0BAFF012793E000F08CF914
:1013800004464B4D01221021284601F0AFFF04F125
:10139000300248494EA803F079F84FF6FF73022255
:1013A0004EA9454802F025FE322001F097FD0022AB
:1013B0001021284601F09AFF012773E000F080F920
:1013C00004463B4D01221021284601F08FFF04F115
:1013D000300238494EA803F059F84FF6FF73022245
:1013E0004EA9354802F005FE322001F077FD0022BB
:1013F0001021284601F07AFF012753E0354928469D
:10140000FEF786FE0746002850D12C44324920467C
:10141000FEF77EFE28B331492046FEF779FE00280C
:1014200040D1234C01221021204601F05FFF224DC4
:101430004FF6FF7318222249284602F0DAFD4FF6D4
:10144000FF7301220DF2CF11284602F0D2FD3220A7
:1014500001F044FD00221021204601F047FF012742
:1014600020E0134C01221021204601F03FFF124DD5
:101470004FF6FF7318221149284602F0BAFD4FF6C5
:10148000FF7301220DF2CF11284602F0B2FD322087
:1014900001F024FD00221021204601F027FF012742
:1014A00000E00027384674B0BDE8F0810027F9E776
:1014B00000080140047A000850090020A80000201C
:1014C00090000020887A0008907A0008947A00083A
:1014D000987A00089C7A0008A07A0008A47A00088C
:1014E00030B589B000240494059406940794174BF2
:1014F0009A6942F020029A619A6902F020020192F0
:10150000019A9A6942F004029A619A6902F004020F
:101510000292029A9A6942F008029A619B6903F06A
:1015200008030393039B0A4D22467021284601F0CD
:10153000DDFE702304930123059306940223079391
:1015400004A9284601F0C4FD09B030BD00100240D6
:101550000008014072B6FEE700B591B028220021D4
:1015600006A802F0B3FF00230193029303930493B0
:101570000593012206924FF4803307930A920222C8
:101580000D920E934FF4E0130F9306A801F0CAFEDC
:1015900080B90F23019302210291002303934FF49A
:1015A00080620492059301A802F0FCF820B911B002
:1015B0005DF804FBFFF7CEFFFFF7CCFF30B5BDB001
:1015C00001F068FCFFF7C8FFFFF78AFF01F038FB66
:1015D00001F09CFB01F0DAFB264C0421204602F0CE
:1015E00045FB0C21204602F041FB0021224802F07D
:1015F0003DFB01222149224802F005FF0022102173
:10160000204801F073FE204C00220023C4E900238F
:1016100000221E4BC4E9022300221D4BC4E904230F
:1016200004F108030FCB8DE80F0094E80C0004A828
:1016300000F0D6FA174D0DF1100CBCE80F000FC5E5
:101640009CE8030085E8030004F1100393E803001D
:101650008DE8030094E80F0000F084FB00F0DCF854
:101660000028FBD00AA800F075F881B20AA8FFF79D
:10167000F7FAF3E708090020C0080020C1000020A5
:101680005009002000080140900000200000544054
:1016900000003440A800002010B5074C0122202192
:1016A000204601F023FE01224021204601F01EFECB
:1016B0000120024B187010BD00080140C00000203E
:1016C00010B5074C00222021204601F00FFE002219
:1016D0004021204601F00AFE0020024B187010BD88
:1016E00000080140C0000020014B1878704700BF7F
:1016F000C000002008B5124B1B78C82B19D0114B25
:101700001B780D2B0BD00A2B09D0FF2B07D00C49CF
:101710000A7802F1010C81F800C00B498B540B4A86
:10172000012111703B2B08D00122064902F06BFE0B
:1017300008BD034B00221A70E1E7054B1970F3E76F
:10174000C5000020C1000020C8000020C400002007
:10175000C3000020F8B505462B4B19780B46002036
:101760001C460133DBB2294A125D3B2A06D0C82B46
:10177000F6D1002845D103460120F1E703B91C4604
:10178000F8B9621A214B1944284602F0CDFE1E4BCF
:101790001B78E31A0022EA542046631C1C4A127884
:1017A000934225D0184B1B78A34225D9C3F1C80317
:1017B00018440130C62C22D80134E4B2124B1C70FC
:1017C000F8BD124FC1F1C8023944284602F0ACFE00
:1017D0000D4E3078C0F1C80022463946284402F048
:1017E000A3FE3378C3F1C80323440022EA54D3E7AD
:1017F000084B00221A70D5E7C01A0130DAE700243E
:10180000DCE70020DCE700BFC2000020C8000020A9
:10181000C5000020C3000020014B1878704700BFAE
:10182000C30000207047000082B010B5044602A932
:1018300081E80C009DF82030012B2BD02AA3D3E99E
:101840000023DDE90201FEF729FE0022284BFEF706
:101850004FFFC4E9000124A3D3E90023DDE904011B
:10186000FEF71CFE0022224BFEF742FFC4E90201F4
:101870001DA3D3E90023DDE90601FEF70FFE0022D8
:101880001B4BFEF735FFC4E904012046BDE81040BC
:1018900002B0704714A3D3E90023DDE90201FEF78B
:1018A00027FF0022124BFEF7F9FDC4E900010EA349
:1018B000D3E90023DDE90401FEF71AFF00220C4BF7
:1018C000FEF7ECFDC4E9020107A3D3E90023DDE93B
:1018D0000601FEF70DFF0022054BFEF7DFFDC4E910
:1018E0000401D2E7AFF300804AD8124DFB21094032
:1018F000008066400000000084B0F8B506AC84E8C3
:101900000F00DDE906452AA3D3E900232046294636
:10191000FFF74AF800283AD027A3D3E9002320464E
:101920002946FFF737F8002836D0DDE9084524A31B
:10193000D3E9002320462946FFF736F870B322A3E7
:10194000D3E9002320462946FFF724F840B3DDE918
:101950000A671BA3D3E9002330463946FFF724F872
:1019600000B319A3D3E9002330463946FFF712F834
:10197000D0B132463B4620462946FEF7D9FB14A398
:10198000D3E90023FFF706F810B1012000E00020A2
:10199000BDE8F84004B070470020F9E70020F7E701
:1019A0000020F5E70020F3E70020F1E7AFF3008027
:1019B000F2D24D62108056C0F2D24D621080564075
:1019C000FCA9F1D24D6250BF79E92631088066400A
:1019D0008716D9CEF7FF634082B02DE9F0478AB071
:1019E000824612A981E80C00DDE91267DDE91445A1
:1019F000DDE9168932463B462046294603F016FAB1
:101A0000CAE9000132463B4630463946FEF746FDFC
:101A100006460F4622462B4620462946FEF73EFD47
:101A200002460B4630463946FEF782FB03F06EFA5B
:101A30004FA3D3E90023FEF779FB4FA3D3E900239B
:101A4000FEF774FB06460F460022514B40464946BE
:101A5000FEF76CFB00224F4BFEF76AFB804689467F
:101A600032463B4630463946FEF718FD04460D46E1
:101A700042464B46CDE9068940464946FEF70EFDF3
:101A800002460B4620462946FEF752FB03F03EFA7B
:101A90008046894602460B46FEF700FD02460B468D
:101AA000CDE9082336A3D3E90023FEF741FB00224A
:101AB000394BFEF73BFB04460D460022374B4046B0
:101AC0004946FEF7EBFC02460B4620462946FEF748
:101AD0000FFE03F083F904460D46DDE9082328A133
:101AE000D1E90001FEF722FB00222B4BFEF720FB81
:101AF00000222B4BFEF7FCFD03F070F9804689466F
:101B000032463B46DDE90601FEF7F2FD03F028FA16
:101B100006460F4602460B4620462946FEF708FBBE
:101B2000CAE9020132463B4617A1D1E90001FEF79E
:101B3000FDFA22462B46FEF7F9FA42464B46FEF7DF
:101B4000F5FACAE90401012304930AF108030FCB53
:101B50008DE80F009AE80C005046FFF765FE5046EE
:101B60000AB0BDE8F04702B0704700BFAFF3008095
:101B70008195438B6C6731400000000000C04140FC
:101B8000000000000064D5404AD8124DFB210940F6
:101B900000405840000034400000D94000807240AE
:101BA0000020E74084B010B58AB00CAC84E80F0088
:101BB00004AC0EAB0FCB8DE80F000CAB0CCB20466A
:101BC000FFF70AFF0AAB13E903008DE8030094E86E
:101BD0000F00FFF791FE0AB0BDE8104004B0704757
:101BE00082B02DE9F0478EB0824616A981E80C003C
:101BF0000023049318AB0FCB8DE80F0016AB0CCB72
:101C000008A8FFF711FEDDE90867CDE90667DDE901
:101C10000A6732463B4644A1D1E90001FEF786FA45
:101C2000DDE90C23FEF782FA03F026FB0022484B85
:101C3000FEF734FC02460B463DA1D1E90001FEF758
:101C400075FA03F063F904460D4602460B46FEF7AB
:101C500025FC39A3D3E90023FEF76AFA00223D4BA5
:101C6000FEF764FA8046894600223B4B204629460F
:101C7000FEF714FC02460B4640464946FEF738FD87
:101C800003F0ACF802460B4630463946FEF74EFAF2
:101C90008046894603F0F0FA22462B46FEF7FEFB0B
:101CA00006460F464046494603F02EFB22462B4689
:101CB000FEF7F4FB0022294BFEF73AFA0022284BEC
:101CC000FEF734FACAE904011DA3D3E90023304624
:101CD0003946FEF72DFA1CA3D3E90023FEF728FAB4
:101CE00004460D46DDE906673046394603F0C4FA7E
:101CF00002460B4620462946FEF7D0FBCAE9000102
:101D00003046394603F000FB02460B462046294682
:101D1000FEF7C4FBCAE9020150460EB0BDE8F04729
:101D200002B07047AFF300804AD8124DFB21094042
:101D3000000000000032E740000000000064D540D1
:101D40008195438B6C6731400000000000C041402A
:101D50000020E7400000D940008072400040584019
:101D60000000344084B070B582B006AC84E80F0047
:101D70000AAB93E803008DE8030094E80F00FFF737
:101D8000BBFD012806D00024204602B0BDE870400B
:101D900004B07047044600220023DDE90601FEF787
:101DA000C7F90022274BFEF7C3F90022264BFEF7A6
:101DB0009FFC0022254BFEF771FB0022244BFEF70F
:101DC000B7F9244B1D68FEF741FE6863142001F04B
:101DD00085F800221B4BDDE90801FEF7A9F9002276
:101DE000184BFEF7A3F90022174BFEF781FC0022E7
:101DF000164BFEF753FB0022154BFEF799F9164DD3
:101E00002E68FEF723FEB063142001F067F800226D
:101E10000023DDE90A01FEF78BF900220A4BFEF7E9
:101E200067FC0022094BFEF739FB0022084BFEF746
:101E30007FF92D68FEF70AFE2864142001F04EF8A1
:101E4000A2E700BF008056400080664000409F40EF
:101E500000407F40C00800200809002084B02DE920
:101E6000F04182B008AC84E80F0012AB93E80300A5
:101E70008DE803000EAB0FCBFFF73EFD012806D027
:101E80000024204602B0BDE8F04104B0704704468B
:101E9000DDE90E670022002330463946FEF748F997
:101EA00000224B4BFEF744F900224A4BFEF720FC80
:101EB0000022494BFEF7F2FA0022484BFEF738F9B0
:101EC000474B1D68FEF7C2FD6863DDE90823304615
:101ED0003946FEF72BF9FEF791FD0028B8BF4042C6
:101EE000FEF772FA00223F4BFEF7D8FA00223E4B73
:101EF000FEF7FEFBFEF7AAFD00F0F0FFDDE910673C
:101F00000022334B30463946FEF712F90022304B9F
:101F1000FEF70CF900222F4BFEF7EAFB00222E4BB6
:101F2000FEF7BCFA00222D4BFEF702F92F4DD5F833
:101F30000080FEF78BFDC8F83800DDE90A23304643
:101F40003946FEF7F3F8FEF759FD0028B8BF4042C6
:101F5000FEF73AFA0022234BFEF7A0FA0022224BAA
:101F6000FEF7C6FBFEF772FD00F0B8FFDDE9126771
:101F70000022002330463946FEF7DAF80022154BDE
:101F8000FEF7B6FB0022144BFEF788FA0022134B33
:101F9000FEF7CEF82D68FEF759FD2864DDE90C2325
:101FA00030463946FEF7C2F8FEF728FD0028B8BFD4
:101FB0004042FEF709FA00220A4BFEF76FFA0022B0
:101FC000094BFEF795FBFEF741FD00F087FF58E750
:101FD000008056400080664000409F4000407F40A7
:101FE000C008002000004E4000002E4008090020DC
:101FF00084B02DE9F04FA7B030AC84E80F003AABC5
:1020000093E803008DE8030036AB0FCBFFF7CAFD62
:1020100020B927B0BDE8F04F04B07047DDE9303497
:10202000184621461A462346CDE90401FEF736FA42
:1020300004460D46DDE932AB52465B4650465946F2
:10204000FEF72CFA02460B4620462946FEF770F8AA
:1020500002F05CFFC8A3D3E90023FEF767F8002273
:10206000CB4BFEF745FB02460B46DDE93401FEF79C
:102070005FF803460C46CDE90634CDE93434DDE99A
:10208000368942464B4640464946FEF707FA044623
:102090000D46DDE9386732463B4630463946FEF7A5
:1020A000FDF902460B4620462946FEF741F802F0AC
:1020B0002DFFB1A3D3E90023FEF738F80022B44B7B
:1020C000FEF716FB02460B46DDE93A01FEF730F853
:1020D00004460D46CDE93A45DDE90423404649462C
:1020E000FEF724F8CDE9080152465B4630463946F2
:1020F000FEF71CF880468946CDE90A89DDE906230A
:1021000020462946FEF712F806460F46CDE90C6731
:10211000DDE9080102460B46FEF7C0F904460D460C
:1021200042464B4640464946FEF7B8F902460B4642
:1021300020462946FDF7FCFF04460D4632463B4645
:1021400030463946FEF7AAF902460B462046294694
:10215000FDF7EEFF02F0DAFEDDE93C23FEF7C8FAF8
:1021600004460D4600228B4BFEF798F900228A4B5D
:10217000FEF7BEFAFEF742FC0746B0F5967F04DD97
:102180004FF496777EA5D5E900450022834B204683
:10219000294602F04DFE02460B4600207C49FEF720
:1021A000A7FACDE90E0100227D4B2046294602F018
:1021B0003FFE02460B4600207A49FEF799FACDE928
:1021C00010010022784B2046294602F031FE0246DB
:1021D0000B4600207549FEF78BFACDE91201002667
:1021E000B74240F30D813046FEF7EEF800226A4B0D
:1021F000FEF754F90022674BFEF77AFA04460D46C3
:1022000000220023FEF74AF900220023FDF790FF89
:102210008046894600224FF080432046294602F03E
:1022200007FE00220023FEF739F902460B4640461E
:102230004946FDF77DFF804689460022574B2046E0
:10224000294602F0F5FDDDE90E23FEF727F90246E7
:102250000B4640464946FDF76BFF80468946002203
:102260004F4B2046294602F0E3FDDDE91023FEF73F
:1022700015F902460B4640464946FDF759FF804690
:1022800089460022484B2046294602F0D1FDDDE96F
:102290001223FEF703F902460B4640464946FDF776
:1022A00047FF04460D4602460B46DDE90801FEF7EE
:1022B000F5F802460B46DDE90401FDF739FFCDE9EB
:1022C000140122462B46DDE90A01FEF7E7F8024633
:1022D0000B4650465946FDF72BFFCDE91601224625
:1022E0002B46DDE90C01FEF7D9F802460B46DDE985
:1022F0000601FDF71DFFCDE918011AAC16AB0FCB97
:102300008DE80F0014AB0CCB2046FFF765FB1EAB2E
:1023100093E803008DE8030094E80F00FFF7ECFA60
:1023200001286BD10022224BDDE91A01FDF700FFE5
:1023300000220023FDF7FCFE13A3D3E90023FEF7E0
:10234000ADF800221B4BFDF7F3FE1B4D06EB4604D8
:102350004FEA440805EB4404FEF778FB25F8080033
:102360000022134BDDE91C01FDF7E2FE0022104BB9
:10237000FDF7DCFE22E000BF0000000000A06A4084
:10238000000000000094D140D42B6519E2382640AB
:102390000000244000408F4000004E4000000840F4
:1023A0000000104000002EC0000014400000184043
:1023B0000080564000407F40980100203CA3D3E9B4
:1023C0000023FEF76BF800223B4BFDF7B1FEFEF752
:1023D0003DFB608000220023DDE91E01FDF7A8FE21
:1023E00033A3D3E90023FEF759F80022324BFDF75F
:1023F0009FFEFEF72BFBA0800136F1E6002008E6E9
:1024000038AB0FCB8DE80F0036AB0CCB20A8FFF715
:10241000E3FA0022294BDDE92001FDF789FE0022C5
:102420000023FDF785FE22A3D3E90023FEF736F84B
:102430000022214BFDF77CFE214D07EB470466008F
:1024400005EB4404FEF702FBA85300221B4BDDE919
:102450002201FDF76DFE0022184BFDF767FE14A365
:10246000D3E90023FEF71AF80022134BFDF760FEB4
:10247000FEF7ECFA608000220023DDE92401FDF77D
:1024800057FE0BA3D3E90023FEF708F800220A4BFE
:10249000FDF74EFEFEF7DAFAA0800A4B00221A6022
:1024A0000137094B1F600120B3E500BFAFF3008087
:1024B000D42B6519E238264000407F40008056400A
:1024C00098010020940100209001002084B0F0B514
:1024D0008BB010AC84E80F00DDE91C23CDE90823A4
:1024E0000DF1080C0DF1580EBEE80F00ACE80F001E
:1024F0009EE803008CE8030014AB93E803008DE82A
:10250000030094E80F00FFF773FD012806D00025B3
:1025100028460BB0BDE8F04004B070470546114BAB
:102520001C681AE0104B1968104B04EB440203EBD3
:10253000420633F812304B63142000F0CFFC0C4FEE
:102540003B6872889A63142000F0C8FC3B68B2882C
:102550001A64142000F0C2FC0134064B1B68A3422D
:10256000E0DCD5E794010020C0080020980100209D
:10257000080900209001002084B02DE9F04F9DB0A3
:1025800026AC84E80F0000220F4BDDE93E01FEF788
:10259000AFF8FEF733FA0790B0F5967F02DD4FF4FF
:1025A000967307930798FDF70FFF02460B4600202E
:1025B0000649FEF79DF8CDE90801002306934FF088
:1025C00000084FF0000953E000004E400000F03FCB
:1025D0000022D54BDDE91001FDF7AAFD0022002302
:1025E000FDF7A6FDCEA3D3E90023FDF757FF002298
:1025F000CE4BFDF79DFDCE4D069F07EB47046600D1
:1026000005EB4404FEF722FAA8530022C64BDDE98D
:102610001201FDF78DFD0022C34BFDF787FDC0A31E
:10262000D3E90023FDF73AFF0022C04BFDF780FD00
:10263000FEF70CFA608000220023DDE91401FDF7AB
:1026400077FDB7A3D3E90023FDF728FF0022B74B9E
:10265000FDF76EFDFEF7FAF9A080DDE9082340469C
:102660004946FDF765FD804689463B4601330693A2
:10267000079B069A934240F37181DDE92645424665
:102680004B460020AB49FDF751FD02460B46CDE914
:1026900004234FF0000ADFF8A0B252465B4602F076
:1026A000C7FB02460B4620462946FDF7F7FE0446C7
:1026B0000D4652465B46DDE92C01FDF7EFFE424632
:1026C0004B46FDF7EBFE06460F4600224FF08043D7
:1026D000DDE9040102F0ACFB02460B463046394608
:1026E000FDF7DCFE02460B4620462946FDF720FD9D
:1026F00006460F4652465B46DDE93201FDF7CEFE47
:1027000004460D4600224FF080434046494602F001
:102710008FFB02460B4620462946FDF7BFFE0246C8
:102720000B46DDE90401FDF7B9FE02460B463046D3
:102730003946FDF7FDFC04460D46DDE93867524693
:102740005B464046494602F073FB02460B46304664
:102750003946FDF7A3FE02460B4620462946FDF703
:10276000E7FCCDE90A01DDE9284552465B46DDE993
:10277000040102F05DFB02460B4620462946FDF7A8
:102780008DFE06460F4652465B46DDE92E01FDF7FB
:1027900085FE42464B46FDF781FE04460D4600226B
:1027A0004FF08043DDE9040102F042FB02460B4694
:1027B00020462946FDF772FE02460B463046394652
:1027C000FDF7B6FC06460F4652465B46DDE934018E
:1027D000FDF764FE04460D4600224FF0804340465C
:1027E000494602F025FB02460B4620462946FDF7E6
:1027F00055FE02460B46DDE90401FDF74FFE024699
:102800000B4630463946FDF793FC04460D46DDE99C
:102810003A6752465B464046494602F009FB02468B
:102820000B4630463946FDF739FE02460B46204638
:102830002946FDF77DFCCDE90C01DDE92A4552462C
:102840005B46DDE9040102F0F3FA02460B4620463E
:102850002946FDF723FE06460F4652465B46DDE954
:102860003001FDF71BFE42464B46FDF717FE0446BE
:102870000D4600224FF08043DDE9040102F0D8FA52
:1028800002460B4620462946FDF708FE02460B4647
:1028900030463946FDF74CFC04460D4652465B4631
:1028A000DDE93601FDF7FAFD06460F4600224FF03E
:1028B00080434046494602F0BBFA02460B4630468A
:1028C0003946FDF7EBFD02460B46DDE90401FDF755
:1028D000E5FD02460B4620462946FDF729FC044645
:1028E0000D46DDE93C6752465B464046494602F0EC
:1028F0009FFA02460B4630463946FDF7CFFD0246A9
:102900000B4620462946FDF713FCCDE90E0110AC1D
:102910000CAB0FCB8DE80F000AAB0CCB20460DE0C3
:10292000D42B6519E23826400080564000407F4095
:10293000980100200000F03F00000840FFF74CF82D
:1029400014AB93E803008DE8030094E80F00FEF752
:10295000D3FF01283FF43CAE002055E03AAB0FCB4B
:102960008DE80F0038AB0CCB16A8FFF735F8002226
:102970002B4BDDE91601FDF7DBFB00220023FDF701
:10298000D7FB25A3D3E90023FDF788FD0022254BC3
:10299000FDF7CEFB244D079F07EB4704660005EBD0
:1029A0004404FEF753F8A85300221D4BDDE918013B
:1029B000FDF7BEFB00221A4BFDF7B8FB16A3D3E9C7
:1029C0000023FDF76BFD0022164BFDF7B1FBFEF770
:1029D0003DF8608000220023DDE91A01FDF7A8FB25
:1029E0000DA3D3E90023FDF759FD00220D4BFDF7A0
:1029F0009FFBFEF72BF8A0800C4B00221A603B4691
:102A000001330B4A136001201DB0BDE8F04F04B044
:102A1000704700BFAFF30080D42B6519E238264021
:102A20000080564000407F40980100209401002023
:102A30009001002084B0F0B597B01CAC84E80F0082
:102A4000DDE93423CDE914230DF1380C0DF1880EA6
:102A5000BEE80F00ACE80F009EE803008CE803001E
:102A60000DF1200C0DF1B80EBEE80F00ACE80F0020
:102A70009EE803008CE803000DF1080C0DF1A00E98
:102A8000BEE80F00ACE80F009EE803008CE80300EE
:102A900020AB93E803008DE8030094E80F00FFF7F4
:102AA0006BFD012806D00025284617B0BDE8F04090
:102AB00004B070470546114B1C681AE0104B1968AA
:102AC000104B04EB440203EB420633F812304B6325
:102AD000142000F003FA0C4F3B6872889A631420AC
:102AE00000F0FCF93B68B2881A64142000F0F6F993
:102AF0000134064B1B68A342E0DCD5E794010020BB
:102B0000C008002098010020080900209001002042
:102B100082B00A4B9A6942F001029A619A6902F006
:102B200001020092009ADA6942F08052DA61DB69B0
:102B300003F080530193019B02B0704700100240E4
:102B4000FEE7FEE7FEE7FEE7FEE7704770477047E7
:102B500008B500F0B1F908BD08B5024801F038FB2E
:102B600008BD00BF500900207047000082B0036814
:102B70000E4A934204D00E4A93420CD002B07047E2
:102B80000C4B9A6942F400629A619B6903F40063FA
:102B90000093009BF2E7074BDA6942F00402DA6126
:102BA000DB6903F004030193019BE7E7002C01407C
:102BB000000800400010024000B587B000230293D7
:102BC0000393049305930368184A934205D0184A67
:102BD000934217D007B05DF804FB164B9A6942F098
:102BE00004029A619B6903F004030093009B4FF475
:102BF0002063029302230393059302A90E4800F079
:102C000067FAE7E70B4B9A6942F008029A619B6901
:102C100003F008030193019B4023029302230393D3
:102C2000059302A9054800F053FAD3E7002C0140B0
:102C3000000800400010024000080140000C014064
:102C400010B592B000241094119409940A940B9436
:102C50000C940D940E940F942022214601A801F0AB
:102C600035FC2848284B036047234360846044F6C2
:102C70001F63C36004614461846100F025FF002884
:102C800031D100231093119310A91E4801F05CF874
:102C900000282BD16023099300230A930B930C93F4
:102CA0000D930E930F93042209A9164800F066FFB6
:102CB000F8B90C2209A9134800F060FFE0B900231D
:102CC000019302930393049305934FF400520692E9
:102CD000089301A90B4801F06DF880B90948FFF786
:102CE0006BFF12B010BDFEF735FCCAE7FEF732FCF1
:102CF000D0E7FEF72FFCDCE7FEF72CFCDFE7FEF762
:102D000029FCEBE708090020002C014000B58BB03E
:102D1000002308930993019302930393049305936B
:102D2000069307931748184A02604722426083605F
:102D300044F61F62C2600361836100F0C5FEC0B942
:102D400000230893099308A90E4800F0FDFF98B9E5
:102D500060230193002202920392059201A909487F
:102D600000F00CFF58B90748FFF726FF0BB05DF8DD
:102D700004FBFEF7EFFBE3E7FEF7ECFBE8E7FEF70B
:102D8000E9FBF0E7C00800200008004008B50A4849
:102D90000A4B03604FF4E133436000238360C36058
:102DA00003610C2242618361C36101F0F3F800B951
:102DB00008BDFEF7CFFBFBE75009002000440040B0
:102DC00030B587B000230293039304930593026800
:102DD0001B4B9A4201D007B030BD03F5E633DA69E8
:102DE00042F40032DA61DA6902F400320092009AA9
:102DF0009A6942F004029A619B6903F0040301930B
:102E0000019B0423029302230393032305930D4D97
:102E100002A9284600F05CF90823029300240394D9
:102E200004940DEB0301284600F052F92246214696
:102E3000262000F0ADF8262000F0BAF8CBE700BF5E
:102E4000004400400008014010B504460E4B1A78BB
:102E50004FF47A73B3FBF2F30C4A1068B0FBF3F053
:102E600000F0B4F868B90F2C01D901200AE0002263
:102E700021464FF0FF3000F08BF8054B1C6000201E
:102E800000E0012010BD00BF040000200000002071
:102E90000800002008B5074A136843F010031360C8
:102EA000032000F063F80F20FFF7CEFFFFF730FE9E
:102EB000002008BD00200240034A1168034B1B7824
:102EC0000B441360704700BF9409002004000020E9
:102ED000014B1868704700BF9409002038B50446BC
:102EE000FFF7F6FF0546B4F1FF3F02D0044B1B7815
:102EF0001C44FFF7EDFF401BA042FAD338BD00BFD2
:102F000004000020002808DB0901C9B200F160407C
:102F100000F5614080F80013704700F00F000901D0
:102F2000C9B2014B1954704714ED00E000B500F030
:102F30000700C0F1070CBCF1040F28BF4FF0040CD0
:102F4000031D062B0FD9C31E4FF0FF3E0EFA0CF0E7
:102F500021EA000199400EFA03FE22EA0E0241EA3C
:102F600002005DF804FB0023EEE70000074AD36887
:102F700023F4E0631B041B0C000200F4E060034335
:102F800043F0BF6343F40033D360704700ED00E0CB
:102F900010B50446054BD868C0F30220FFF7C6FF02
:102FA00001462046FFF7AEFF10BD00BF00ED00E078
:102FB000002807DB00F01F02400901239340024A6A
:102FC00042F82030704700BF00E100E00138B0F166
:102FD000807F0BD24FF0E0235861054AF02182F840
:102FE00023100020986107221A6170470120704762
:102FF00000ED00E0034690F82120022A06D00422CA
:103000008263002280F820200120704701680A684E
:1030100022F00E020A6001680A6822F001020A60CA
:10302000026CC06B012101FA02F2426083F82110A8
:10303000002083F82000704708B590F82130022B5B
:1030400003D004238363012008BD0268136823F0C2
:103050000E0313600268136823F001031360036812
:10306000194A934214D0143293421FD0143293421F
:103070001ED0143293421ED0143293421ED014320A
:10308000934202D04FF0807203E04FF4801200E0D0
:1030900001220E4B5A60012380F82130002380F872
:1030A0002030436B6BB198470020CDE71022F0E74A
:1030B0004FF48072EDE74FF48052EAE74FF480322C
:1030C000E7E70020C0E700BF080002400000024020
:1030D00070B582B00024A446A2E07E4DAB4210D071
:1030E00007D97D4DAB420CD005F58035AB4208D0F9
:1030F00013E0A5F58015AB4203D005F57025AB4272
:1031000007D18B68002B55D0012B4ED0426108248B
:1031100003E0A5F58015AB42F3D0BEF1FF0F4BD80D
:1031200006464FEA8C0233680F25954023EA0503D3
:1031300004FA02F2134333604B6813F0805F6DD0E2
:10314000664B9A6942F001029A619B6903F00103A0
:103150000193019B4FEA9C02951C614B53F825603B
:103160000CF00305AD000F23AB4026EA03065D4BD0
:10317000984228D003F58063984200F08D8003F5D3
:103180008063984200F08A8003F58063984218D0EB
:10319000042319E0CC68C0E7CC680434BDE7CC68F0
:1031A0000834BAE7CC680C34B7E702610824B4E706
:1031B0000024B2E70424B0E7061DACF10802920037
:1031C000B1E7032300E00023AB4033430232444D18
:1031D00045F822304B6813F4803F61D0424A1368AF
:1031E00043EA0E0313604B6813F4003F5ED03E4A7F
:1031F000536843EA0E0353604B6813F4801F5BD09F
:10320000394A936843EA0E0393604B6813F4001F36
:1032100058D0354AD36843EA0E03D3600CF1010C51
:103220000B6833FA0CF253D0012202FA0CF203EAD3
:10323000020E32EA0303F1D14B68122B3FF64DAF79
:10324000122B3FF66AAF01A555F823F003310008B1
:10325000953100089F310008B13100081B3100088A
:103260001B3100081B3100081B3100081B3100080E
:103270001B3100081B3100081B3100081B310008FE
:103280001B3100081B3100081B3100081B310008EE
:1032900099310008A5310008012395E7022393E73F
:1032A000114A136823EA0E0313609CE70E4A536821
:1032B00023EA0E0353609FE70B4A936823EA0E0349
:1032C0009360A2E7084AD36823EA0E03D360A5E718
:1032D00002B070BD0000221000003110001002404A
:1032E0000000014000080140000401400AB10161F2
:1032F000704709040161704782B0084B1B68084A97
:10330000A2FB03235B0A00FB03F3019300BF019BB5
:103310005A1E0192002BF9D102B070470000002024
:10332000D34D6210002800F0F18170B582B00446E0
:10333000036813F0010F2CD0994B5B6803F00C036A
:10334000042B1DD0964B5B6803F00C03082B12D0A6
:103350006368B3F5803F41D0002B55D103F1804322
:1033600003F504331A6822F480321A601A6822F4D2
:1033700080221A6037E08A4B5B6813F4803FE7D005
:10338000874B1B6813F4003F03D06368002B00F0E9
:10339000BF81236813F0020F75D0814B5B6813F077
:1033A0000C0F5FD07E4B5B6803F00C03082B54D0EE
:1033B0002369002B00F08A807A4B01221A60FFF704
:1033C00087FD0546764B1B6813F0020F75D1FFF79A
:1033D0007FFD401B0228F5D903209EE1704A136847
:1033E00043F480331360636843B3FFF771FD054610
:1033F0006B4B1B6813F4003FCBD1FFF769FD401BFB
:103400006428F5D9032088E1B3F5A02F09D0644BD7
:103410001A6822F480321A601A6822F480221A6034
:10342000E1E703F18043A3F53C331A6842F48022BC
:103430001A601A6842F480321A60D4E7FFF748FD38
:103440000546574B1B6813F4003FA2D0FFF740FD21
:10345000401B6428F5D903205FE1514B5B6813F4EE
:10346000803FA5D14E4B1B6813F0020F03D0236998
:10347000012B40F04F814A4A136823F0F803616939
:1034800043EAC1031360236813F0080F33D0A36924
:10349000002B5CD0434B0122C3F88024FFF718FDBA
:1034A00005463F4B5B6A13F0020F21D1FFF710FD79
:1034B000401B0228F5D903202FE1394A136823F075
:1034C000F803616943EAC1031360DCE7354B00226E
:1034D0001A60FFF7FDFC0546314B1B6813F0020F25
:1034E000D1D0FFF7F5FC401B0228F5D9032014E1E9
:1034F0000120FFF701FF236813F0040F00F096800E
:10350000274BDB6913F0805F34D1254BDA6942F039
:103510008052DA61DB6903F080530193019B01253E
:10352000214B1B6813F4807F26D0E368012B3DD02C
:10353000002B53D103F1804303F504331A6A22F0C0
:1035400001021A621A6A22F004021A6233E0154B71
:103550000022C3F88024FFF7BBFC0546104B5B6AD2
:1035600013F0020FC7D0FFF7B3FC401B0228F5D9B8
:103570000320D2E00025D3E70B4A136843F480739D
:103580001360FFF7A5FC0646074B1B6813F4807F0A
:10359000CBD1FFF79DFC801B6428F5D90320BCE04C
:1035A0000010024000004242007000405F4A136A6F
:1035B00043F001031362E36833B3FFF789FC064667
:1035C0005A4B1B6A13F0020F2FD1FFF781FC801BAF
:1035D00041F288339842F3D903209EE0052B09D0AD
:1035E000524B1A6A22F001021A621A6A22F004028D
:1035F0001A62E0E74D4B1A6A42F004021A621A6A34
:1036000042F001021A62D6E7FFF762FC0646474B1A
:103610001B6A13F0020F08D0FFF75AFC801B41F21F
:1036200088339842F3D9032077E0E5B9E369002BAA
:1036300072D03E4A526802F00C02082A56D0022B81
:1036400017D03B4B00221A66FFF742FC0446374B6B
:103650001B6813F0007F47D0FFF73AFC001B0228DD
:10366000F5D9032059E0314AD36923F08053D3615F
:10367000DCE72F4B00221A66FFF72AFC05462B4B8E
:103680001B6813F0007F06D0FFF722FC401B0228C6
:10369000F5D9032041E0236AB3F5803F1AD02349CE
:1036A0004B6823F47413226A606A024313434B602D
:1036B0001F4B01221A66FFF70BFC04461B4B1B68CD
:1036C00013F0007F0ED1FFF703FC001B0228F5D991
:1036D000032022E0154A536823F40033A1680B430A
:1036E0005360DCE7002018E0002016E0012B16D024
:1036F0000E4B5B6803F48031226A914211D103F4CE
:103700007013626A93420ED1002006E001207047D8
:10371000012002E0012000E0002002B070BD012085
:10372000FBE70120F9E70120F7E700BF00100240A6
:103730000000424286B0174B0FCB0DF1180C0CE97C
:103740000F0040F20123ADF80430134B5B6803F027
:103750000C02082A02D0114806B07047C3F3834216
:1037600018326A4412F8100C13F4803F0DD00A4B43
:103770005B68C3F3404318336B4413F8143C074AA7
:1037800002FB00F0B0FBF3F0E6E7054B03FB00F0B3
:10379000E2E700BFC07A00080010024000127A0081
:1037A00000093D00002800F0A08070B50D460446D9
:1037B000524B1B6803F007038B420BD24F4A13682E
:1037C00023F007030B431360136803F007038B42D6
:1037D00040F08D80236813F0020F17D013F0040F10
:1037E00004D0474A536843F4E0635360236813F0FE
:1037F000080F04D0424A536843F460535360404A70
:10380000536823F0F003A1680B435360236813F05F
:10381000010F31D06368012B20D0022B25D0384A0C
:10382000126812F0020F64D035494A6822F0030290
:1038300013434B60FFF74CFB0646314B5B6803F0CC
:103840000C036268B3EB820F16D0FFF741FB801BBD
:1038500041F288339842F0D9032045E0284A1268A3
:1038600012F4003FE0D101203EE0254A126812F038
:10387000007FD9D1012037E0204B1B6803F00703FC
:10388000AB420AD91D4A136823F007032B43136088
:10389000136803F00703AB422DD1236813F0040F24
:1038A00006D0174A536823F4E063E1680B43536082
:1038B000236813F0080F07D0114A536823F46053AC
:1038C000216943EAC1035360FFF734FF0C4B5B6887
:1038D000C3F303130B4AD35CD8400B4B18600B4B5C
:1038E0001868FFF7B1FA002070BD01207047012071
:1038F000FAE70120F8E70120F6E700BF00200240C8
:1039000000100240B07A00080000002008000020EB
:10391000014B1868704700BF0000002008B5FFF792
:10392000F7FF044B5B68C3F30223034AD35CD84020
:1039300008BD00BF00100240A87A000808B5FFF7D4
:10394000E7FF044B5B68C3F3C223034AD35CD84050
:1039500008BD00BF00100240A87A000830B4036A16
:1039600023F001030362026A4568836923F073034D
:103970000C681C4322F002028B6813430B4A9042EE
:1039800006D0456084614A684263036230BC704778
:1039900023F00803CA681A4322F0040325F4407593
:1039A0004A692A438D691543EBE700BF002C0140AB
:1039B00030B4036A23F480730362036A4468C26903
:1039C00022F073020D68154323F400738A6843EAFA
:1039D00002230D4A904206D04460C5614A68C26322
:1039E000036230BC704723F40063CA6843EA0223D1
:1039F00023F4806324F440544A6944EA02148A6937
:103A000044EA0214E8E700BF002C014030B4036A26
:103A100023F480530362036A4468C26922F4E642D5
:103A20000D6842EA052223F400538D6843EA05330A
:103A3000074DA84206D04460C2614A68026403622E
:103A400030BC704724F480444D6944EA8514F2E7A1
:103A5000002C014003681B4A90420AD0B0F1804F0D
:103A600007D0A2F59432904203D002F580629042D2
:103A700003D123F070034A681343124A90420AD0DC
:103A8000B0F1804F07D0A2F59432904203D002F5F6
:103A90008062904203D123F44073CA68134323F039
:103AA00080034A69134303608B68C3620B688362B7
:103AB000044B984202D00123436170470B690363B2
:103AC000F9E700BF002C014040B310B5044690F860
:103AD0003D30F3B1022384F83D30214651F8040B08
:103AE000FFF7B8FF012384F8463084F83E3084F8AD
:103AF0003F3084F8403084F8413084F8423084F814
:103B0000433084F8443084F8453084F83D30002058
:103B100010BD80F83C30FFF729F8DBE70120704743
:103B200030B4036A23F010030362036A44688269B5
:103B300022F4E6420D6842EA052223F020038D6854
:103B400043EA05130C4DA84206D0446082614A68DE
:103B50008263036230BC704723F08003CD6843EA80
:103B6000051323F0400324F440644D6944EA8504BE
:103B70008D6944EA8504E8E7002C014038B590F8E7
:103B80003C30012B60D004460D46012380F83C30C8
:103B90000C2A1AD8DFE802F0071919191D1919198A
:103BA0003119191944000068FFF7D8FE226893699B
:103BB00043F0080393612268936923F0040393613F
:103BC0002268936929690B439361002084F83C00C3
:103BD00038BD0068FFF7A4FF2268936943F40063CF
:103BE00093612268936923F48063936122689369E7
:103BF000296943EA01239361E7E70068FFF7D8FEEC
:103C00002268D36943F00803D3612268D36923F0A3
:103C10000403D3612268D36929690B43D361D4E7D4
:103C20000068FFF7F3FE2268D36943F40063D361B1
:103C30002268D36923F48063D3612268D369296938
:103C400043EA0123D361C0E70220C1E701F01F016D
:103C50004FF0010C0CFA01FC036A23EA0C03036227
:103C6000036A8A40134303627047000010B504469C
:103C7000084651BB94F83E30DBB2013B18BF01232C
:103C8000002B5BD1002839D1022384F83E30012279
:103C900001462068FFF7DAFF23682A4A93423DD0A5
:103CA0002368284A93423ED0B3F1804F3BD0A2F51F
:103CB0009432934237D002F58062934233D01A682F
:103CC00042F001021A60002039E0042908D00829D6
:103CD0000DD094F84130DBB2013B18BF0123CFE790
:103CE00094F83F30DBB2013B18BF0123C8E794F8DA
:103CF0004030DBB2013B18BF0123C1E7042805D0E7
:103D0000082807D0022384F84130C0E7022384F852
:103D10003F30BCE7022384F84030B8E75A6C42F4E5
:103D200000425A64BCE79A6802F00702062A07D0EC
:103D30001A6842F001021A60002000E0012010BD64
:103D40000020FCE7002C014090F83C20012A2CD0F8
:103D500010B40346012280F83C20022280F83D2066
:103D600002685068946820F0700C086840EA0C0003
:103D700050601A680E4882420AD0B2F1804F07D0D4
:103D8000A0F59430824203D000F58060824204D1D5
:103D900024F08004496821439160012283F83D208A
:103DA000002083F83C0010BC70470220704700BF21
:103DB000002C0140024690F83C30012B21D0012319
:103DC00080F83C30CB6823F440738868034323F4C5
:103DD00080634868034323F400630868034323F4C3
:103DE00080530869034323F400534869034323F4D1
:103DF0008043C9690B4311684B64002082F83C0082
:103E00007047022070470268D36823F49073D36030
:103E10000268536923F001035361036B012B05D042
:103E2000202380F83E300023036370470268D36884
:103E300023F01003D360F3E790F83D30DBB2212B81
:103E400001D0022070478368B3F5805F17D0036A02
:103E50005A1C02621A7803685A60C38C9BB2013BF9
:103E60009BB2C3844BB90268D36823F08003D3604C
:103E70000268D36843F04003D360002070470369B1
:103E8000002BE4D1036A1B880268C3F30803536064
:103E9000036A02330362E0E710B50446026813695F
:103EA00023F44053C1680B431361836802691343D1
:103EB00042691A430168CB6823F4B05323F00C0322
:103EC0001343CB600268536923F4407381690B4349
:103ED00053610268134B9A4220D0FFF71FFD024640
:103EE00002EB820202EB820263689B00B2FBF3F2F8
:103EF0000D48A0FB02314909642303FB11231B0178
:103F00003233A0FB03035B0903F0F00202EB011262
:103F100003F00F03216813448B6010BDFFF70EFD03
:103F20000246DDE7003801401F85EB512DE9F843DB
:103F300005460F4616469946DDF820802B681C681A
:103F400037EA04040CBF01240024B4421FD1B8F1A5
:103F5000FF3FF3D0B8F1000F05D0FEF7B9FFA0EB9B
:103F600009004045EAD92A68D36823F4D073D360A6
:103F70002A68536923F001035361202385F83D30FB
:103F800085F83E30002385F83C30032000E0002017
:103F9000BDE8F88358B310B5044690F83D300BB334
:103FA000242384F83D302268D36823F40053D3607F
:103FB0002046FFF771FF2268136923F490431361D1
:103FC0002268536923F02A0353612268D36843F4BB
:103FD0000053D36000202064202384F83D3084F80F
:103FE0003E3010BD80F83C30FEF7EAFED8E70120F5
:103FF00070472DE9F04182B01E4690F83D30DBB2AB
:10400000202B54D104460D469046002953D0002A57
:1040100053D090F83C30012B51D0012380F83C3034
:1040200000230364212380F83D30FEF751FF07464B
:10403000A4F82480A4F82680A368B3F5805F05D097
:104040004FF00008002384F83C3012E0236913B1DC
:104050004FF00008F6E7A8460025F3E738F8023BE2
:104060002268C3F308035360E28C92B2013A92B221
:10407000E284E38C9BB273B100963B460022802120
:104080002046FFF753FFE0B9002DE7D015F8012BCC
:1040900023685A60E8E700963B460022402120460C
:1040A000FFF744FF78B9202384F83D3000E0022078
:1040B00002B0BDE8F0810120FAE70120F8E7022014
:1040C000F6E70320F4E70320F2E7704708B501683C
:1040D000CA6822F04002CA60202280F83D20FFF723
:1040E000F4FF002008BD704708B5406A0023C3856F
:1040F000C384FFF7F8FF08BD704790F83E30DBB28D
:10410000222B60D18368B3F5805F46D0826AB3F515
:10411000805F04D0002B4DD10369002B4AD1036886
:104120005B681370836A01338362C38D9BB2013B6A
:104130009BB2C385002B48D100B583B00268D36819
:1041400023F02003D3600268D36823F48073D36024
:104150000268536923F001035361202380F83E3045
:10416000036B012B2CD1002303630268D36823F077
:104170001003D36003681A6812F0100F06D00022F3
:1041800001921A6801925B680193019B818DFFF790
:10419000B3FF002003B05DF804FB0269002AB5D12B
:1041A000826A03685B68C3F308031380836A02337F
:1041B0008362BAE703685B6803F07F031370B1E7BB
:1041C000FDF798FAE5E702207047002070470000ED
:1041D00010B582B0044602681368D068516913F0C4
:1041E0000F0F09D113F0200F0CD010F0200F09D0C1
:1041F0002046FFF782FF16E011F0010115D110F4FF
:10420000907F12D1216B012971D013F0800F03D060
:1042100010F0800F40F0D28013F0400F03D010F068
:10422000400F40F0CF8002B010BD13F0010F06D058
:1042300010F4807F03D0226C42F00102226413F05C
:10424000040F04D019B1226C42F00202226413F070
:10425000020F04D019B1226C42F00402226413F060
:10426000080F07D010F0200F00D119B1226C42F0D6
:1042700008022264226C002AD5D013F0200F02D04D
:1042800010F0200F21D123685B6903F04003226CFA
:1042900012F0080F00D123B32046FFF7B4FD2368C6
:1042A0005A6912F0400F18D05A6922F040025A6140
:1042B000A36B73B1454A5A63A06BFEF7BDFE00289D
:1042C000B1D0A06B436B9847ADE72046FFF715FFD1
:1042D000D9E72046FFF707FFA5E72046FFF703FFD2
:1042E000A1E72046FFF7FFFE002323649BE713F0BE
:1042F000100F8AD010F0100F87D00023019313689D
:10430000019353680193019B536913F0400F31D01F
:10431000A16B0B685B689BB2002B84D0A08D984288
:1043200081D9E3858B69202B08D1A18DE38D9BB2C8
:10433000C91A89B22046FFF7DFFE74E7D36823F479
:104340008073D3602268536923F0010353612268AC
:10435000536923F040035361202384F83E30002347
:1043600023632268D36823F01003D360A06BFEF7A9
:1043700041FEDAE7A38DE18D89B25B1A99B2E38D34
:104380009BB2002B3FF44FAF00293FF44CAFD368F2
:1043900023F49073D3602268536923F001035361BF
:1043A000202384F83E30002323632268D36823F05F
:1043B0001003D3602046FFF79FFE34E72046FFF747
:1043C0003BFD30E72046FFF781FE2CE7E94000087F
:1043D000034681628285C28500201864222283F808
:1043E0003E2083F83C001968CA6842F48072CA60B3
:1043F00019684A6942F001024A611A68D36843F0B9
:104400002003D360704708B590F83E30DBB2202B14
:104410000DD171B17AB190F83C30012B0DD0012350
:1044200080F83C3000230363FFF7D2FF00E0022056
:1044300008BD0120FCE70120FAE70220F8E70000B0
:104440000C480D490D4A002302E0D458C4500433EF
:10445000C4188C42F9D30A4A0A4C002301E01360C5
:104460000432A242FBD3FEF77FFB00F037F8FDF7E2
:10447000A5F870470000002070000020607D000853
:1044800070000020E00A0020FEE700000EB46FF08C
:10449000004100B59CB01DAB0290069007910491BD
:1044A0000848094953F8042B0591006802A90193B3
:1044B00000F08AF90022029B1A701CB05DF804EB30
:1044C00003B070470C0000200802FFFF03460244BF
:1044D000934200D1704703F8011BF9E770B500263D
:1044E0000C4D0D4C641BA410A64209D103F06AFACE
:1044F00000260A4D0A4C641BA410A64205D170BDCB
:1045000055F8043B98470136EEE755F8043B9847C9
:104510000136F2E7587D0008587D0008587D0008F4
:104520005C7D0008704770470A44914200F1FF33F8
:1045300000D1704710B511F8014B914203F8014FBB
:10454000F9D110BD38B50546002940D051F8043CDA
:104550000C1F002BB8BFE41800F0CEF81C4A1368FB
:1045600033B9636014602846BDE8384000F0CAB82B
:10457000A34208D9206821188B4201BF19685B68E3
:1045800009182160EDE71A465B680BB1A342FAD91E
:1045900011685018A0420BD1206801445018834282
:1045A0001160E0D118685B68084410605360DAE776
:1045B00002D90C232B60D6E7206821188B4201BF5B
:1045C00019685B680918216063605460CBE738BDE7
:1045D000DC0A002070B50F4E0C463168054611B953
:1045E00000F0A8FB30602146284600F0A3FB431CE6
:1045F00003D14FF0FF34204670BDC41C24F00304E7
:10460000A042F8D0211A284600F094FB0130F2D1E4
:10461000EFE700BFD80A0020F8B5CD1C25F0030550
:1046200008350C2D38BF0C25002D064601DBA942AC
:1046300003D90C2333600020F8BD2E4F00F05CF846
:104640003B681C4634BB29463046FFF7C3FF431C7A
:1046500004464DD13C682146002940D1002C41D070
:1046600023683046E71800F065FB87423AD123689B
:104670000335ED1A25F0030508350C2D38BF0C2540
:1046800030462946FFF7A6FF01302BD023682B4484
:1046900023600EE02268521B1ED40B2A16D9611922
:1046A000A342256018BF5960636808BF3960625132
:1046B0004B60304600F026F804F10B00231D20F07B
:1046C0000700C21A1CBF1B1AA350B5E76268A342B9
:1046D0000CBF3A605A60ECE723466468B2E70C46C8
:1046E0004968B9E70C233046336000F00BF8A2E7C5
:1046F0000560DEE7DC0A00200148FFF713BF00BFBA
:10470000D40A00200148FFF70EBF00BFD40A0020E2
:104710002DE9F0471F468E688246BE420C46904601
:104720000B682DD8B1F90C2012F4906F26D0656972
:10473000096905EB4505A3EB010905EBD5757B1C64
:104740004B446D109D4238BF1D46530527D5294661
:10475000FFF762FF064660B34A462169FFF7E4FEB1
:10476000A38923F4906343F08003A38126614E4420
:1047700026603E466561A5EB0905A560BE4200D9ED
:104780003E4632464146206800F0BAFA0020A3684F
:104790009B1BA360236833442360BDE8F0872A464F
:1047A00000F0E6FA06460028E0D150462169FFF7FE
:1047B000C9FE0C23CAF80030A3894FF0FF3043F044
:1047C0004003A381E9E700002DE9F04F98468B896B
:1047D00007461B060D4614469DB010D50B6973B9EC
:1047E0004021FFF719FF2860286130B90C233B6096
:1047F0004FF0FF301DB0BDE8F08F40236B61002308
:10480000099320238DF8293030234FF00109CDF88A
:104810000C80DFF898818DF82A3023469A4613F8E9
:10482000012B0AB1252AF9D1BAEB040B0BD05B4658
:10483000224629463846FFF76BFF013000F0A7807B
:10484000099A5A4409929AF80030002B00F09F8090
:1048500000234FF0FF32CDE905230AF1010A04934A
:1048600007938DF853301A935446052214F8011B10
:104870004E4800F06FFA049AD8B9D00644BF2023FE
:104880008DF85330110744BF2B238DF853309AF81D
:1048900000302A2B15D0544600204FF00A0C079AFE
:1048A000214611F8013B303B092B4BD9B0B107929F
:1048B00014E0A0EB080309FA03F31343A2460493A0
:1048C000D2E7039B191D1B680391002BBBBF5B4202
:1048D00042F0020207930793B8BF049223782E2B6D
:1048E0000AD163782A2B32D1039B02341A1D1B682C
:1048F000039243EAE3730593DFF8B4A00322504622
:10490000217800F027FA38B14022049BA0EB0A007E
:10491000824013430134049314F8011B06222548F6
:104920008DF8281000F016FA002836D0224B1BBB59
:10493000039B073323F0070308330393099B334496
:1049400009936AE70C4601200CFB0232A8E700231A
:104950004FF00A0C194601340593204610F8012B3C
:10496000303A092A03D9002BC6D00591C4E7044682
:1049700001230CFB0121F0E703AB00932A463846E4
:104980000E4B04A9AFF30080421C0646D6D1AB897A
:104990005B063FF52DAF09982CE703AB00932A4641
:1049A0003846064B04A900F07DF8EDE7D17A0008FF
:1049B000D77A0008DB7A00080000000011470008E1
:1049C0002DE9F047164698468A680B6907469342D8
:1049D000B8BF1346336091F843200C46DDF82090B1
:1049E0000AB1013333602368990642BF336802334A
:1049F0003360256815F0060506D104F1190AE3684D
:104A000032689B1AAB422BDC94F843302268003B9F
:104A100018BF0123920630D44146384604F14302C0
:104A2000C847013023D02368226903F00603042B12
:104A300014BF002533684FF0000608BFE56804F195
:104A40001A0408BFED1A54F8123C08BF25EAE575B0
:104A50009342C4BF9B1AED18B5421AD1002008E05A
:104A60000123524641463846C847013003D14FF032
:104A7000FF30BDE8F0870135C1E73020E11881F84B
:104A800043005A1C94F845102244023382F8431024
:104A9000C2E70123224641463846C8470130E6D0E6
:104AA0000136D9E72DE9FF470F7E9146782F8046E2
:104AB0000C469A460C9D01F1430207D8622F0AD892
:104AC000002F00F0E080582F00F0BB8004F1420678
:104AD00084F842703AE0A7F16303152BF6D801A1E0
:104AE00051F823F03D4B0008514B0008CD4A000817
:104AF000CD4A0008CD4A0008CD4A0008514B0008B5
:104B0000CD4A0008CD4A0008CD4A0008CD4A000829
:104B10006D4C0008E14B0008234C0008CD4A00080A
:104B2000CD4A00088F4C0008CD4A0008E14B000830
:104B3000CD4A0008CD4A00082B4C00082B6804F130
:104B400042061A1D1B682A6084F842300123ABE03C
:104B5000236829681F0601F10400286001D50D684B
:104B600003E05E06FBD5B1F90050002D61687ADAEA
:104B70002D20002984F84300A1602DDA0A235E4825
:104B80006D421646B5FBF3F103FB1157C75D06F8FE
:104B9000017D2F46BB420D46F4D9082B0BD123686B
:104BA000DF0708D5236961689942DEBF302306F824
:104BB000013C06F1FF36921B22614B4621464046DE
:104BC000CDF800A003AAFFF7FBFE013071D14FF032
:104BD000FF3004B0BDE8F08723F004032360CDE785
:104BE0002B682068191D2960050601D51D6802E0A3
:104BF0004106FBD51D886F2F14BF0A2308233E48AA
:104C0000002184F843106668002EA660B9DB216895
:104C100021F004012160002DB3D1002EB1D1164640
:104C2000BBE7236843F0200323607827334884F8E8
:104C30004570296823680E1D2E601E0603D50D6879
:104C400004E02D48F3E75D06F9D50D88D90744BF88
:104C500043F0200323600DB11023D1E7236823F034
:104C600020032360F8E70A232348CCE72B68266853
:104C7000181D6169286035061B6801D5196002E0BE
:104C80007006FBD5198000231646236195E72B6833
:104C900000211A1D2A601E686268304600F05AF82A
:104CA00008B1801B606063682361002384F843308F
:104CB00083E73246494640462369D047013086D0D3
:104CC00023689B0714D4E068039B9842B8BF18463A
:104CD0007FE70123324649464046D04701303FF442
:104CE00076AF0135E36803995B1AAB42F1DCEAE782
:104CF000002504F11906F5E7E27A0008F37A0008C6
:104D0000884210B501EB020402D98442234607D839
:104D1000431EA14208D011F8012B03F8012FF8E738
:104D2000014602448A4200D110BD13F8014D02F839
:104D3000014DF7E738B50023054D044608462B60C2
:104D4000FBF7EAFE431C02D12B6803B1236038BD98
:104D5000D00A0020034610B5C9B202449342184657
:104D600001D1002003E0047801338C42F6D110BD5C
:104D70002DE9F041804615460C4621B91146BDE8A3
:104D8000F041FFF749BC2AB9FFF7DCFB00242046BD
:104D9000BDE8F08100F01AF88542064602D8B5EB6E
:104DA000500FF4D829464046FFF736FC0746002846
:104DB000ECD0B5422A46214628BF3246FFF7B4FB65
:104DC00021464046FFF7BEFB3C46E0E751F8043C75
:104DD000181F002BBCBF0B58C0187047F8B504460D
:104DE0000D4600F0B5FD224606460F462B462046EE
:104DF0002946FBF7EDFD40B92046294600F080FA30
:104E00000022084BFBF7DAFD10B930463946F8BDF1
:104E100002F0D2FD2122034603481A60BDE8F840A3
:104E200000F0C2BA0000F03FD07A000800F0E8BFFE
:104E30002DE9F84314461D468046894601F0ACF83A
:104E4000224606460F462B4620462946FBF7C0FD64
:104E500078B90022002340464946FBF787FDD8B1C8
:104E60000022002320462946FBF780FD28B10026BA
:104E7000254F30463946BDE8F8832046294600F0E4
:104E80008DFA0028F5D02046294600220023FBF7A2
:104E900077FD0028EDD02CE03046394600F07EFA50
:104EA000A0B10022002330463946FBF75FFD002801
:104EB000DFD04046494600F071FA0028D9D020469C
:104EC000294600F06BFA0028D3D012E0404649464C
:104ED00000F064FA0028E4D02046294600F05EFA8B
:104EE0000028DED032463B4630463946FBF770FD9F
:104EF00020B902F061FD22230360BAE702F05CFDF5
:104F000021230360B5E700BF0000F03FF8B5044679
:104F10000D4600F04FFA224606460F462B46204625
:104F20002946FBF755FD30B92046294600220023CB
:104F3000FBF726FD10B930463946F8BD02F03CFDBE
:104F4000002200232121016010461946FBF7D0FB07
:104F500006460F4630463946F8BD00BF0000000047
:104F60002DE9F84FBA4B21F000469E4204460D460B
:104F70008A4616D9B74B9E420BD808D0BAF1000F1B
:104F800040F3C18096A1D1E90001BDE8F88F002867
:104F9000F4D022462B4620462946FBF7C9F8BDE847
:104FA000F88FAD4B9E4200F2B380A3F1DE739E42B8
:104FB00040F29A804FF0FF3B22462B46204629467E
:104FC000FBF76CFA02460B4680468946FBF766FA09
:104FD00085A3D3E9002306460F46FBF75FFA84A3B7
:104FE000D3E90023FBF7A4F832463B46FBF756FA19
:104FF00081A3D3E90023FBF79BF832463B46FBF73E
:105000004DFA7FA3D3E90023FBF792F832463B46E3
:10501000FBF744FA7CA3D3E90023FBF789F8324677
:105020003B46FBF73BFA7AA3D3E90023FBF780F872
:1050300042464B46FBF732FA77A3D3E9002380467A
:10504000894630463946FBF729FA75A3D3E9002390
:10505000FBF76CF832463B46FBF720FA72A3D3E924
:105060000023FBF763F832463B46FBF717FA70A3C1
:10507000D3E90023FBF75AF832463B46FBF70EFA1A
:105080006DA3D3E90023FBF751F832463B46FBF70B
:1050900005FABBF1FF3F02460B464046494656D053
:1050A000FBF746F86D4E22462B46FBF7F7F96C4BA3
:1050B00006EBCB064FEACB0B5B44D3E90023FBF7AF
:1050C00035F822462B46FBF731F802460B46D6E967
:1050D0000001FBF72BF8BAF1000FBFF660AF01F14A
:1050E00000431946BDE8F88F55A3D3E90023FBF729
:1050F0001FF800225B4BFBF761FC00283FF45AAF1E
:10510000204629464BE750A1D1E90001BDE8F88FC0
:1051100000F0F6F8544B04469E420D4625D8A3F500
:1051200050239E424CD802460B46FBF701F8002262
:105130004C4BFAF7FBFF02460B4620462946144625
:105140001D464FF0000B00224FF0804322E0FAF79B
:10515000EFFF22462B46FBF7A1F902460B462046FD
:105160002946FAF7E3FFBDE8F88F404B9E421CD278
:1051700000223F4BFAF7DAFF02460B46204629464B
:1051800014461D4600223A4B4FF0020BFBF786F9FE
:105190000022344BFAF7CCFF02460B462046294644
:1051A000FBF7A6FA04460D4606E702460B4600202A
:1051B0003049FBF79DFA4FF0030B04460D46FBE622
:1051C0000022284BFAF7B2FF02460B46204629463A
:1051D0004FF0010B14461D46DAE700BFAFF3008025
:1051E000182D4454FB21F93F11DA22E33AAD903FE8
:1051F000EB0D76244B7BA93F513DD0A0660DB13F0E
:105200006E204CC5CD45B73FFF8300922449C23F75
:105210000D5555555555D53F2F6C6A2C44B4A2BF3A
:105220009AFDDE522DDEAD3F6D9A74AFF2B0B33F02
:10523000711623FEC671BC3FC4EB98999999C93F7A
:105240009C7500883CE4377E182D4454FB21F9BF3F
:10525000FFFF0F440000F07FFFFFDB3F287B0008CB
:10526000087B00080000F03FFFFFF23F0080034092
:105270000000F83F0000F0BF1F4A21F000439342B6
:105280001DD930B51D4A87B0934205D902460B4659
:10529000FAF74CFF07B030BD02AA01F025FC00F080
:1052A000030001280FD002281FD0B8B1DDE9042384
:1052B000DDE902010124009400F092FAEAE70022FD
:1052C000002300F065B90090DDE90423DDE9020167
:1052D00000F086FA01F1004107B030BDDDE904239A
:1052E000DDE9020100F054F9D4E7DDE90423DDE94A
:1052F000020100F04DF9EDE7FB21E93FFFFFEF7FF1
:1053000021F000431946704730B5224A21F000438E
:10531000934287B01CD9204A934205D902460B46D6
:10532000FAF704FF07B030BD02AA01F0DDFB00F080
:105330000300012814D0022822D0C0B1DDE90423E3
:10534000DDE9020100F024F901F1004107B030BDB0
:10535000002400220023009400F042FA07B030BD80
:10536000DDE90423DDE9020100F012F9DAE70124A6
:10537000DDE90423DDE90201009400F031FAD1E710
:105380000124DDE90423DDE90201009400F028FA9C
:10539000DAE700BFFB21E93FFFFFEF7F41F000406C
:1053A00000F58010C00F704700200149704700BF12
:1053B0000000F87F2DE9F84F724F04468F430D46E9
:1053C00000F0B28000290B460646024655DD08155E
:1053D00000F09B80C3F31303C107A0F2FF3743F42F
:1053E000801303D4D10F01EB43035200002616248F
:1053F0004FF40011B4465B0003EBD2737F105200F0
:105400000CEB0100834203DB1B1A01EB000C0E4482
:105410005B00013C03EBD2734FEA51014FEA4202B9
:10542000EED120254FF00040A0460AE039D05900C7
:1054300001EBD271013D0B464FEA42024FEA5000A8
:105440003BD09C4508EB000EF0DABEF1000F0EEBEE
:1054500000080CDBE146A3EB0C01CC46964588BF67
:1054600001F1FF314900A2EB0E020444E0E7B8F17C
:10547000000FEFDB0CF10109EDE721F000470743D6
:105480003DD0002973D1D10A153B52050029FAD02D
:10549000CD02184616460B4637D520244FF0FF3173
:1054A0003EE0964502D94FEA4C01C1E7BEF1000F3C
:1054B0000EEB000825DB0021D5E7114312D0DFF801
:1054C000C8A0DFF8C8B0DAE90001DBE90023FAF789
:1054D0002DFEDAE9008902460B4640464946FBF7B5
:1054E00059FA58BB6508F20748BF45F00045284601
:1054F000731003F17F5303F5001303EB0751BDE86D
:10550000F88FB8F1000FB5DAD5E700225B00DC02B6
:10551000114602F10102F9D5C2F1200406FA02F2A5
:10552000E640401A334355E702460B46FAF7B6FF0A
:1055300022462B46FAF7FCFDBDE8F88FB4F1FF3F99
:10554000DAE90001DBE9002318D0DAE90089FAF78B
:10555000EFFD02460B4640464946FBF711FA78B18B
:10556000A11C04F1020508BF01366D08BBE7FAF77C
:10557000DDFD02460B46FBF7BBF8C0E70136B2E79C
:105580000134AFE70000F07F6800002060000020D9
:105590002DE9F04F21F00048B8F1795F06460F463B
:1055A00092469B4685B06DD2FBF728FA002800F0A2
:1055B000ED8032463B4630463946FAF76FFF76A318
:1055C000D3E9002304460D46FAF768FF74A3D3E934
:1055D0000023FAF7ADFD22462B46FAF75FFF72A3D0
:1055E000D3E90023FAF7A2FD22462B46FAF756FF2D
:1055F0006FA3D3E90023FAF79BFD22462B46FAF767
:105600004DFF6DA3D3E90023FAF790FD22462B4608
:10561000FAF744FF6AA3D3E90023FAF789FD22468B
:105620002B46FAF73BFFCDE9000100222046294630
:10563000654BFAF733FFDDE90023804689462046B3
:105640002946FAF72BFF44464D4680468946524686
:105650005B4630463946FAF721FF02460B46404684
:105660004946FAF763FD02460B4620462946FAF7FB
:105670005DFD02460B4600205449FAF757FD05B080
:10568000BDE8F08F02460B46FAF708FF42A3D3E9C4
:10569000002304460D46FAF701FF41A3D3E9002396
:1056A000FAF746FD22462B46FAF7F8FE3EA3D3E969
:1056B0000023FAF73BFD22462B46FAF7EFFE3CA308
:1056C000D3E90023FAF734FD22462B46FAF7E6FE2B
:1056D00039A3D3E90023FAF729FD22462B46FAF72E
:1056E000DDFE37A3D3E90023FAF722FD2B4622463D
:1056F000FAF7D4FE364BCDE90001984595D9354BE4
:10570000002298453AD8A8F5001300202F4990466A
:105710009946FAF70BFDCDE9020100222046294601
:10572000294BFAF7BBFE42464B46FAF7FFFCDDE990
:1057300000238046894620462946FAF7AFFE4446B4
:105740004D468046894652465B4630463946FAF712
:10575000A5FE02460B4640464946FAF7E7FC0246DC
:105760000B4620462946FAF7E1FC02460B46DDE9E6
:105770000201FAF7DBFC05B0BDE8F08F164B4FF0E5
:105780000008CDE90223DFF85490C6E700200F4956
:1057900005B0BDE8F08F00BFD43888BEE9FAA8BDD7
:1057A000C4B1B4BD9EEE213EAD529C804F7E923E70
:1057B0009015CB19A001FA3E7751C1166CC1563F26
:1057C0004C5555555555A53F0000E03F0000F03FB2
:1057D0003233D33F0000E93F0000E73F0000D23FF3
:1057E0002DE9F04F83B0CDE9002321F00043B3F160
:1057F000795F04460D4604D2FBF700F9002800F05B
:10580000858022462B4620462946FAF747FE064663
:105810000F4632463B4620462946FAF73FFE3EA356
:10582000D3E9002382468B4630463946FAF736FEE6
:105830003BA3D3E90023FAF779FC32463B46FAF75B
:105840002DFE39A3D3E90023FAF772FC32463B461A
:10585000FAF724FE36A3D3E90023FAF767FC3246B1
:105860003B46FAF71BFE34A3D3E90023FAF760FCAA
:105870000C9B804689469BB3DDE900010022324B38
:10588000FAF70CFE42464B4680468946504659463A
:10589000FAF704FE02460B4640464946FAF746FC34
:1058A00032463B46FAF7FAFDDDE90023FAF73EFC03
:1058B00023A3D3E9002306460F4650465946FAF77C
:1058C000EDFD02460B4630463946FAF731FC0246FA
:1058D0000B4620462946FAF729FC03B0BDE8F08FB5
:1058E00002460B4630463946FAF7D8FD14A3D3E9F1
:1058F0000023FAF71BFC52465B46FAF7CFFD22461F
:105900002B46FAF715FC03B0BDE8F08F2046294678
:1059100003B0BDE8F08F00BF7CD5CF5A3AD9E53D42
:10592000EB9C2B8AE6E55A3E7DFEB157E31DC73E50
:10593000D561C119A0012A3FA6F810111111813FAC
:10594000495555555555C53F0000E03F0000000042
:105950002DE9F84FC44E21F00043B34204460D46F2
:105960000DD903F1404303F58013034340F0B980A0
:10597000002940F3C08000200021BDE8F88FBB4E15
:10598000B34208D8BA4A934200F2BA809CA1D1E946
:105990000001BDE8F88F0029C0F2708102460B4675
:1059A0000020B449FAF7C2FB0022B34BFAF776FDA8
:1059B00004460D46FFF7FEFC93A3D3E90023894676
:1059C000804629462046FAF769FD91A3D3E90023D2
:1059D000FAF7AEFB22462B46FAF760FD8EA3D3E919
:1059E0000023FAF7A3FB22462B46FAF757FD8CA3B8
:1059F000D3E90023FAF79CFB22462B46FAF74EFD2B
:105A000089A3D3E90023FAF791FB22462B46FAF744
:105A100045FD87A3D3E90023FAF78AFB22462B46EC
:105A2000FAF73CFD84A3D3E9002382468B46204647
:105A30002946FAF733FD82A3D3E90023FAF776FB70
:105A400022462B46FAF72AFD7FA3D3E90023FAF773
:105A50006FFB22462B46FAF721FD7DA3D3E90023F5
:105A6000FAF764FB22462B46FAF718FD0022814B19
:105A7000FAF75EFB02460B4650465946FAF738FEE7
:105A800042464B46FAF70AFD002682468B463246CE
:105A90004B4630464946FAF701FD02460B46204682
:105AA0002946FAF743FB324604460D464B4640462C
:105AB0004946FAF73DFB02460B4620462946FAF7CF
:105AC00017FE02460B4650465946FAF731FB32465E
:105AD0004B46FAF72DFB02460B46FAF729FBBDE8C9
