:020000040800F2
:1000000000500020D5490008F12F0008F32F000808
:10001000F52F0008F72F0008F92F00080000000056
:10002000000000000000000000000000FB2F00089E
:10003000FD2F000800000000FF2F0008013000081D
:100040001D4A00081D4A00081D4A00081D4A0008F4
:100050001D4A00081D4A00081D4A00081D4A0008E4
:100060001D4A00081D4A00081D4A00081D4A0008D4
:100070001D4A00081D4A00081D4A00081D4A0008C4
:100080001D4A00081D4A00081D4A00081D4A0008B4
:100090001D4A00081D4A00081D4A00081D4A0008A4
:1000A0001D4A00081D4A00081D4A00081D4A000894
:1000B0001D4A00081D4A00081D4A00081D4A000884
:1000C0001D4A00081D4A00081D4A00081D4A000874
:1000D0001D4A00081D4A0008093000081D4A000892
:1000E0001D4A00081D4A00081D4A000800000000C3
:1000F0000000000000000000000000000000000000
:0C01000000000000000000005FF808F1A3
:1001100010F8012B11F8013B012A28BF9A42F7D0B1
:10012000D01A704781F0004102E000BF83F0004325
:1001300030B54FEA41044FEA430594EA050F08BF82
:1001400090EA020F1FBF54EA000C55EA020C7FEA46
:10015000645C7FEA655C00F0E2804FEA5454D4EBC3
:100160005555B8BF6D420CDD2C4480EA020281EA8D
:10017000030382EA000083EA010180EA020281EAC5
:100180000303362D88BF30BD11F0004F4FEA013117
:100190004FF4801C4CEA113102D0404261EB410126
:1001A00013F0004F4FEA03334CEA133302D05242AC
:1001B00063EB430394EA050F00F0A780A4F1010468
:1001C000D5F1200E0DDB02FA0EFC22FA05F28018A2
:1001D00041F1000103FA0EF2801843FA05F3594188
:1001E0000EE0A5F120050EF1200E012A03FA0EFC07
:1001F00028BF4CF0020C43FA05F3C01851EBE37131
:1002000001F0004507D54FF0000EDCF1000C7EEB4D
:1002100000006EEB0101B1F5801F1BD3B1F5001F8B
:100220000CD349085FEA30004FEA3C0C04F10104AA
:100230004FEA445212F5800F80F09A80BCF1004FD3
:1002400008BF5FEA500C50F1000041EB045141EA55
:10025000050130BD5FEA4C0C404141EB0101013C1E
:1002600028BFB1F5801FE9D291F0000F04BF01460D
:100270000020B1FA81F308BF2033A3F10B03B3F1DF
:1002800020020CDA0C3208DD02F1140CC2F10C026F
:1002900001FA0CF021FA02F10CE002F11402D8BFCD
:1002A000C2F1200C01FA02F120FA0CFCDCBF41EA99
:1002B0000C019040E41AA2BF01EB0451294330BD68
:1002C0006FEA04041F3C1CDA0C340EDC04F1140445
:1002D000C4F1200220FA04F001FA02F340EA03001C
:1002E00021FA04F345EA030130BDC4F10C04C4F162
:1002F000200220FA02F001FA04F340EA0300294642
:1003000030BD21FA04F0294630BD94F0000F83F48B
:10031000801306BF81F480110134013D4EE77FEA6E
:10032000645C18BF7FEA655C29D094EA050F08BFBA
:1003300090EA020F05D054EA000C04BF194610469B
:1003400030BD91EA030F1EBF0021002030BD5FEADF
:10035000545C05D14000494128BF41F0004130BD07
:1003600014F580043CBF01F5801130BD01F000455B
:1003700045F0FE4141F470014FF0000030BD7FEACE
:10038000645C1ABF194610467FEA655C1CBF0B46C9
:10039000024650EA013406BF52EA033591EA030FE0
:1003A00041F4002130BD00BF90F0000F04BF0021D8
:1003B000704730B54FF4806404F132044FF000050B
:1003C0004FF0000150E700BF90F0000F04BF002184
:1003D000704730B54FF4806404F1320410F00045EA
:1003E00048BF40424FF000013EE700BF42004FEAE5
:1003F000E2014FEA31014FEA02701FBF12F07F4362
:1004000093F07F4F81F06051704732F07F4208BF18
:10041000704793F07F4F04BF41F40021704730B51F
:100420004FF4607401F0004521F000411CE700BF6B
:1004300050EA010208BF704730B54FF000050AE0EE
:1004400050EA010208BF704730B511F0004502D5EF
:10045000404261EB41014FF4806404F132045FEAF1
:10046000915C3FF4D8AE4FF003025FEADC0C18BF9A
:1004700003325FEADC0C18BF033202EBDC02C2F18C
:10048000200300FA03FC20FA02F001FA03FE40EA1E
:100490000E0021FA02F11444BDE600BF70B54FF022
:1004A000FF0C4CF4E06C1CEA11541DBF1CEA135500
:1004B00094EA0C0F95EA0C0F00F0DEF82C4481EA68
:1004C000030621EA4C5123EA4C5350EA013518BF88
:1004D00052EA033541F4801143F4801338D0A0FB75
:1004E00002CE4FF00005E1FB02E506F00042E0FB22
:1004F00003E54FF00006E1FB03569CF0000F18BF28
:100500004EF0010EA4F1FF04B6F5007F64F54074CF
:1005100004D25FEA4E0E6D4146EB060642EAC62162
:1005200041EA55514FEAC52040EA5E504FEACE2ECF
:10053000B4F1FD0C88BFBCF5E06F1ED8BEF1004FD2
:1005400008BF5FEA500E50F1000041EB045170BD4E
:1005500006F0004646EA010140EA020081EA030192
:10056000B4EB5C04C2BFD4EB0C0541EA045170BD8E
:1005700041F480114FF0000E013C00F3AB8014F108
:10058000360FDEBF002001F0004170BDC4F1000451
:10059000203C35DA0C341BDC04F11404C4F12005D2
:1005A00000FA05F320FA04F001FA05F240EA02002D
:1005B00001F0004221F0004110EBD37021FA04F663
:1005C00042EB06015EEA430E08BF20EAD37070BD1D
:1005D000C4F10C04C4F1200500FA04F320FA05F07C
:1005E00001FA04F240EA020001F0004110EBD3707E
:1005F00041F100015EEA430E08BF20EAD37070BDEE
:10060000C4F1200500FA05F24EEA020E20FA04F3C6
:1006100001FA05F243EA020321FA04F001F0004175
:1006200021FA04F220EA020000EBD3705EEA430EE6
:1006300008BF20EAD37070BD94F0000F0FD101F015
:100640000046400041EB010111F4801F08BF013C4E
:10065000F7D041EA060195F0000F18BF704703F08C
:100660000046520043EB030313F4801F08BF013D13
:10067000F7D043EA0603704794EA0C0F0CEA1355CF
:1006800018BF95EA0C0F0CD050EA410618BF52EA89
:100690004306D1D181EA030101F000414FF000008F
:1006A00070BD50EA410606BF1046194652EA43069D
:1006B00019D094EA0C0F02D150EA013613D195EA11
:1006C0000C0F05D152EA03361CBF104619460AD159
:1006D00081EA030101F0004141F0FE4141F4700163
:1006E0004FF0000070BD41F0FE4141F4780170BD53
:1006F00070B54FF0FF0C4CF4E06C1CEA11541DBFB8
:100700001CEA135594EA0C0F95EA0C0F00F0A7F8B9
:10071000A4EB050481EA030E52EA03354FEA0131E6
:1007200000F088804FEA03334FF0805545EA1313F9
:1007300043EA12634FEA022245EA111545EA1065C1
:100740004FEA00260EF000419D4208BF964244F158
:10075000FD0404F5407402D25B084FEA3202B61A77
:1007600065EB03055B084FEA32024FF480104FF44B
:10077000002CB6EB020E75EB030E22BFB61A7546BF
:1007800040EA0C005B084FEA3202B6EB020E75EB52
:10079000030E22BFB61A754640EA5C005B084FEABA
:1007A0003202B6EB020E75EB030E22BFB61A754687
:1007B00040EA9C005B084FEA3202B6EB020E75EB92
:1007C000030E22BFB61A754640EADC0055EA060E53
:1007D00018D04FEA051545EA16754FEA06164FEA96
:1007E000C30343EA52734FEAC2025FEA1C1CC0D142
:1007F00011F4801F0BD141EA00014FF000004FF0CF
:10080000004CB6E711F4801F04BF01430020B4F18F
:10081000FD0C88BFBCF5E06F3FF6AFAEB5EB030C47
:1008200004BFB6EB020C5FEA500C50F1000041EB44
:10083000045170BD0EF0004E4EEA113114EB5C0411
:10084000C2BFD4EB0C0541EA045170BD41F48011E4
:100850004FF0000E013C90E645EA060E8DE60CEAEC
:10086000135594EA0C0F08BF95EA0C0F3FF43BAF09
:1008700094EA0C0F0AD150EA01347FF434AF95EAC0
:100880000C0F7FF425AF104619462CE795EA0C0FA4
:1008900006D152EA03353FF4FDAE1046194622E771
:1008A00050EA410618BF52EA43067FF4C5AE50EA4B
:1008B00041047FF40DAF52EA43057FF4EBAE12E73B
:1008C0004FF0FF3C06E000BF4FF0010C02E000BF1C
:1008D0004FF0010C4DF804CD4FEA410C7FEA6C5CFF
:1008E0004FEA430C18BF7FEA6C5C1BD001B050EAA2
:1008F000410C0CBF52EA430C91EA030F02BF90EA8D
:10090000020F0020704710F1000F91EA030F58BF4B
:10091000994208BF90422CBFD8176FEAE37040F0AD
:10092000010070474FEA410C7FEA6C5C02D150EA4B
:10093000013C07D14FEA430C7FEA6C5CD6D152EA06
:10094000033CD3D05DF8040B704700BF84461046CB
:1009500062468C461946634600E000BF01B5FFF7CA
:10096000B7FF002848BF10F1000F01BD4DF808ED9A
:10097000FFF7F4FF0CBF012000205DF808FB00BF6B
:100980004DF808EDFFF7EAFF34BF012000205DF8C5
:1009900008FB00BF4DF808EDFFF7E0FF94BF012012
:1009A00000205DF808FB00BF4DF808EDFFF7CEFF13
:1009B00094BF012000205DF808FB00BF4DF808ED52
:1009C000FFF7C4FF34BF012000205DF808FB00BF23
:1009D0004FEA410C7FEA6C5C02D150EA013C0AD13B
:1009E0004FEA430C7FEA6C5C02D152EA033C02D12D
:1009F0004FF0000070474FF0010070474FEA41028E
:100A000012F5001215D211D56FF47873B3EB625260
:100A100012D94FEAC12343F0004343EA505311F087
:100A2000004F23FA02F018BF404270474FF0000019
:100A3000704750EA013005D111F0004008BF6FF057
:100A4000004070474FF00000704700BF4A0011D2CD
:100A500012F5001211D20DD56FF47873B3EB625218
:100A60000ED44FEAC12343F0004343EA505323FA24
:100A700002F070474FF00000704750EA013002D199
:100A80004FF0FF3070474FF00000704700F1340125
:100A900091E838009C46A6464CF8045D90E8FF0FAC
:100AA000E54600BD90EC210B704700BF80EC210BA8
:100AB000704700BF90EC200B704700BF80EC200B0C
:100AC000704700BFD0EC200B704700BFC0EC200B7C
:100AD000704700BFF0EC0201F0EC0211F0EC0221D3
:100AE000F0EC0231F0EC0241F0EC0251F0EC02616A
:100AF000F0EC0271F0EC0281F0EC0291F0EC02A15A
:100B0000F0EC02B1F0EC02C1F0EC02D1F0EC02E149
:100B1000F0EC02F1704700BFE0EC0201E0EC0211E2
:100B2000E0EC0221E0EC0231E0EC0241E0EC0251A9
:100B3000E0EC0261E0EC0271E0EC0281E0EC029199
:100B4000E0EC02A1E0EC02B1E0EC02C1E0EC02D189
:100B5000E0EC02E1E0EC02F1704700BFB0FC018183
:100B6000B0FC0191B0FC01A1B0FC01B1704700BF25
:100B7000A0FC0181A0FC0191A0FC01A1A0FC01B19D
:100B8000704700BFEC4600B52DE900502DE9FF1F6E
:100B90004FF000032DE90C0001A907F015FEDDF868
:100BA00040E012B0704700BFEC4600B52DE90050A0
:100BB0002DE9FF1F4FF000032DE90C0001A907F0FC
:100BC00043FEDDF840E012B0704700BFEC4600B5D0
:100BD0002DE900502DE9FF1F4FF000032DE90C0017
:100BE00001A907F051FEDDF840E012B0704700BFE8
:100BF000EC4600B52DE900502DE9FF1F4FF0000332
:100C00002DE90C0001AB07F013FEDDF840E012B057
:100C1000704700BFEC4600B52DE900502DE9FF1FDD
:100C20004FF000032DE90C0001AA07F087FEDDF864
:100C300040E012B0704700BF0348044B834202D02B
:100C4000034B03B11847704778000020780000205C
:100C5000000000000548064B1B1AD90F01EBA30149
:100C6000491002D0034B03B11847704778000020A9
:100C7000780000200000000010B5064C237843B92E
:100C8000FFF7DAFF044B13B10448AFF300800123F0
:100C9000237010BD7800002000000000789200084A
:100CA00008B5054B1BB105490548AFF30080BDE809
:100CB0000840FFF7CFBF00BF000000007C0000200D
:100CC000789200084FF400534B60002070474FF0BB
:100CD000FF30704710B514464FF6FF7392B20248CA
:100CE00003F0DFFB204610BD200A002001207047E2
:100CF0004FF0FF307047000010B514464FF6FF73F9
:100D000092B2024803F039FC204610BD200A0020B0
:100D10000346094A126842B1074A106803446A460A
:100D2000934206D8044A13607047034A034911608E
:100D3000F2E74FF0FF30704794000020B80B00201E
:100D40002DE9F04F87B00F1E73DD8246934603787E
:100D50002D2B58D0002400223B4BCDE904236926DB
:100D60004FF00008DFF8E09000220023CDE90023D7
:100D7000CDE902235B46B3465646BA461F461DE000
:100D80000022324BDDE90201FFF788FBCDE90201C9
:100D90002846FFF719FBDDE90223FFF7C9F9002216
:100DA0002B4BFFF7C3F9CDE9020106E02E2D42D10E
:100DB000BBF1690F41D14FF0640B0134544528DA7F
:100DC000355DA5F13003DBB2092BEFD8BBF1690F1C
:100DD000D6D01BA3D3E9002340464946FFF75EFB6C
:100DE00080468946A5F13000FFF7EEFA42464B46B1
:100DF000FFF754FB02460B46DDE90001FFF798F9C7
:100E0000CDE90001D9E701240022124BCDE90423EA
:100E1000A5E7DDE90023DDE90201FFF789F9DDE956
:100E20000423FFF73BFBC7E90001012007B0BDE841
:100E3000F08F0020FAE70020F8E70020F6E700BF77
:100E40009A9999999999B93F0000F03F0000244080
:100E5000000048400000F0BF2DE9F041D2B0054647
:100E6000002300E00133E918EA5C0AB1202AF9D135
:100E7000002A00F0C7845C1C00230B700A238DF845
:100E800047319D492846FFF743F930B19B49284631
:100E9000FFF73EF9002840F0958100220023CDE9BC
:100EA0003023CDE93223CDE9342300270EE001368B
:100EB000AB5D0BB1202BFAD130AB03EBC702311B7A
:100EC0002819FFF73DFF88B1741C0137022F01DCA0
:100ED0002646EDE788492846FFF71AF948B18749C1
:100EE0002846FFF715F9002800F0AB80002700F036
:100EF0008ABCDDE93023CDE93623DDE93201CDE9D5
:100F00003801DDE93445CDE93A457D4E0496CDE919
:100F10000245CDE900017B4800F0B4FE7A4E002284
:100F20007A4BCDE9082302AC36AD0FCD0FC495E85E
:100F3000030084E8030006F1100393E803008DE842
:100F4000030096E80F0001F019FD8DF8A8000128B4
:100F50002FD06F4C01221021204602F01FFC6D4D56
:100F60004FF6FF7301222AA9284603F09AFA4FF69A
:100F7000FF7301220DF24711284603F092FA322046
:100F800002F004FA00221021204602F007FC624B16
:100F90000493DDE93423CDE90223DDE93223CDE9F1
:100FA0000023DDE930235D4800F06CFE012700F0EE
:100FB0002ABC344636AD0FCD0FC495E8030084E853
:100FC0000300574E38AB0FCB8DE80F0036AB0CCB80
:100FD00016A800F059FF354616AC0FCC0FC594E8A3
:100FE000030085E803004A4C01221021204602F04C
:100FF000D5FB484D4FF6FF7301222AA9284603F07E
:1010000050FA4FF6FF7301220DF24711284603F004
:1010100048FA322002F0BAF900221021204602F0EC
:10102000BDFB404B0493D6E90423CDE90223D6E966
:101030000223CDE90023D6E900233B4800F022FE3D
:10104000B4E7DDE93023CDE93623DDE93201CDE92E
:101050003801DDE93445CDE93A45324E0496CDE913
:101060000245CDE90001314800F00CFE2C4E02ACE7
:1010700036AD0FCD0FC495E8030084E8030006F1F8
:10108000100393E803008DE8030096E80F0001F0D9
:101090003DF98DF8A80001284CD01D4C01221021EB
:1010A000204602F07BFB1B4D4FF6FF7301222AA95D
:1010B000284603F0F6F94FF6FF7301220DF24711AF
:1010C000284603F0EEF9322002F060F900221021E8
:1010D000204602F063FB104B0493DDE93423CDE995
:1010E0000223DDE93223CDE90023DDE93023104876
:1010F00000F0C8FD5AE700BF9092000898920008DF
:10110000B0920008A0920008B000002000004E40FD
:1011100000080140200A0020E0920008D092000858
:1011200098000020CC920008B4920008F0920008C9
:1011300014930008A94F38AB0FCB8DE80F0036ACE5
:1011400094E80C0016A800F0A3FF3E4616AD0FCDA4
:101150000FC695E8030086E80300A14D0FCC0FC52C
:1011600094E8030085E803009E4C012210212046EC
:1011700002F014FB9C4D4FF6FF7301222AA928466A
:1011800003F08FF94FF6FF7301220DF24711284645
:1011900003F087F9322002F0F9F8002210212046EE
:1011A00002F0FCFA914B0493D7E90423CDE9022322
:1011B000D7E90223CDE90023D7E900238C4800F0CA
:1011C00061FDF3E68B492846FEF7A2FF8046002822
:1011D00040F0DD802022002136A803F019FE12E045
:1011E0000136AB5D0BB1202BFAD136AB03EBC80255
:1011F000311B2819FFF7A4FD0746002800F00383E0
:10120000741C08F10108B8F1030F01DC2646E8E779
:10121000DDE93623CDE93023DDE93823CDE932237A
:10122000DDE93A23CDE934236E4C0122102120461A
:1012300002F0B4FA704803F0A3FCDDE9360100F0D7
:101240006FFCDDE9380100F06BFCDDE93A0100F0EC
:1012500067FCDDE93C0100F063FC684803F0F8FC42
:1012600000221021204602F099FA5C4EDDE93C2371
:10127000CDE9082302AC30AD0FCD0FC495E80300D3
:1012800084E8030006F1100393E803008DE80300EF
:1012900096E80F0001F072FB8DF8A80001282ED00F
:1012A000504C01221021204602F078FA4E4D4FF6A4
:1012B000FF7301222AA9284603F0F3F84FF6FF73C3
:1012C00001220DF24711284603F0EBF8322002F01C
:1012D0005DF800221021204602F060FA484B04938A
:1012E000DDE93A23CDE90223DDE93823CDE9002306
:1012F000DDE93623434800F0C5FC012783E234468C
:1013000030AD0FCD0FC495E8030084E80300344EE0
:1013100032AB0FCB8DE80F0030AB0CCB16A800F032
:10132000B3FD354616AC0FCC0FC594E8030085E835
:1013300003002C4C01221021204602F02FFA2A4DE6
:101340004FF6FF7301222AA9284603F0AAF84FF6A8
:10135000FF7301220DF24711284603F0A2F8322054
:1013600002F014F800221021204602F017FA1F4B59
:101370000493D6E90423CDE90223D6E90223CDE97B
:101380000023D6E90023204800F07CFCB5E71F4984
:101390002846FEF7BDFE8046002840F0EC8068221B
:1013A000002136A803F034FD12E00136AB5D0BB12D
:1013B000202BFAD136AB03EBC802311B2819FFF7FB
:1013C000BFFC0746002800F01E82741C08F10108CB
:1013D000B8F10C0F1CDC2646E8E700BFB000002087
:1013E0009800002000080140200A0020CC9200084C
:1013F00000930008249300082C93000844930008ED
:10140000E0920008D0920008B492000848930008C7
:10141000DDE93623CDE91E23DDE93823CDE920239C
:10142000DDE93A23CDE92223DDE93C23CDE924237C
:10143000DDE93E23CDE92623DDE94023CDE928235C
:10144000DDE94223CDE92A23DDE94423CDE92C233C
:10145000DDE94623CDE92E23DDE94823CDE930231C
:10146000DDE94A23CDE93223DDE94C23CDE93423FC
:10147000DDE94E23CDE914230EAC30AD0FCD0FC402
:1014800095E8030084E8030008AC2AAD0FCD0FC433
:1014900095E8030084E8030002AC24AD0FCD0FC42F
:1014A00095E8030084E8030022AB93E803008DE88D
:1014B00003001EAB0FCB01F015FD8DF8770001285E
:1014C00020D0D44C01221021204602F067F9D24DE1
:1014D0004FF6FF7301220DF17701284602F0E1FF7C
:1014E0004FF6FF7301220DF24711284602F0D9FF93
:1014F000322001F04BFF00221021204602F04EF96D
:10150000012780E1C54C24AD0FCD0FC495E8030041
:1015100084E8030026AB0FCB8DE80F0024AB0CCB87
:1015200016A800F0B1FCBE4D16AC0FCC0FC594E868
:10153000030085E80300B74C01221021204602F089
:101540002DF9B54D4FF6FF7301220DF177012846B5
:1015500002F0A7FF4FF6FF7301220DF24711284654
:1015600002F09FFF322001F011FF002210212046DF
:1015700002F014F9C4E7AB492846FEF7C9FD074657
:10158000002840F0CA802C44A7492046FEF7C0FD41
:10159000002846D0A5492046FEF7BAFD002875D0A0
:1015A000A3492046FEF7B4FD002840F02C8100F04E
:1015B00053FA8DF8D800974C01221021204602F0F2
:1015C000EDF8954D4FF6FF73012236A9284602F03B
:1015D00068FF4FF6FF7301220DF24711284602F013
:1015E00060FF322001F0D2FE00221021204602F0DE
:1015F000D5F89DF8D830012B7DD0864C01221021E2
:10160000204602F0CBF80A218A4803F0B9FA3220CA
:1016100001F0BCFE00221021204602F0BFF8012795
:10162000F1E000F0F1F98DF8D8007A4C0122102198
:10163000204602F0B3F8784D4FF6FF73012236A929
:10164000284602F02EFF4FF6FF7301220DF24711DC
:10165000284602F026FF322001F098FE00221021D9
:10166000204602F09BF801221021204602F096F855
:101670000A21714803F084FA322001F087FE00222B
:101680001021204602F08AF80127BCE000F0D0F9D2
:101690008DF8D8005F4C01221021204602F07EF820
:1016A0005D4D4FF6FF73012236A9284602F0F9FE80
:1016B0004FF6FF7301220DF24711284602F0F1FEAA
:1016C000322001F063FE00221021204602F066F86D
:1016D00001221021204602F061F80A21574803F048
:1016E0004FFA322001F052FE00221021204602F073
:1016F00055F8012787E001221021204602F04EF81C
:101700000A214F4803F03CFA322001F03FFE00224C
:101710001021204602F042F881E74A492846FEF7A8
:10172000F7FC0746002872D12C4447492046FEF7B3
:10173000EFFCB0B345492046FEF7EAFC002862D131
:10174000344C01221021204602F028F8324D4FF689
:10175000FF7318223249284602F0A3FE4FF6FF73AA
:1017600001220DF24711284602F09BFE322001F0C3
:101770000DFE00221021204602F010F80122102157
:10178000204602F00BF80A21314803F0F9F9322023
:1017900001F0FCFD00221021204601F0FFFF01278F
:1017A00031E01C4C01221021204601F0F7FF1A4DB8
:1017B0004FF6FF7318221949284602F072FE4FF6C1
:1017C000FF7301220DF24711284602F06AFE322013
:1017D00001F0DCFD00221021204601F0DFFF012294
:1017E0001021204601F0DAFF0A211A4803F0C8F957
:1017F000322001F0CBFD00221021204601F0CEFF67
:10180000012700E00027384652B0BDE8F0810027EC
:10181000F9E700BF00080140200A0020B0000020C6
:101820009800002050930008589300087093000817
:1018300088930008A89300085C930008749300083C
:101840008C930008C4930008C8930008E493000830
:10185000E8930008CC93000830B589B000240494C4
:10186000059406940794174B9A6942F020029A61F6
:101870009A6902F020020192019A9A6942F00402E8
:101880009A619A6902F004020292029A9A6942F0FD
:1018900008029A619B6903F008030393039B0A4DB6
:1018A00022467021284601F079FF7023049301231A
:1018B000059306940223079304A9284601F060FECD
:1018C00009B030BD001002400008014072B6FEE7CA
:1018D00000B591B02822002106A803F099FA002350
:1018E00001930293039304930593012206924FF40C
:1018F000803307930A9202220D920E934FF4E01365
:101900000F9306A801F066FF80B90F23019302210F
:101910000291002303934FF480620492059301A87F
:1019200002F098F920B911B05DF804FBFFF7CEFF83
:10193000FFF7CCFF30B5A5B001F004FDFFF7C8FFFD
:10194000FFF78AFF01F0D4FB01F038FC01F076FCD0
:10195000254C0421204602F0E1FB0C21204602F038
:10196000DDFB0021214802F0D9FB0122204921485A
:1019700003F013F8002210211F4801F00FFF1F4C45
:1019800000220023C4E9002300201D49C4E902010C
:10199000C4E9042304F108030FCB8DE80F0094E899
:1019A0000C0004A800F074FB164D0DF1100CBCE8FF
:1019B0000F000FC59CE8030085E8030004F1100345
:1019C00093E803008DE8030094E80F0000F022FC88
:1019D00000F09EF80028FBD00BA800F06BF881B255
:1019E0000BA8FFF739FAF3E7D80900209009002087
:1019F000CC000020200A00200008014098000020B0
:101A000000805640B000002010B5074C0122202174
:101A1000204601F0C3FE01224021204601F0BEFE17
:101A20000120024B187010BD00080140C8000020C2
:101A300010B5074C00222021204601F0AFFE002205
:101A40004021204601F0AAFE0020024B187010BD74
:101A500000080140C8000020014B1878704700BF03
:101A6000C800002008B50E4B1B780D2B0BD00A2B9D
:101A700009D0FF2B07D00B490A7802F1010C81F83D
:101A800000C009498B54094A012111703B2B04D035
:101A90000122034902F081FF08BD054B1970F7E7E9
:101AA000CC000020CD000020D0000020CB00002082
:101AB000CA00002070B50646114B19780C46254621
:101AC0000134E4B20F4B5B5D3B2BF8D16A1A0D4B2E
:101AD0001944304603F010FA094B1B78EB1A002228
:101AE000F2546B1C084A1278934205D0044B1A78C2
:101AF000A81A1C70013070BD044B00221A70F5E763
:101B0000C9000020D0000020CD000020CA00002025
:101B1000014B1878704700BFCA0000200000000089
:101B20002DE9F04F87B004460D46FEF767FF05909C
:101B3000FEF74AFC02460B4620462946FEF7F6FA17
:101B400004460D4600220023FEF71AFF00287DD12F
:101B50000022474B20462946FEF7A0FCFEF74EFF29
:101B6000DFF810B18BFB0023C617C6EBA30606EB0C
:101B70008606A0EB460600223F4B20462946FEF78C
:101B80008DFCFEF73BFF8BFB0023C717C7EBA307BA
:101B900007EB8707A0EB47070022384B2046294672
:101BA000FEF77CFCFEF72AFF8BFB00234FEAE07870
:101BB000C8EBA30808EB8808A0EB480826A3D3E9E4
:101BC000002320462946FEF769FCFEF717FF8BFB32
:101BD00000234FEAE079C9EBA30909EB8909A0EBDF
:101BE00049091FA3D3E9002320462946FEF756FCE6
:101BF000FEF704FF8BFB00234FEAE07ACAEBA30A4F
:101C00000AEB8A0AA0EB4A0A17A3D3E9002320466D
:101C10002946FEF743FCFEF7F1FE8BFB003BC317A2
:101C2000C3EBAB0303EB8303A0EB43030393CDF8B8
:101C300008A0CDF80490CDF800803B4632460599C7
:101C40000F4802F09DFF07B0BDE8F08F05F100439B
:101C50001D467DE7AFF30080000000000088C34010
:101C600000000000006AF8400000000080842E415F
:101C700000002440676666660000594000408F40BF
:101C8000FC930008F8B5064614461D460F4F012286
:101C90001021384601F082FD31460D4802F070FFF8
:101CA00020462946FFF73CFFDDE90601FFF738FF34
:101CB000DDE90801FFF734FF0A99064802F060FFEA
:101CC00000221021384601F069FDF8BD00080140EE
:101CD000109400081C94000882B010B5044602A9B4
:101CE00081E80C009DF82030012B2BD02AA3D3E9EA
:101CF0000023DDE90201FEF7D1FB0022284BFEF7AD
:101D0000F7FCC4E9000124A3D3E90023DDE90401C1
:101D1000FEF7C4FB0022224BFEF7EAFCC4E90201F5
:101D20001DA3D3E90023DDE90601FEF7B7FB00227E
:101D30001B4BFEF7DDFCC4E904012046BDE8104062
:101D400002B0704714A3D3E90023DDE90201FEF7D6
:101D5000CFFC0022124BFEF7A1FBC4E900010EA349
:101D6000D3E90023DDE90401FEF7C2FC00220C4B9D
:101D7000FEF794FBC4E9020107A3D3E90023DDE9E0
:101D80000601FEF7B5FC0022054BFEF787FBC4E910
:101D90000401D2E7AFF300804AD8124DFB2109407D
:101DA000008066400000000084B0F8B506AC84E80E
:101DB0000F00DDE906452AA3D3E900232046294682
:101DC000FEF7F2FD00283AD027A3D3E900232046EE
:101DD0002946FEF7DFFD002836D0DDE9084524A3BB
:101DE000D3E9002320462946FEF7DEFD70B322A387
:101DF000D3E9002320462946FEF7CCFD40B3DDE9B8
:101E00000A671BA3D3E9002330463946FEF7CCFD11
:101E100000B319A3D3E9002330463946FEF7BAFDD3
:101E2000D0B132463B4620462946FEF781F914A33D
:101E3000D3E90023FEF7AEFD10B1012000E0002041
:101E4000BDE8F84004B070470020F9E70020F7E74C
:101E50000020F5E70020F3E70020F1E7AFF3008072
:101E6000F2D24D62108056C0F2D24D6210805640C0
:101E7000FCA9F1D24D6250BF79E926310880664055
:101E80008716D9CEF7FF634082B02DE9F0478AB0BC
:101E9000824612A981E80C00DDE91267DDE91445EC
:101EA000DDE9168932463B462046294603F06AFDA5
:101EB000CAE9000132463B4630463946FEF7EEFAA3
:101EC00006460F4622462B4620462946FEF7E6FAEE
:101ED00002460B4630463946FEF72AF903F0C2FDAA
:101EE0004FA3D3E90023FEF721F94FA3D3E9002341
:101EF000FEF71CF906460F460022514B4046494664
:101F0000FEF714F900224F4BFEF712F9804689467E
:101F100032463B4630463946FEF7C0FA04460D4687
:101F200042464B46CDE9068940464946FEF7B6FA99
:101F300002460B4620462946FEF7FAF803F092FDCA
:101F40008046894602460B46FEF7A8FA02460B4633
:101F5000CDE9082336A3D3E90023FEF7E9F80022F0
:101F6000394BFEF7E3F804460D460022374B404656
:101F70004946FEF793FA02460B4620462946FEF7ED
:101F8000B7FB03F0D7FC04460D46DDE9082328A182
:101F9000D1E90001FEF7CAF800222B4BFEF7C8F882
:101FA00000222B4BFEF7A4FB03F0C4FC80468946BD
:101FB00032463B46DDE90601FEF79AFB03F07CFD65
:101FC00006460F4602460B4620462946FEF7B0F865
:101FD000CAE9020132463B4617A1D1E90001FEF7EA
:101FE000A5F822462B46FEF7A1F842464B46FEF7DF
:101FF0009DF8CAE90401012304930AF108030FCBF9
:102000008DE80F009AE80C005046FFF765FE504639
:102010000AB0BDE8F04702B0704700BFAFF30080E0
:102020008195438B6C6731400000000000C0414047
:10203000000000000064D5404AD8124DFB21094041
:1020400000405840000034400000D94000807240F9
:102050000020E74084B010B58AB00CAC84E80F00D3
:1020600004AC0EAB0FCB8DE80F000CAB0CCB2046B5
:10207000FFF70AFF0AAB13E903008DE8030094E8B9
:102080000F00FFF791FE0AB0BDE8104004B07047A2
:1020900082B02DE9F0478EB0824616A981E80C0087
:1020A0000023049318AB0FCB8DE80F0016AB0CCBBD
:1020B00008A8FFF711FEDDE90867CDE90667DDE94D
:1020C0000A6732463B4644A1D1E90001FEF72EF8EB
:1020D000DDE90C23FEF72AF803F07AFE0022484BD4
:1020E000FEF7DCF902460B463DA1D1E90001FEF7FF
:1020F0001DF803F0B7FC04460D4602460B46FEF7FA
:10210000CDF939A3D3E90023FEF712F800223D4BA5
:10211000FEF70CF88046894600223B4B20462946B4
:10212000FEF7BCF902460B4640464946FEF7E0FA88
:1021300003F000FC02460B4630463946FDF7F6FF39
:102140008046894603F044FE22462B46FEF7A6F958
:1021500006460F464046494603F082FE22462B467D
:10216000FEF79CF90022294BFDF7E2FF0022284BE5
:10217000FDF7DCFFCAE904011DA3D3E900233046C3
:102180003946FDF7D5FF1CA3D3E90023FDF7D0FFA7
:1021900004460D46DDE906673046394603F018FE71
:1021A00002460B4620462946FEF778F9CAE90001A7
:1021B0003046394603F054FE02460B462046294677
:1021C000FEF76CF9CAE9020150460EB0BDE8F047CF
:1021D00002B07047AFF300804AD8124DFB2109408E
:1021E000000000000032E740000000000064D5401D
:1021F0008195438B6C6731400000000000C0414076
:102200000020E7400000D940008072400040584064
:102210000000344084B070B582B006AC84E80F0092
:102220000AAB93E803008DE8030094E80F00FFF782
:10223000BBFD012806D00024204602B0BDE8704056
:1022400004B07047044600220023DDE90601FDF7D3
:102250006FFF0022274BFDF76BFF0022264BFEF796
:1022600047FA0022254BFEF719F90022244BFDF70F
:102270005FFF244B1D68FEF7E9FB6863142001F043
:1022800085F800221B4BDDE90801FDF751FF002214
:10229000184BFDF74BFF0022174BFEF729FA0022DF
:1022A000164BFEF7FBF80022154BFDF741FF164DCC
:1022B0002E68FEF7CBFBB063142001F067F8002214
:1022C0000023DDE90A01FDF733FF00220A4BFEF788
:1022D0000FFA0022094BFEF7E1F80022084BFDF748
:1022E00027FF2D68FEF7B2FB2864142001F04EF89A
:1022F000A2E700BF008056400080664000409F403B
:1023000000407F4090090020D809002084B02DE9CA
:10231000F04182B008AC84E80F0012AB93E80300F0
:102320008DE803000EAB0FCBFFF73EFD012806D072
:102330000024204602B0BDE8F04104B070470446D6
:10234000DDE90E670022002330463946FDF7F0FE36
:1023500000224B4BFDF7ECFE00224A4BFEF7C8F97A
:102360000022494BFEF79AF80022484BFDF7E0FEA9
:10237000474B1D68FEF76AFB6863DDE908233046BA
:102380003946FDF7D3FEFEF739FB0028B8BF4042BF
:10239000FEF71AF800223F4BFEF780F800223E4B72
:1023A000FEF7A6F9FEF752FB00F0F0FFDDE910673B
:1023B0000022334B30463946FDF7BAFE0022304B3F
:1023C000FDF7B4FE00222F4BFEF792F900222E4BB0
:1023D000FEF764F800222D4BFDF7AAFE2F4DD5F82D
:1023E0000080FEF733FBC8F83800DDE90A233046E9
:1023F0003946FDF79BFEFEF701FB0028B8BF4042BF
:10240000FDF7E2FF0022234BFEF748F80022224BA3
:10241000FEF76EF9FEF71AFB00F0B8FFDDE9126770
:102420000022002330463946FDF782FE0022154B7C
:10243000FEF75EF90022144BFEF730F80022134B32
:10244000FDF776FE2D68FEF701FB2864DDE90C231D
:1024500030463946FDF76AFEFEF7D0FA0028B8BFCD
:102460004042FDF7B1FF00220A4BFEF717F80022A9
:10247000094BFEF73DF9FEF7E9FA00F087FF58E750
:10248000008056400080664000409F4000407F40F2
:102490009009002000004E4000002E40D809002086
:1024A00084B02DE9F04FA7B030AC84E80F003AAB10
:1024B00093E803008DE8030036AB0FCBFFF7CAFDAE
:1024C00020B927B0BDE8F04F04B07047DDE93034E3
:1024D000184621461A462346CDE90401FDF7DEFFE2
:1024E00004460D46DDE932AB52465B46504659463E
:1024F000FDF7D4FF02460B4620462946FDF718FE9D
:1025000003F0B0FAC8A3D3E90023FDF70FFE0022C1
:10251000CB4BFEF7EDF802460B46DDE93401FDF743
:1025200007FE03460C46CDE90634CDE93434DDE937
:10253000368942464B4640464946FDF7AFFF0446C2
:102540000D46DDE9386732463B4630463946FDF7F1
:10255000A5FF02460B4620462946FDF7E9FD03F09C
:1025600081FAB1A3D3E90023FDF7E0FD0022B44BCB
:10257000FEF7BEF802460B46DDE93A01FDF7D8FD4D
:1025800004460D46CDE93A45DDE904234046494677
:10259000FDF7CCFDCDE9080152465B463046394691
:1025A000FDF7C4FD80468946CDE90A89DDE90623A9
:1025B00020462946FDF7BAFD06460F46CDE90C67D1
:1025C000DDE9080102460B46FDF768FF04460D46AB
:1025D00042464B4640464946FDF760FF02460B46E1
:1025E00020462946FDF7A4FD04460D4632463B46EB
:1025F00030463946FDF752FF02460B462046294633
:10260000FDF796FD03F02EFADDE93C23FEF770F8A6
:1026100004460D4600228B4BFDF740FF00228A4BFB
:10262000FEF766F8FEF7EAF90746B0F5967F04DD97
:102630004FF496777EA5D5E900450022834B2046CE
:10264000294603F0A1F902460B4600207C49FEF71B
:102650004FF8CDE90E0100227D4B2046294603F0BC
:1026600093F902460B4600207A49FEF741F8CDE97E
:1026700010010022784B2046294603F085F90246D6
:102680000B4600207549FEF733F8CDE9120100260C
:10269000B74240F30D813046FDF796FE00226A4BAB
:1026A000FDF7FCFE0022674BFEF722F804460D46BC
:1026B00000220023FDF7F2FE00220023FDF738FD83
:1026C0008046894600224FF080432046294603F089
:1026D0005BF900220023FDF7E1FE02460B4640466F
:1026E0004946FDF725FD804689460022574B204686
:1026F000294603F049F9DDE90E23FDF7CFFE024636
:102700000B4640464946FDF713FD804689460022A8
:102710004F4B2046294603F037F9DDE91023FDF73A
:10272000BDFE02460B4640464946FDF701FD804688
:1027300089460022484B2046294603F025F9DDE969
:102740001223FDF7ABFE02460B4640464946FDF715
:10275000EFFC04460D4602460B46DDE90801FDF795
:102760009DFE02460B46DDE90401FDF7E1FCCDE9E3
:10277000140122462B46DDE90A01FDF78FFE0246D1
:102780000B4650465946FDF7D3FCCDE916012246CB
:102790002B46DDE90C01FDF781FE02460B46DDE923
:1027A0000601FDF7C5FCCDE918011AAC16AB0FCB3D
:1027B0008DE80F0014AB0CCB2046FFF765FB1EAB7A
:1027C00093E803008DE8030094E80F00FFF7ECFAAC
:1027D00001286BD10022224BDDE91A01FDF7A8FC8C
:1027E00000220023FDF7A4FC13A3D3E90023FDF787
:1027F00055FE00221B4BFDF79BFC1B4D06EB4604D0
:102800004FEA440805EB4404FEF720F925F80800D8
:102810000022134BDDE91C01FDF78AFC0022104B5E
:10282000FDF784FC22E000BF0000000000A06A4029
:10283000000000000094D140D42B6519E2382640F6
:102840000000244000408F4000004E40000008403F
:102850000000104000002EC000001440000018408E
:102860000080564000407F40680200203CA3D3E92E
:102870000023FDF713FE00223B4BFDF759FCFEF74A
:10288000E5F8608000220023DDE91E01FDF750FC21
:1028900033A3D3E90023FDF701FE0022324BFDF7FD
:1028A00047FCFEF7D3F8A0800136F1E6002008E6E9
:1028B00038AB0FCB8DE80F0036AB0CCB20A8FFF761
:1028C000E3FA0022294BDDE92001FDF731FC00226B
:1028D0000023FDF72DFC22A3D3E90023FDF7DEFD45
:1028E0000022214BFDF724FC214D07EB4704660035
:1028F00005EB4404FEF7AAF8A85300221B4BDDE9C0
:102900002201FDF715FC0022184BFDF70FFC14A364
:10291000D3E90023FDF7C2FD0022134BFDF708FCAD
:10292000FEF794F8608000220023DDE92401FDF722
:10293000FFFB0BA3D3E90023FDF7B0FD00220A4BF8
:10294000FDF7F6FBFEF782F8A0800A4B00221A6022
:102950000137094B1F600120B3E500BFAFF30080D2
:10296000D42B6519E238264000407F400080564055
:1029700068020020640200206002002084B0F0B5EC
:102980008BB010AC84E80F00DDE91C23CDE90823EF
:102990000DF1080C0DF1580EBEE80F00ACE80F0069
:1029A0009EE803008CE8030014AB93E803008DE875
:1029B000030094E80F00FFF773FD012806D00025FF
:1029C00028460BB0BDE8F04004B070470546114BF7
:1029D0001C681AE0104B1968104B04EB440203EB1F
:1029E000420633F812304B63142000F0CFFC0C4F3A
:1029F0003B6872889A63142000F0C8FC3B68B28878
:102A00001A64142000F0C2FC0134064B1B68A34278
:102A1000E0DCD5E764020020900900206802002075
:102A2000D80900206002002084B02DE9F04F9DB04D
:102A300026AC84E80F0000220F4BDDE93E01FDF7D4
:102A400057FEFDF7DBFF0790B0F5967F02DD4FF4F0
:102A5000967307930798FDF7B7FC02460B460020D4
:102A60000649FDF745FECDE90801002306934FF026
:102A700000084FF0000953E000004E400000F03F16
:102A80000022D54BDDE91001FDF752FB00220023A7
:102A9000FDF74EFBCEA3D3E90023FDF7FFFC002298
:102AA000CE4BFDF745FBCE4D069F07EB4704660076
:102AB00005EB4404FDF7CAFFA8530022C64BDDE92D
:102AC0001201FDF735FB0022C34BFDF72FFBC0A31E
:102AD000D3E90023FDF7E2FC0022C04BFDF728FB01
:102AE000FDF7B4FF608000220023DDE91401FDF74B
:102AF0001FFBB7A3D3E90023FDF7D0FC0022B74B9F
:102B0000FDF716FBFDF7A2FFA080DDE90823404694
:102B10004946FDF70DFB804689463B460133069347
:102B2000079B069A934240F37181DDE926454246B0
:102B30004B460020AB49FDF7F9FA02460B46CDE9BA
:102B400004234FF0000ADFF8A0B252465B4602F0C1
:102B50001BFF02460B4620462946FDF79FFC044614
:102B60000D4652465B46DDE92C01FDF797FC4246D7
:102B70004B46FDF793FC06460F4600224FF080437C
:102B8000DDE9040102F000FF02460B4630463946FB
:102B9000FDF784FC02460B4620462946FDF7C8FA9D
:102BA00006460F4652465B46DDE93201FDF776FCEC
:102BB00004460D4600224FF080434046494602F04D
:102BC000E3FE02460B4620462946FDF767FC024617
:102BD0000B46DDE90401FDF761FC02460B46304679
:102BE0003946FDF7A5FA04460D46DDE93867524639
:102BF0005B464046494602F0C7FE02460B46304659
:102C00003946FDF74BFC02460B4620462946FDF7A8
:102C10008FFACDE90A01DDE9284552465B46DDE938
:102C2000040102F0B1FE02460B4620462946FDF79C
:102C300035FC06460F4652465B46DDE92E01FDF7A0
:102C40002DFC42464B46FDF729FC04460D4600226A
:102C50004FF08043DDE9040102F096FE02460B4688
:102C600020462946FDF71AFC02460B4630463946F7
:102C7000FDF75EFA06460F4652465B46DDE9340133
:102C8000FDF70CFC04460D4600224FF08043404601
:102C9000494602F079FE02460B4620462946FDF7DA
:102CA000FDFB02460B46DDE90401FDF7F7FB02469A
:102CB0000B4630463946FDF73BFA04460D46DDE942
:102CC0003A6752465B464046494602F05DFE024680
:102CD0000B4630463946FDF7E1FB02460B462046DF
:102CE0002946FDF725FACDE90C01DDE92A455246D2
:102CF0005B46DDE9040102F047FE02460B46204632
:102D00002946FDF7CBFB06460F4652465B46DDE9FA
:102D10003001FDF7C3FB42464B46FDF7BFFB0446BF
:102D20000D4600224FF08043DDE9040102F02CFE45
:102D300002460B4620462946FDF7B0FB02460B46ED
:102D400030463946FDF7F4F904460D4652465B46D7
:102D5000DDE93601FDF7A2FB06460F4600224FF0E3
:102D600080434046494602F00FFE02460B4630467D
:102D70003946FDF793FB02460B46DDE90401FDF7FA
:102D80008DFB02460B4620462946FDF7D1F9044645
:102D90000D46DDE93C6752465B464046494602F037
:102DA000F3FD02460B4630463946FDF777FB0246F7
:102DB0000B4620462946FDF7BBF9CDE90E0110ACC4
:102DC0000CAB0FCB8DE80F000AAB0CCB20460DE00F
:102DD000D42B6519E23826400080564000407F40E1
:102DE000680200200000F03F00000840FFF74CF8A8
:102DF00014AB93E803008DE8030094E80F00FEF79E
:102E0000D3FF01283FF43CAE002055E03AAB0FCB96
:102E10008DE80F0038AB0CCB16A8FFF735F8002271
:102E20002B4BDDE91601FDF783F900220023FDF7A6
:102E30007FF925A3D3E90023FDF730FB0022254BC2
:102E4000FDF776F9244D079F07EB4704660005EB75
:102E50004404FDF7FBFDA85300221D4BDDE91801DA
:102E6000FDF766F900221A4BFDF760F916A3D3E9C6
:102E70000023FDF713FB0022164BFDF759F9FDF770
:102E8000E5FD608000220023DDE91A01FDF750F91D
:102E90000DA3D3E90023FDF701FB00220D4BFDF745
:102EA00047F9FDF7D3FDA0800C4B00221A603B468A
:102EB00001330B4A136001201DB0BDE8F04F04B090
:102EC000704700BFAFF30080D42B6519E23826406D
:102ED0000080564000407F406802002064020020CD
:102EE0006002002084B0F0B597B01CAC84E80F00FD
:102EF000DDE93423CDE914230DF1380C0DF1880EF2
:102F0000BEE80F00ACE80F009EE803008CE8030069
:102F10000DF1200C0DF1B80EBEE80F00ACE80F006B
:102F20009EE803008CE803000DF1080C0DF1A00EE3
:102F3000BEE80F00ACE80F009EE803008CE8030039
:102F400020AB93E803008DE8030094E80F00FFF73F
:102F50006BFD012806D00025284617B0BDE8F040DB
:102F600004B070470546114B1C681AE0104B1968F5
:102F7000104B04EB440203EB420633F812304B6370
:102F8000142000F003FA0C4F3B6872889A631420F7
:102F900000F0FCF93B68B2881A64142000F0F6F9DE
:102FA0000134064B1B68A342E0DCD5E76402002035
:102FB0009009002068020020D8090020600200204B
:102FC00082B00A4B9A6942F001029A619A6902F052
:102FD00001020092009ADA6942F08052DA61DB69FC
:102FE00003F080530193019B02B070470010024030
:102FF000FEE7FEE7FEE7FEE7FEE770477047704733
:1030000008B500F0B1F908BD08B5024801F0AAFB07
:1030100008BD00BF200A00207047000082B003688E
:103020000E4A934204D00E4A93420CD002B070472D
:103030000C4B9A6942F400629A619B6903F4006345
:103040000093009BF2E7074BDA6942F00402DA6171
:10305000DB6903F004030193019BE7E7002C0140C7
:10306000000800400010024000B587B00023029322
:103070000393049305930368184A934205D0184AB2
:10308000934217D007B05DF804FB164B9A6942F0E3
:1030900004029A619B6903F004030093009B4FF4C0
:1030A0002063029302230393059302A90E4800F0C4
:1030B00067FAE7E70B4B9A6942F008029A619B694D
:1030C00003F008030193019B40230293022303931F
:1030D000059302A9054800F053FAD3E7002C0140FC
:1030E000000800400010024000080140000C0140B0
:1030F00010B592B000241094119409940A940B9482
:103100000C940D940E940F942022214601A801F0F6
:103110007FFE2848284B036047234360846044F6C1
:103120001F63C36004614461846100F025FF0028CF
:1031300031D100231093119310A91E4801F05CF8BF
:1031400000282BD16023099300230A930B930C933F
:103150000D930E930F93042209A9164800F066FF01
:10316000F8B90C2209A9134800F060FFE0B9002368
:10317000019302930393049305934FF40052069234
:10318000089301A90B4801F06DF880B90948FFF7D1
:103190006BFF12B010BDFEF799FBCAE7FEF796FB76
:1031A000D0E7FEF793FBDCE7FEF790FBDFE7FEF7E7
:1031B0008DFBEBE7D8090020002C014000B58BB057
:1031C00000230893099301930293039304930593B7
:1031D000069307931748184A0260472242608360AB
:1031E00044F61F62C2600361836100F0C5FEC0B98E
:1031F00000230893099308A90E4800F0FDFF98B931
:1032000060230193002202920392059201A90948CA
:1032100000F00CFF58B90748FFF726FF0BB05DF828
:1032200004FBFEF753FBE3E7FEF750FBE8E7FEF78E
:103230004DFBF0E7900900200008004008B50A485F
:103240000A4B03604FF4E133436000238360C360A3
:1032500003610C2242618361C36101F0F3F800B99C
:1032600008BDFEF733FBFBE7200A002000440040C6
:1032700030B587B00023029303930493059302684B
:103280001B4B9A4201D007B030BD03F5E633DA6933
:1032900042F40032DA61DA6902F400320092009AF4
:1032A0009A6942F004029A619B6903F00403019356
:1032B000019B0423029302230393032305930D4DE3
:1032C00002A9284600F05CF9082302930024039425
:1032D00004940DEB0301284600F052F922462146E2
:1032E000262000F0ADF8262000F0BAF8CBE700BFAA
:1032F000004400400008014010B504460E4B1A7807
:103300004FF47A73B3FBF2F30C4A1068B0FBF3F09E
:1033100000F0B4F868B90F2C01D901200AE00022AE
:1033200021464FF0FF3000F08BF8054B1C60002069
:1033300000E0012010BD00BF0400002000000020BC
:103340000800002008B5074A136843F01003136013
:10335000032000F063F80F20FFF7CEFFFFF730FEE9
:10336000002008BD00200240034A1168034B1B786F
:103370000B441360704700BF640A00200400002063
:10338000014B1868704700BF640A002038B5044636
:10339000FFF7F6FF0546B4F1FF3F02D0044B1B7860
:1033A0001C44FFF7EDFF401BA042FAD338BD00BF1D
:1033B00004000020002808DB0901C9B200F16040C8
:1033C00000F5614080F80013704700F00F0009011C
:1033D000C9B2014B1954704714ED00E000B500F07C
:1033E0000700C0F1070CBCF1040F28BF4FF0040C1C
:1033F000031D062B0FD9C31E4FF0FF3E0EFA0CF033
:1034000021EA000199400EFA03FE22EA0E0241EA87
:1034100002005DF804FB0023EEE70000074AD368D2
:1034200023F4E0631B041B0C000200F4E060034380
:1034300043F0BF6343F40033D360704700ED00E016
:1034400010B50446054BD868C0F30220FFF7C6FF4D
:1034500001462046FFF7AEFF10BD00BF00ED00E0C3
:10346000002807DB00F01F02400901239340024AB5
:1034700042F82030704700BF00E100E00138B0F1B1
:10348000807F0BD24FF0E0235861054AF02182F88B
:1034900023100020986107221A61704701207047AD
:1034A00000ED00E0034690F82120022A06D0042215
:1034B0008263002280F820200120704701680A689A
:1034C00022F00E020A6001680A6822F001020A6016
:1034D000026CC06B012101FA02F2426083F82110F4
:1034E000002083F82000704708B590F82130022BA7
:1034F00003D004238363012008BD0268136823F00E
:103500000E0313600268136823F00103136003685D
:10351000194A934214D0143293421FD0143293426A
:103520001ED0143293421ED0143293421ED0143255
:10353000934202D04FF0807203E04FF4801200E01B
:1035400001220E4B5A60012380F82130002380F8BD
:103550002030436B6BB198470020CDE71022F0E795
:103560004FF48072EDE74FF48052EAE74FF4803277
:10357000E7E70020C0E700BF08000240000002406B
:1035800070B582B00024A446A2E07E4DAB4210D0BC
:1035900007D97D4DAB420CD005F58035AB4208D044
:1035A00013E0A5F58015AB4203D005F57025AB42BD
:1035B00007D18B68002B55D0012B4ED042610824D7
:1035C00003E0A5F58015AB42F3D0BEF1FF0F4BD859
:1035D00006464FEA8C0233680F25954023EA05031F
:1035E00004FA02F2134333604B6813F0805F6DD02E
:1035F000664B9A6942F001029A619B6903F00103EC
:103600000193019B4FEA9C02951C614B53F8256086
:103610000CF00305AD000F23AB4026EA03065D4B1B
:10362000984228D003F58063984200F08D8003F51E
:103630008063984200F08A8003F58063984218D036
:10364000042319E0CC68C0E7CC680434BDE7CC683B
:103650000834BAE7CC680C34B7E702610824B4E751
:103660000024B2E70424B0E7061DACF10802920082
:10367000B1E7032300E00023AB4033430232444D63
:1036800045F822304B6813F4803F61D0424A1368FA
:1036900043EA0E0313604B6813F4003F5ED03E4ACA
:1036A000536843EA0E0353604B6813F4801F5BD0EA
:1036B000394A936843EA0E0393604B6813F4001F82
:1036C00058D0354AD36843EA0E03D3600CF1010C9D
:1036D0000B6833FA0CF253D0012202FA0CF203EA1F
:1036E000020E32EA0303F1D14B68122B3FF64DAFC5
:1036F000122B3FF66AAF01A555F823F0B335000849
:10370000453600084F36000861360008CB35000802
:10371000CB350008CB350008CB350008CB35000889
:10372000CB350008CB350008CB350008CB35000879
:10373000CB350008CB350008CB350008CB35000869
:103740004936000855360008012395E7022393E720
:10375000114A136823EA0E0313609CE70E4A53686C
:1037600023EA0E0353609FE70B4A936823EA0E0394
:103770009360A2E7084AD36823EA0E03D360A5E763
:1037800002B070BD00002210000031100010024095
:103790000000014000080140000401400AB101613D
:1037A000704709040161704782B0084B1B68084AE2
:1037B000A2FB03235B0A00FB03F3019300BF019B01
:1037C0005A1E0192002BF9D102B070470000002070
:1037D000D34D6210002800F0F18170B582B004462C
:1037E000036813F0010F2CD0994B5B6803F00C03B6
:1037F000042B1DD0964B5B6803F00C03082B12D0F2
:103800006368B3F5803F41D0002B55D103F180436D
:1038100003F504331A6822F480321A601A6822F41D
:1038200080221A6037E08A4B5B6813F4803FE7D050
:10383000874B1B6813F4003F03D06368002B00F034
:10384000BF81236813F0020F75D0814B5B6813F0C2
:103850000C0F5FD07E4B5B6803F00C03082B54D039
:103860002369002B00F08A807A4B01221A60FFF74F
:1038700087FD0546764B1B6813F0020F75D1FFF7E5
:103880007FFD401B0228F5D903209EE1704A136892
:1038900043F480331360636843B3FFF771FD05465B
:1038A0006B4B1B6813F4003FCBD1FFF769FD401B46
:1038B0006428F5D9032088E1B3F5A02F09D0644B23
:1038C0001A6822F480321A601A6822F480221A6080
:1038D000E1E703F18043A3F53C331A6842F4802208
:1038E0001A601A6842F480321A60D4E7FFF748FD84
:1038F0000546574B1B6813F4003FA2D0FFF740FD6D
:10390000401B6428F5D903205FE1514B5B6813F439
:10391000803FA5D14E4B1B6813F0020F03D02369E3
:10392000012B40F04F814A4A136823F0F803616984
:1039300043EAC1031360236813F0080F33D0A3696F
:10394000002B5CD0434B0122C3F88024FFF718FD05
:1039500005463F4B5B6A13F0020F21D1FFF710FDC4
:10396000401B0228F5D903202FE1394A136823F0C0
:10397000F803616943EAC1031360DCE7354B0022B9
:103980001A60FFF7FDFC0546314B1B6813F0020F70
:10399000D1D0FFF7F5FC401B0228F5D9032014E134
:1039A0000120FFF701FF236813F0040F00F0968059
:1039B000274BDB6913F0805F34D1254BDA6942F085
:1039C0008052DA61DB6903F080530193019B01258A
:1039D000214B1B6813F4807F26D0E368012B3DD078
:1039E000002B53D103F1804303F504331A6A22F00C
:1039F00001021A621A6A22F004021A6233E0154BBD
:103A00000022C3F88024FFF7BBFC0546104B5B6A1D
:103A100013F0020FC7D0FFF7B3FC401B0228F5D903
:103A20000320D2E00025D3E70B4A136843F48073E8
:103A30001360FFF7A5FC0646074B1B6813F4807F55
:103A4000CBD1FFF79DFC801B6428F5D90320BCE097
:103A50000010024000004242007000405F4A136ABA
:103A600043F001031362E36833B3FFF789FC0646B2
:103A70005A4B1B6A13F0020F2FD1FFF781FC801BFA
:103A800041F288339842F3D903209EE0052B09D0F8
:103A9000524B1A6A22F001021A621A6A22F00402D8
:103AA0001A62E0E74D4B1A6A42F004021A621A6A7F
:103AB00042F001021A62D6E7FFF762FC0646474B66
:103AC0001B6A13F0020F08D0FFF75AFC801B41F26B
:103AD00088339842F3D9032077E0E5B9E369002BF6
:103AE00072D03E4A526802F00C02082A56D0022BCD
:103AF00017D03B4B00221A66FFF742FC0446374BB7
:103B00001B6813F0007F47D0FFF73AFC001B022828
:103B1000F5D9032059E0314AD36923F08053D361AA
:103B2000DCE72F4B00221A66FFF72AFC05462B4BD9
:103B30001B6813F0007F06D0FFF722FC401B022811
:103B4000F5D9032041E0236AB3F5803F1AD0234919
:103B50004B6823F47413226A606A024313434B6078
:103B60001F4B01221A66FFF70BFC04461B4B1B6818
:103B700013F0007F0ED1FFF703FC001B0228F5D9DC
:103B8000032022E0154A536823F40033A1680B4355
:103B90005360DCE7002018E0002016E0012B16D06F
:103BA0000E4B5B6803F48031226A914211D103F419
:103BB0007013626A93420ED1002006E00120704724
:103BC000012002E0012000E0002002B070BD0120D1
:103BD000FBE70120F9E70120F7E700BF00100240F2
:103BE0000000424286B0174B0FCB0DF1180C0CE9C8
:103BF0000F0040F20123ADF80430134B5B6803F073
:103C00000C02082A02D0114806B07047C3F3834261
:103C100018326A4412F8100C13F4803F0DD00A4B8E
:103C20005B68C3F3404318336B4413F8143C074AF2
:103C300002FB00F0B0FBF3F0E6E7054B03FB00F0FE
:103C4000E2E700BF389400080010024000127A003A
:103C500000093D00002800F0A08070B50D46044624
:103C6000524B1B6803F007038B420BD24F4A136879
:103C700023F007030B431360136803F007038B4221
:103C800040F08D80236813F0020F17D013F0040F5B
:103C900004D0474A536843F4E0635360236813F049
:103CA000080F04D0424A536843F460535360404ABB
:103CB000536823F0F003A1680B435360236813F0AB
:103CC000010F31D06368012B20D0022B25D0384A58
:103CD000126812F0020F64D035494A6822F00302DC
:103CE00013434B60FFF74CFB0646314B5B6803F018
:103CF0000C036268B3EB820F16D0FFF741FB801B09
:103D000041F288339842F0D9032045E0284A1268EE
:103D100012F4003FE0D101203EE0254A126812F083
:103D2000007FD9D1012037E0204B1B6803F0070347
:103D3000AB420AD91D4A136823F007032B431360D3
:103D4000136803F00703AB422DD1236813F0040F6F
:103D500006D0174A536823F4E063E1680B435360CD
:103D6000236813F0080F07D0114A536823F46053F7
:103D7000216943EAC1035360FFF734FF0C4B5B68D2
:103D8000C3F303130B4AD35CD8400B4B18600B4BA7
:103D90001868FFF7B1FA002070BD012070470120BC
:103DA000FAE70120F8E70120F6E700BF0020024013
:103DB00000100240289400080000002008000020A5
:103DC000014B1868704700BF0000002008B5FFF7DE
:103DD000F7FF044B5B68C3F30223034AD35CD8406C
:103DE00008BD00BF001002402094000808B5FFF78E
:103DF000E7FF044B5B68C3F3C223034AD35CD8409C
:103E000008BD00BF001002402094000830B4036ACF
:103E100023F001030362026A4568836923F0730398
:103E20000C681C4322F002028B6813430B4A904239
:103E300006D0456084614A684263036230BC7047C3
:103E400023F00803CA681A4322F0040325F44075DE
:103E50004A692A438D691543EBE700BF002C0140F6
:103E600030B4036A23F480730362036A4468C2694E
:103E700022F073020D68154323F400738A6843EA45
:103E800002230D4A904206D04460C5614A68C2636D
:103E9000036230BC704723F40063CA6843EA02231C
:103EA00023F4806324F440544A6944EA02148A6982
:103EB00044EA0214E8E700BF002C014030B4036A72
:103EC00023F480530362036A4468C26922F4E64221
:103ED0000D6842EA052223F400538D6843EA053356
:103EE000074DA84206D04460C2614A68026403627A
:103EF00030BC704724F480444D6944EA8514F2E7ED
:103F0000002C014003681B4A90420AD0B0F1804F58
:103F100007D0A2F59432904203D002F5806290421D
:103F200003D123F070034A681343124A90420AD027
:103F3000B0F1804F07D0A2F59432904203D002F541
:103F40008062904203D123F44073CA68134323F084
:103F500080034A69134303608B68C3620B68836202
:103F6000044B984202D00123436170470B690363FD
:103F7000F9E700BF002C014040B310B5044690F8AB
:103F80003D30F3B1022384F83D30214651F8040B53
:103F9000FFF7B8FF012384F8463084F83E3084F8F8
:103FA0003F3084F8403084F8413084F8423084F85F
:103FB000433084F8443084F8453084F83D300020A4
:103FC00010BD80F83C30FFF729F8DBE7012070478F
:103FD00030B4036A23F010030362036A4468826901
:103FE00022F4E6420D6842EA052223F020038D68A0
:103FF00043EA05130C4DA84206D0446082614A682A
:104000008263036230BC704723F08003CD6843EACB
:10401000051323F0400324F440644D6944EA850409
:104020008D6944EA8504E8E7002C014038B590F832
:104030003C30012B60D004460D46012380F83C3013
:104040000C2A1AD8DFE802F0071919191D191919D5
:104050003119191944000068FFF7D8FE22689369E6
:1040600043F0080393612268936923F0040393618A
:104070002268936929690B439361002084F83C000E
:1040800038BD0068FFF7A4FF2268936943F400631A
:1040900093612268936923F4806393612268936932
:1040A000296943EA01239361E7E70068FFF7D8FE37
:1040B0002268D36943F00803D3612268D36923F0EF
:1040C0000403D3612268D36929690B43D361D4E720
:1040D0000068FFF7F3FE2268D36943F40063D361FD
:1040E0002268D36923F48063D3612268D369296984
:1040F00043EA0123D361C0E70220C1E701F01F01B9
:104100004FF0010C0CFA01FC036A23EA0C03036272
:10411000036A8A40134303627047000010B50446E7
:10412000084651BB94F83E30DBB2013B18BF012377
:10413000002B5BD1002839D1022384F83E300122C4
:1041400001462068FFF7DAFF23682A4A93423DD0F0
:104150002368284A93423ED0B3F1804F3BD0A2F56A
:104160009432934237D002F58062934233D01A687A
:1041700042F001021A60002039E0042908D0082921
:104180000DD094F84130DBB2013B18BF0123CFE7DB
:1041900094F83F30DBB2013B18BF0123C8E794F825
:1041A0004030DBB2013B18BF0123C1E7042805D032
:1041B000082807D0022384F84130C0E7022384F89E
:1041C0003F30BCE7022384F84030B8E75A6C42F431
:1041D00000425A64BCE79A6802F00702062A07D038
:1041E0001A6842F001021A60002000E0012010BDB0
:1041F0000020FCE7002C014090F83C20012A2CD044
:1042000010B40346012280F83C20022280F83D20B1
:1042100002685068946820F0700C086840EA0C004E
:1042200050601A680E4882420AD0B2F1804F07D01F
:10423000A0F59430824203D000F58060824204D120
:1042400024F08004496821439160012283F83D20D5
:10425000002083F83C0010BC70470220704700BF6C
:10426000002C0140024690F83C30012B21D0012364
:1042700080F83C30CB6823F440738868034323F410
:1042800080634868034323F400630868034323F40E
:1042900080530869034323F400534869034323F41C
:1042A0008043C9690B4311684B64002082F83C00CD
:1042B0007047022070470268D36823F49073D3607C
:1042C0000268536923F001035361036B012B05D08E
:1042D000202380F83E300023036370470268D368D0
:1042E00023F01003D360F3E790F83D30DBB2212BCD
:1042F00001D0022070478368B3F5805F17D0036A4E
:104300005A1C02621A7803685A60C38C9BB2013B44
:104310009BB2C3844BB90268D36823F08003D36097
:104320000268D36843F04003D360002070470369FC
:10433000002BE4D1036A1B880268C3F308035360AF
:10434000036A02330362E0E710B5044602681369AA
:1043500023F44053C1680B4313618368026913431C
:1043600042691A430168CB6823F4B05323F00C036D
:104370001343CB600268536923F4407381690B4394
:1043800053610268134B9A4220D0FFF71FFD02468B
:1043900002EB820202EB820263689B00B2FBF3F243
:1043A0000D48A0FB02314909642303FB11231B01C3
:1043B0003233A0FB03035B0903F0F00202EB0112AE
:1043C00003F00F03216813448B6010BDFFF70EFD4F
:1043D0000246DDE7003801401F85EB512DE9F84327
:1043E00005460F4616469946DDF820802B681C6866
:1043F00037EA04040CBF01240024B4421FD1B8F1F1
:10440000FF3FF3D0B8F1000F05D0FEF7B9FFA0EBE6
:1044100009004045EAD92A68D36823F4D073D360F1
:104420002A68536923F001035361202385F83D3046
:1044300085F83E30002385F83C30032000E0002062
:10444000BDE8F88358B310B5044690F83D300BB37F
:10445000242384F83D302268D36823F40053D360CA
:104460002046FFF771FF2268136923F4904313611C
:104470002268536923F02A0353612268D36843F406
:104480000053D36000202064202384F83D3084F85A
:104490003E3010BD80F83C30FEF7EAFED8E7012040
:1044A00070472DE9F04182B01E4690F83D30DBB2F6
:1044B000202B54D104460D469046002953D0002AA3
:1044C00053D090F83C30012B51D0012380F83C3080
:1044D00000230364212380F83D30FEF751FF074697
:1044E000A4F82480A4F82680A368B3F5805F05D0E3
:1044F0004FF00008002384F83C3012E0236913B128
:104500004FF00008F6E7A8460025F3E738F8023B2D
:104510002268C3F308035360E28C92B2013A92B26C
:10452000E284E38C9BB273B100963B46002280216B
:104530002046FFF753FFE0B9002DE7D015F8012B17
:1045400023685A60E8E700963B4600224021204657
:10455000FFF744FF78B9202384F83D3000E00220C3
:1045600002B0BDE8F0810120FAE70120F8E702205F
:10457000F6E70320F4E70320F2E72DE9F04182B0EB
:104580001E4690F83E30DBB2202B5CD104460D462F
:10459000904600295BD0002A5BD090F83C30012B7C
:1045A00059D0012380F83C3000230364222280F894
:1045B0003E200363FEF7E4FE0746A4F82C80A4F82F
:1045C0002E80A368B3F5805F05D04FF0000800236C
:1045D00084F83C3017E0236913B14FF00008F6E788
:1045E000A8460025F3E723685B68C3F3080328F8AF
:1045F000023B03E023685B682B700135E28D92B2C9
:10460000013A92B2E285E38D9BB2BBB100963B4684
:10461000002220212046FFF7E1FEF0B9002DE2D074
:10462000A368B3F5805FE5D013B92369002BE1D00F
:1046300023685B6803F07F032B70DEE7202384F898
:104640003E30002000E0022002B0BDE8F0810120F1
:10465000FAE70120F8E70220F6E70320F4E77047C5
:1046600008B50168CA6822F04002CA60202280F8BA
:104670003D20FFF7F4FF002008BD704708B5406AF1
:104680000023C385C384FFF7F8FF08BD704790F887
:104690003E30DBB2222B60D18368B3F5805F46D019
:1046A000826AB3F5805F04D0002B4DD10369002BE3
:1046B0004AD103685B681370836A01338362C38DD8
:1046C0009BB2013B9BB2C385002B48D100B583B0A0
:1046D0000268D36823F02003D3600268D36823F410
:1046E0008073D3600268536923F001035361202370
:1046F00080F83E30036B012B2CD10023036302684A
:10470000D36823F01003D36003681A6812F0100F07
:1047100006D0002201921A6801925B680193019B06
:10472000818DFFF7B3FF002003B05DF804FB026941
:10473000002AB5D1826A03685B68C3F3080313805B
:10474000836A02338362BAE703685B6803F07F031E
:104750001370B1E7FDF786F9E5E702207047002006
:104760007047000010B582B0044602681368D06834
:10477000516913F00F0F09D113F0200F0CD010F076
:10478000200F09D02046FFF782FF16E011F001014B
:1047900015D110F4907F12D1216B012971D013F043
:1047A000800F03D010F0800F40F0D28013F0400F44
:1047B00003D010F0400F40F0CF8002B010BD13F0D6
:1047C000010F06D010F4807F03D0226C42F001026A
:1047D000226413F0040F04D019B1226C42F00202DB
:1047E000226413F0020F04D019B1226C42F00402CB
:1047F000226413F0080F07D010F0200F00D119B178
:10480000226C42F008022264226C002AD5D013F0F8
:10481000200F02D010F0200F21D123685B6903F034
:104820004003226C12F0080F00D123B32046FFF79B
:1048300042FD23685A6912F0400F18D05A6922F0DD
:1048400040025A61A36B73B1454A5A63A06BFEF7ED
:104850004BFE0028B1D0A06B436B9847ADE72046D4
:10486000FFF715FFD9E72046FFF707FFA5E720462A
:10487000FFF703FFA1E72046FFF7FFFE00232364B5
:104880009BE713F0100F8AD010F0100F87D0002391
:1048900001931368019353680193019B536913F0CB
:1048A000400F31D0A16B0B685B689BB2002B84D0AA
:1048B000A08D984281D9E3858B69202B08D1A18DE9
:1048C000E38D9BB2C91A89B22046FFF7DFFE74E779
:1048D000D36823F48073D3602268536923F0010303
:1048E00053612268536923F040035361202384F805
:1048F0003E30002323632268D36823F01003D36083
:10490000A06BFEF7CFFDDAE7A38DE18D89B25B1ACC
:1049100099B2E38D9BB2002B3FF44FAF00293FF4D7
:104920004CAFD36823F49073D3602268536923F0AB
:1049300001035361202384F83E300023236322685F
:10494000D36823F01003D3602046FFF79FFE34E7BF
:104950002046FFF7C9FC30E72046FFF781FE2CE731
:104960007D460008034681628285C2850020186466
:10497000222283F83E2083F83C001968CA6842F47A
:104980008072CA6019684A6942F001024A611A6875
:10499000D36843F02003D360704708B590F83E30E9
:1049A000DBB2202B0DD171B17AB190F83C30012BE4
:1049B0000DD0012380F83C3000230363FFF7D2FFC2
:1049C00000E0022008BD0120FCE70120FAE70220F8
:1049D000F8E700000C480D490D4A002302E0D458C6
:1049E000C4500433C4188C42F9D30A4A0A4C002339
:1049F00001E013600432A242FBD3FEF70DFB00F08E
:104A000055FAFCF797FF704700000020780000205F
:104A10007897000878000020B40B0020FEE7000023
:104A2000002310B50446C0E90033C0E904338360B5
:104A300081814366C2818361194608225C3000F09F
:104A4000E7F9054B24626362044BA362044BE36203
:104A5000044B236310BD00BF614C0008834C000869
:104A6000BB4C0008DF4C0008024A0349034800F031
:104A700069B800BF0C000020A15700081C000020EE
:104A800041680C4B10B59942044601D000F088FEF5
:104A9000A168094B994202D0204600F081FEE168EE
:104AA000064B994204D02046BDE8104000F078BE85
:104AB00010BD00BF680A0020D00A0020380B00207B
:104AC00010B50B4B0B4C0C4A20461A6004210022F7
:104AD000FFF7A6FF04F1680001220921FFF7A0FFFC
:104AE00004F1D0000222BDE810401221FFF798BF68
:104AF000A00B0020680A0020694A0008014800F065
:104B0000F9B900BFA90B0020014800F0F4B900BFBB
:104B1000A90B002010B50446FFF7F0FF236A1BB174
:104B2000BDE81040FFF7F0BF044B2362044B1B6845
:104B3000002BF5D1FFF7C4FFF2E700BF814A000860
:104B4000A00B00202DE9F8430746884614460026AE
:104B5000D4E90195B9F1010905D52468002CF7D1F4
:104B60003046BDE8F883AB89012B07D9B5F90E3083
:104B7000013303D029463846C04706436835E9E784
:104B80000FB407B5064904AB086853F8042B8168D5
:104B9000019300F0CDFA03B05DF804EB04B0704768
:104BA00018000020036A70B505460E4684680BB9EC
:104BB000FFF7B0FF636EDB0705D4A389980502D425
:104BC000A06D00F097F9A389190702D52369002B7E
:104BD00035D12146284600F0C5F880B34FF0FF35A7
:104BE000636EDA0705D4A3899B0502D4A06D00F09B
:104BF00082F9284670BD002B15DB23685A1C226001
:104C00001970A36816F8011F013BA3600029F2D1B7
:104C1000002B16DA22460A21284600F064F80130FB
:104C2000DCD00A25DCE7A2699A4201DC0A29E4D13A
:104C30002246284600F057F80130E2D1CEE7013E87
:104C4000DFE723685A1C22600A221A70E9E7000095
:104C5000024B01461868FFF7A5BF00BF18000020EF
:104C600010B50C46B1F90E1000F0FCF80028ABBFEF
:104C7000636DA3891B1823F48053ACBF6365A381C4
:104C800010BD2DE9F0411F468B890546DB050C461A
:104C9000164605D502230022B1F90E1000F0D0F817
:104CA000A389324623F48053A38128463B46B4F9B6
:104CB0000E10BDE8F04100F0E7B810B50C46B1F9B0
:104CC0000E1000F0BDF8431CA38915BF606523F4E6
:104CD000805343F48053A38118BFA38110BDB1F961
:104CE0000E1000F09DB8F8B50E461446054618B1F2
:104CF000036A0BB9FFF70EFFA369A360A3891A0724
:104D000001D5236943B92146284600F02BF818B194
:104D10004FF0FF373846F8BD23682269F6B2981A7B
:104D200063693746834205DC2146284600F038FD9A
:104D30000028EDD1A368013BA36023685A1C2260C0
:104D40001E706269431C9A4204D0A389DB07E1D537
:104D50000A2EDFD12146284600F022FD0028D9D0B6
:104D6000D6E7000038B5294B054618680C4618B13F
:104D7000036A0BB9FFF7CEFEB4F90C30190722D441
:104D8000DA0607D409222A6043F040034FF0FF30CF
:104D9000A38133E0580712D5616B41B104F144039C
:104DA000994202D0284600F0B5F800236363A38936
:104DB00023F02403A3810023636023692360A38974
:104DC00043F00803A38123694BB9A38903F420733B
:104DD000B3F5007F03D02146284600F02EFDB4F93C
:104DE0000C3013F001020AD00022A2606269524224
:104DF000A261226942B913F08000C5D138BD99077C
:104E000058BF6269A260F4E70020F7E718000020AD
:104E100003460244934200D1704703F8011BF9E7AF
:104E200038B50023054D044608462B60FBF74FFFBD
:104E3000431C02D12B6803B1236038BDA40B0020B2
:104E400038B50446084611460022054D2A601A4628
:104E5000FBF74EFF431C02D12B6803B1236038BD22
:104E6000A40B002038B50446084611460022054D23
:104E70002A601A46FBF740FF431C02D12B6803B19E
:104E8000236038BDA40B002038B5044608461146FF
:104E90000022054D2A601A46FBF71CFF431C02D175
:104EA0002B6803B1236038BDA40B002070B5002629
:104EB0000C4D0D4C641BA410A64209D104F0DCF982
:104EC00000260A4D0A4C641BA410A64205D170BDF1
:104ED00055F8043B98470136EEE755F8043B9847F0
:104EE0000136F2E770970008709700087097000885
:104EF00074970008704770470A44914200F1FF33ED
:104F000000D1704710B511F8014B914203F8014FE1
:104F1000F9D110BD38B50546002940D051F8043C00
:104F20000C1F002BB8BFE41800F0CEF81C4A136821
:104F300033B9636014602846BDE8384000F0CAB851
:104F4000A34208D9206821188B4201BF19685B6809
:104F500009182160EDE71A465B680BB1A342FAD944
:104F600011685018A0420BD12068014450188342A8
:104F70001160E0D118685B68084410605360DAE79C
:104F800002D90C232B60D6E7206821188B4201BF81
:104F900019685B680918216063605460CBE738BD0D
:104FA000B00B002070B50F4E0C463168054611B9A4
:104FB00000F0A2FC30602146284600F09DFC431C16
:104FC00003D14FF0FF34204670BDC41C24F003040D
:104FD000A042F8D0211A284600F08EFC0130F2D110
:104FE000EFE700BFAC0B0020F8B5CD1C25F00305A2
:104FF00008350C2D38BF0C25002D064601DBA942D3
:1050000003D90C2333600020F8BD2E4F00F05CF86C
:105010003B681C4634BB29463046FFF7C3FF431CA0
:1050200004464DD13C682146002940D1002C41D096
:1050300023683046E71800F05FFC87423AD12368C6
:105040000335ED1A25F0030508350C2D38BF0C2566
:1050500030462946FFF7A6FF01302BD023682B44AA
:1050600023600EE02268521B1ED40B2A16D9611948
:10507000A342256018BF5960636808BF3960625158
:105080004B60304600F026F804F10B00231D20F0A1
:105090000700C21A1CBF1B1AA350B5E76268A342DF
:1050A0000CBF3A605A60ECE723466468B2E70C46EE
:1050B0004968B9E70C233046336000F00BF8A2E7EB
:1050C0000560DEE7B00B00200148FFF713BF00BF0B
:1050D000A80B00200148FFF70EBF00BFA80B00205F
:1050E000936810B4013B002B936007DA9469A342E4
:1050F00001DB0A2902D110BCFFF7F5BD1368581C6B
:1051000010601970084610BC7047F8B506460F4687
:105110001446D518AC4201D1002007E03A4630468B
:1051200014F8011BFFF7DCFF431CF3D1F8BD0000AE
:105130002DE9F04F0D461446984606469DB018B12D
:10514000036A0BB9FFF7E6FC6B6ED90705D4AB8990
:105150009A0502D4A86DFFF7CDFEAB891B0701D5D8
:105160002B699BB929463046FFF7FCFD70B16B6E89
:10517000DC0704D54FF0FF301DB0BDE8F08FAB89E0
:105180009805F7D4A86DFFF7B6FEF3E7002309935F
:1051900020238DF8293030234FF00109CDF80C8001
:1051A000DFF8A8818DF82A3023469A4613F8012BA0
:1051B0000AB1252AF9D1BAEB040B0BD05B46224683
:1051C00029463046FFF7A1FF013000F0A780099A79
:1051D0005A4409929AF80030002B00F09F80002377
:1051E0004FF0FF32CDE905230AF1010A049307933A
:1051F0008DF853301A935446052214F8011B534876
:1052000000F08AFB049AD8B9D10644BF20238DF858
:105210005330130744BF2B238DF853309AF80030D6
:105220002A2B15D0544600204FF00A0C079A21462D
:1052300011F8013B303B092B4BD9B0B1079214E078
:10524000A0EB080309FA03F31343A2460493D2E741
:10525000039B191D1B680391002BBBBF5B4242F0EF
:10526000020207930793B8BF049223782E2B0AD12A
:1052700063782A2B32D1039B02341A1D1B680392D8
:1052800043EAE3730593DFF8C8A003225046217870
:1052900000F042FB38B14022049BA0EB0A008240A0
:1052A00013430134049314F8011B062229488DF896
:1052B000281000F031FB00283FD0274B1BBB039B7D
:1052C000073323F0070308330393099B3B440993F7
:1052D0006AE70C4601200CFB0232A8E700234FF0DE
:1052E0000A0C194601340593204610F8012B303A78
:1052F000092A03D9002BC6D00591C4E7044601232F
:105300000CFB0121F0E703AB00932A463046134B18
:1053100004A9AFF300800746781CD6D16B6ED9077D
:1053200005D4AB899A0502D4A86DFFF7E4FDAB89DB
:105330005B063FF51FAF09981EE703AB00932A46B3
:105340003046064B04A900F07DF8E4E749940008D4
:105350004F94000853940008000000000B5100080F
:105360002DE9F047164698468A680B69074693422E
:10537000B8BF1346336091F843200C46DDF8209007
:105380000AB1013333602368990642BF33680233A0
:105390003360256815F0060506D104F1190AE368A3
:1053A00032689B1AAB422BDC94F843302268003BF6
:1053B00018BF0123920630D44146384604F1430217
:1053C000C847013023D02368226903F00603042B69
:1053D00014BF002533684FF0000608BFE56804F1EC
:1053E0001A0408BFED1A54F8123C08BF25EAE57507
:1053F0009342C4BF9B1AED18B5421AD1002008E0B1
:105400000123524641463846C847013003D14FF088
:10541000FF30BDE8F0870135C1E73020E11881F8A1
:1054200043005A1C94F845102244023382F843107A
:10543000C2E70123224641463846C8470130E6D03C
:105440000136D9E72DE9FF470F7E9146782F804638
:105450000C469A460C9D01F1430207D8622F0AD8E8
:10546000002F00F0E080582F00F0BB8004F14206CE
:1054700084F842703AE0A7F16303152BF6D801A136
:1054800051F823F0DD540008F15400086D54000871
:105490006D5400086D5400086D540008F154000864
:1054A0006D5400086D5400086D5400086D540008D8
:1054B0000D56000881550008C35500086D540008BA
:1054C0006D5400082F5600086D54000881550008DF
:1054D0006D5400086D540008CB5500082B6804F18A
:1054E00042061A1D1B682A6084F842300123ABE093
:1054F000236829681F0601F10400286001D50D68A2
:1055000003E05E06FBD5B1F90050002D61687ADA40
:105510002D20002984F84300A1602DDA0A235E487B
:105520006D421646B5FBF3F103FB1157C75D06F854
:10553000017D2F46BB420D46F4D9082B0BD12368C1
:10554000DF0708D5236961689942DEBF302306F87A
:10555000013C06F1FF36921B22614B462146404634
:10556000CDF800A003AAFFF7FBFE013071D14FF088
:10557000FF3004B0BDE8F08723F004032360CDE7DB
:105580002B682068191D2960050601D51D6802E0F9
:105590004106FBD51D886F2F14BF0A2308233E4800
:1055A000002184F843106668002EA660B9DB2168EC
:1055B00021F004012160002DB3D1002EB1D1164697
:1055C000BBE7236843F0200323607827334884F83F
:1055D0004570296823680E1D2E601E0603D50D68D0
:1055E00004E02D48F3E75D06F9D50D88D90744BFDF
:1055F00043F0200323600DB11023D1E7236823F08B
:1056000020032360F8E70A232348CCE72B682668A9
:10561000181D6169286035061B6801D5196002E014
:105620007006FBD5198000231646236195E72B6889
:1056300000211A1D2A601E686268304600F06CF96D
:1056400008B1801B606063682361002384F84330E5
:1056500083E73246494640462369D047013086D029
:1056600023689B0714D4E068039B9842B8BF184690
:105670007FE70123324649464046D04701303FF498
:1056800076AF0135E36803995B1AAB42F1DCEAE7D8
:10569000002504F11906F5E75A9400086B940008F8
:1056A000B1F90C20F8B5170705460C4656D44B68DF
:1056B000002B02DC0B6C002B3DDDE66A002E3AD09D
:1056C000002312F480522F68216A2B6025D0626D6E
:1056D000A389580705D56368D21A636B0BB1236C95
:1056E000D21A216A00232846E66AB047411C24D01A
:1056F0000023636023692360A389DA0400D5606511
:10570000616B2F60B9B104F14403994202D028467D
:10571000FFF700FC002363630DE001232846B04738
:10572000461C0246D4D12B68002BD1D01D2B01D0B2
:10573000162B2AD12F6000202EE02A68B4F90C30F5
:1057400042B11D2A01D0162A21D1002363602369AA
:105750002360D5E7626022692260CEE70F69002FDF
:10576000E9D0930718BF00230E6808BF4B69F61BEA
:105770000F608B60002EDEDD33463A462846216AF4
:10578000D4F828C0E047002807DCB4F90C304FF00B
:10579000FF3043F04003A381F8BD0744361AE9E720
:1057A00038B50B6905460C4613B90025284638BDA7
:1057B00018B1036A0BB9FFF7ADF9B4F90C30002B3F
:1057C000F3D0626ED00704D4990502D4A06DFFF720
:1057D00091FB28462146FFF763FF636E0546DA0713
:1057E000E4D4A3899B05E1D4A06DFFF784FBDDE73A
:1057F00070B50C46B1F90E10154600291E4696B03C
:105800000CDAA389002113F0800F14BF40234FF45A
:105810008063002031602B6016B070BD6A4600F0D6
:1058200049F80028EDDB019901F47041A1F500531E
:10583000594259414FF48063EBE78B89F7B59D07D7
:1058400006460C4607D504F1470323602361012374
:10585000636103B0F0BD6A4601ABFFF7C9FF009F6B
:10586000054639463046FFF7BFFB48B9B4F90C305E
:105870009A05EED423F0030343F00203A381E2E789
:10588000A389C4E9040743F08003A381019B20603E
:105890005BB13046B4F90E1000F01EF828B1A389B0
:1058A00023F0030343F00103A381A3891D43A581D2
:1058B000CFE7000038B50023064D044608461146E0
:1058C0002B60FBF7FFF9431C02D12B6803B1236067
:1058D00038BD00BFA40B002038B50023054D044699
:1058E00008462B60FBF702FA431C02D12B6803B178
:1058F000236038BDA40B002038B50023054D0446B5
:1059000008462B60FBF704FA431C02D12B6803B155
:10591000236038BDA40B0020034610B5C9B2024471
:105920009342184601D1002003E0047801338C42F1
:10593000F6D110BDF8B504460D4600F0B5FD22467F
:1059400006460F462B4620462946FBF741F840B94C
:105950002046294600F080FA0022084BFBF72EF87B
:1059600010B930463946F8BD03F080FC21220346C9
:1059700003481A60BDE8F84000F0C2BA0000F03FEA
:105980004894000800F0E8BF2DE9F84314461D468E
:105990008046894601F0ACF8224606460F462B4663
:1059A00020462946FBF714F878B900220023404628
:1059B0004946FAF7DBFFD8B10022002320462946EA
:1059C000FAF7D4FF28B10026254F30463946BDE806
:1059D000F8832046294600F08DFA0028F5D02046AD
:1059E000294600220023FAF7CBFF0028EDD02CE057
:1059F0003046394600F07EFAA0B10022002330463E
:105A00003946FAF7B3FF0028DFD04046494600F098
:105A100071FA0028D9D02046294600F06BFA0028F8
:105A2000D3D012E04046494600F064FA0028E4D0A2
:105A30002046294600F05EFA0028DED032463B467A
:105A400030463946FAF7C4FF20B903F00FFC222391
:105A50000360BAE703F00AFC21230360B5E700BF47
:105A60000000F03FF8B504460D4600F04FFA22461C
:105A700006460F462B4620462946FAF7A9FF30B9BD
:105A80002046294600220023FAF77AFF10B9304653
:105A90003946F8BD03F0EAFB002200232121016012
:105AA00010461946FAF724FE06460F463046394698
:105AB000F8BD00BF000000002DE9F84FBA4B21F0FF
:105AC00000469E4204460D468A4616D9B74B9E4272
:105AD0000BD808D0BAF1000F40F3C18096A1D1E9EC
