:020000040800F2
:100000000050002049440008492B00084B2B0008F1
:100010004D2B00084F2B0008512B0008000000005A
:10002000000000000000000000000000532B00084A
:10003000552B000800000000572B0008592B000822
:10004000914400089144000891440008914400083C
:10005000914400089144000891440008914400082C
:10006000914400089144000891440008914400081C
:10007000914400089144000891440008914400080C
:1000800091440008914400089144000891440008FC
:1000900091440008914400089144000891440008EC
:1000A00091440008914400089144000891440008DC
:1000B00091440008914400089144000891440008CC
:1000C00091440008914400089144000891440008BC
:1000D0009144000891440008612B000891440008F5
:1000E0009144000891440008914400080000000079
:1000F0000000000000000000000000000000000000
:0C01000000000000000000005FF808F1A3
:1001100010F8012B11F8013B012A28BF9A42F7D0B1
:10012000D01A704781F0004102E000BF83F0004325
:1001300030B54FEA41044FEA430594EA050F08BF82
:1001400090EA020F1FBF54EA000C55EA020C7FEA46
:10015000645C7FEA655C00F0E2804FEA5454D4EBC3
:100160005555B8BF6D420CDD2C4480EA020281EA8D
:10017000030382EA000083EA010180EA020281EAC5
:100180000303362D88BF30BD11F0004F4FEA013117
:100190004FF4801C4CEA113102D0404261EB410126
:1001A00013F0004F4FEA03334CEA133302D05242AC
:1001B00063EB430394EA050F00F0A780A4F1010468
:1001C000D5F1200E0DDB02FA0EFC22FA05F28018A2
:1001D00041F1000103FA0EF2801843FA05F3594188
:1001E0000EE0A5F120050EF1200E012A03FA0EFC07
:1001F00028BF4CF0020C43FA05F3C01851EBE37131
:1002000001F0004507D54FF0000EDCF1000C7EEB4D
:1002100000006EEB0101B1F5801F1BD3B1F5001F8B
:100220000CD349085FEA30004FEA3C0C04F10104AA
:100230004FEA445212F5800F80F09A80BCF1004FD3
:1002400008BF5FEA500C50F1000041EB045141EA55
:10025000050130BD5FEA4C0C404141EB0101013C1E
:1002600028BFB1F5801FE9D291F0000F04BF01460D
:100270000020B1FA81F308BF2033A3F10B03B3F1DF
:1002800020020CDA0C3208DD02F1140CC2F10C026F
:1002900001FA0CF021FA02F10CE002F11402D8BFCD
:1002A000C2F1200C01FA02F120FA0CFCDCBF41EA99
:1002B0000C019040E41AA2BF01EB0451294330BD68
:1002C0006FEA04041F3C1CDA0C340EDC04F1140445
:1002D000C4F1200220FA04F001FA02F340EA03001C
:1002E00021FA04F345EA030130BDC4F10C04C4F162
:1002F000200220FA02F001FA04F340EA0300294642
:1003000030BD21FA04F0294630BD94F0000F83F48B
:10031000801306BF81F480110134013D4EE77FEA6E
:10032000645C18BF7FEA655C29D094EA050F08BFBA
:1003300090EA020F05D054EA000C04BF194610469B
:1003400030BD91EA030F1EBF0021002030BD5FEADF
:10035000545C05D14000494128BF41F0004130BD07
:1003600014F580043CBF01F5801130BD01F000455B
:1003700045F0FE4141F470014FF0000030BD7FEACE
:10038000645C1ABF194610467FEA655C1CBF0B46C9
:10039000024650EA013406BF52EA033591EA030FE0
:1003A00041F4002130BD00BF90F0000F04BF0021D8
:1003B000704730B54FF4806404F132044FF000050B
:1003C0004FF0000150E700BF90F0000F04BF002184
:1003D000704730B54FF4806404F1320410F00045EA
:1003E00048BF40424FF000013EE700BF42004FEAE5
:1003F000E2014FEA31014FEA02701FBF12F07F4362
:1004000093F07F4F81F06051704732F07F4208BF18
:10041000704793F07F4F04BF41F40021704730B51F
:100420004FF4607401F0004521F000411CE700BF6B
:1004300050EA010208BF704730B54FF000050AE0EE
:1004400050EA010208BF704730B511F0004502D5EF
:10045000404261EB41014FF4806404F132045FEAF1
:10046000915C3FF4D8AE4FF003025FEADC0C18BF9A
:1004700003325FEADC0C18BF033202EBDC02C2F18C
:10048000200300FA03FC20FA02F001FA03FE40EA1E
:100490000E0021FA02F11444BDE600BF70B54FF022
:1004A000FF0C4CF4E06C1CEA11541DBF1CEA135500
:1004B00094EA0C0F95EA0C0F00F0DEF82C4481EA68
:1004C000030621EA4C5123EA4C5350EA013518BF88
:1004D00052EA033541F4801143F4801338D0A0FB75
:1004E00002CE4FF00005E1FB02E506F00042E0FB22
:1004F00003E54FF00006E1FB03569CF0000F18BF28
:100500004EF0010EA4F1FF04B6F5007F64F54074CF
:1005100004D25FEA4E0E6D4146EB060642EAC62162
:1005200041EA55514FEAC52040EA5E504FEACE2ECF
:10053000B4F1FD0C88BFBCF5E06F1ED8BEF1004FD2
:1005400008BF5FEA500E50F1000041EB045170BD4E
:1005500006F0004646EA010140EA020081EA030192
:10056000B4EB5C04C2BFD4EB0C0541EA045170BD8E
:1005700041F480114FF0000E013C00F3AB8014F108
:10058000360FDEBF002001F0004170BDC4F1000451
:10059000203C35DA0C341BDC04F11404C4F12005D2
:1005A00000FA05F320FA04F001FA05F240EA02002D
:1005B00001F0004221F0004110EBD37021FA04F663
:1005C00042EB06015EEA430E08BF20EAD37070BD1D
:1005D000C4F10C04C4F1200500FA04F320FA05F07C
:1005E00001FA04F240EA020001F0004110EBD3707E
:1005F00041F100015EEA430E08BF20EAD37070BDEE
:10060000C4F1200500FA05F24EEA020E20FA04F3C6
:1006100001FA05F243EA020321FA04F001F0004175
:1006200021FA04F220EA020000EBD3705EEA430EE6
:1006300008BF20EAD37070BD94F0000F0FD101F015
:100640000046400041EB010111F4801F08BF013C4E
:10065000F7D041EA060195F0000F18BF704703F08C
:100660000046520043EB030313F4801F08BF013D13
:10067000F7D043EA0603704794EA0C0F0CEA1355CF
:1006800018BF95EA0C0F0CD050EA410618BF52EA89
:100690004306D1D181EA030101F000414FF000008F
:1006A00070BD50EA410606BF1046194652EA43069D
:1006B00019D094EA0C0F02D150EA013613D195EA11
:1006C0000C0F05D152EA03361CBF104619460AD159
:1006D00081EA030101F0004141F0FE4141F4700163
:1006E0004FF0000070BD41F0FE4141F4780170BD53
:1006F00070B54FF0FF0C4CF4E06C1CEA11541DBFB8
:100700001CEA135594EA0C0F95EA0C0F00F0A7F8B9
:10071000A4EB050481EA030E52EA03354FEA0131E6
:1007200000F088804FEA03334FF0805545EA1313F9
:1007300043EA12634FEA022245EA111545EA1065C1
:100740004FEA00260EF000419D4208BF964244F158
:10075000FD0404F5407402D25B084FEA3202B61A77
:1007600065EB03055B084FEA32024FF480104FF44B
:10077000002CB6EB020E75EB030E22BFB61A7546BF
:1007800040EA0C005B084FEA3202B6EB020E75EB52
:10079000030E22BFB61A754640EA5C005B084FEABA
:1007A0003202B6EB020E75EB030E22BFB61A754687
:1007B00040EA9C005B084FEA3202B6EB020E75EB92
:1007C000030E22BFB61A754640EADC0055EA060E53
:1007D00018D04FEA051545EA16754FEA06164FEA96
:1007E000C30343EA52734FEAC2025FEA1C1CC0D142
:1007F00011F4801F0BD141EA00014FF000004FF0CF
:10080000004CB6E711F4801F04BF01430020B4F18F
:10081000FD0C88BFBCF5E06F3FF6AFAEB5EB030C47
:1008200004BFB6EB020C5FEA500C50F1000041EB44
:10083000045170BD0EF0004E4EEA113114EB5C0411
:10084000C2BFD4EB0C0541EA045170BD41F48011E4
:100850004FF0000E013C90E645EA060E8DE60CEAEC
:10086000135594EA0C0F08BF95EA0C0F3FF43BAF09
:1008700094EA0C0F0AD150EA01347FF434AF95EAC0
:100880000C0F7FF425AF104619462CE795EA0C0FA4
:1008900006D152EA03353FF4FDAE1046194622E771
:1008A00050EA410618BF52EA43067FF4C5AE50EA4B
:1008B00041047FF40DAF52EA43057FF4EBAE12E73B
:1008C0004FF0FF3C06E000BF4FF0010C02E000BF1C
:1008D0004FF0010C4DF804CD4FEA410C7FEA6C5CFF
:1008E0004FEA430C18BF7FEA6C5C1BD001B050EAA2
:1008F000410C0CBF52EA430C91EA030F02BF90EA8D
:10090000020F0020704710F1000F91EA030F58BF4B
:10091000994208BF90422CBFD8176FEAE37040F0AD
:10092000010070474FEA410C7FEA6C5C02D150EA4B
:10093000013C07D14FEA430C7FEA6C5CD6D152EA06
:10094000033CD3D05DF8040B704700BF84461046CB
:1009500062468C461946634600E000BF01B5FFF7CA
:10096000B7FF002848BF10F1000F01BD4DF808ED9A
:10097000FFF7F4FF0CBF012000205DF808FB00BF6B
:100980004DF808EDFFF7EAFF34BF012000205DF8C5
:1009900008FB00BF4DF808EDFFF7E0FF94BF012012
:1009A00000205DF808FB00BF4DF808EDFFF7CEFF13
:1009B00094BF012000205DF808FB00BF4DF808ED52
:1009C000FFF7C4FF34BF012000205DF808FB00BF23
:1009D0004FEA410C7FEA6C5C02D150EA013C0AD13B
:1009E0004FEA430C7FEA6C5C02D152EA033C02D12D
:1009F0004FF0000070474FF0010070474FEA41028E
:100A000012F5001215D211D56FF47873B3EB625260
:100A100012D94FEAC12343F0004343EA505311F087
:100A2000004F23FA02F018BF404270474FF0000019
:100A3000704750EA013005D111F0004008BF6FF057
:100A4000004070474FF00000704700BF4A0011D2CD
:100A500012F5001211D20DD56FF47873B3EB625218
:100A60000ED44FEAC12343F0004343EA505323FA24
:100A700002F070474FF00000704750EA013002D199
:100A80004FF0FF3070474FF0000070470348044BB1
:100A9000834202D0034B03B1184770477000002017
:100AA00070000020000000000548064B1B1AD90FFB
:100AB00001EBA301491002D0034B03B11847704763
:100AC00070000020700000200000000010B5064CEF
:100AD000237843B9FFF7DAFF044B13B10448AFF3AF
:100AE00000800123237010BD700000200000000072
:100AF000EC70000808B5054B1BB105490548AFF37C
:100B00000080BDE80840FFF7CFBF00BF0000000035
:100B100074000020EC7000082DE9F04F87B00F1E24
:100B200073DD8246934603782D2B58D00024002293
:100B30003B4BCDE9042369264FF00008DFF8E09035
:100B400000220023CDE90023CDE902235B46B34612
:100B50005646BA461F461DE00022324BDDE902012F
:100B6000FFF79CFCCDE902012846FFF72DFCDDE9EB
:100B70000223FFF7DDFA00222B4BFFF7D7FACDE96E
:100B8000020106E02E2D42D1BBF1690F41D14FF099
:100B9000640B0134544528DA355DA5F13003DBB22E
:100BA000092BEFD8BBF1690FD6D01BA3D3E90023E3
:100BB00040464946FFF772FC80468946A5F1300061
:100BC000FFF702FC42464B46FFF768FC02460B4625
:100BD000DDE90001FFF7ACFACDE90001D9E7012416
:100BE0000022124BCDE90423A5E7DDE90023DDE96E
:100BF0000201FFF79DFADDE90423FFF74FFCC7E987
:100C00000001012007B0BDE8F08F0020FAE70020C6
:100C1000F8E70020F6E700BF9A9999999999B93FAA
:100C20000000F03F00002440000048400000F0BFFA
:100C30002DE9F041D2B00546002300E00133E91868
:100C4000EA5C0AB1202AF9D1002A00F031845C1C48
:100C500000230B700A238DF847319C492846FFF783
:100C600057FA30B19A492846FFF752FA002840F067
:100C7000938100220023CDE93023CDE93223CDE951
:100C8000342300270EE00136AB5D0BB1202BFAD1E7
:100C900030AB03EBC702311B2819FFF73DFF88B1CA
:100CA000741C0137022F01DC2646EDE787492846F0
:100CB000FFF72EFA40B186492846FFF729FA0028A7
:100CC00000F0A9800027F4E3DDE93023CDE93623E5
:100CD000DDE93201CDE93801DDE93445CDE93A45B8
:100CE0007C4E0496CDE90245CDE900017A4800F03A
:100CF0009BFD7A4E00227A4BCDE9082302AC36AD3B
:100D00000FCD0FC495E8030084E8030006F110033B
:100D100093E803008DE8030096E80F0001F0DAFB8A
:100D20008DF8A80001282ED06E4C012210212046FB
:100D300002F0E0FA6C4D4FF6FF7301222AA9284613
:100D400003F05BF94FF6FF7301220DF247112846BD
:100D500003F053F9322002F0C5F80022102120469A
:100D600002F0C8FA614B0493DDE93423CDE9022394
:100D7000DDE93223CDE90023DDE930235C4800F0D2
:100D800053FD012795E3344636AD0FCD0FC495E8EA
:100D9000030084E80300574E38AB0FCB8DE80F00FB
:100DA00036AB0CCB16A800F01BFE354616AC0FCCAC
:100DB0000FC594E8030085E803004A4C0122102186
:100DC000204602F097FA484D4FF6FF7301222AA9F8
:100DD000284603F012F94FF6FF7301220DF2471176
:100DE000284603F00AF9322002F07CF80022102194
:100DF000204602F07FFA404B0493D6E90423CDE964
:100E00000223D6E90223CDE90023D6E900233B489B
:100E100000F00AFDB5E7DDE93023CDE93623DDE951
:100E20003201CDE93801DDE93445CDE93A45324EAC
:100E30000496CDE90245CDE90001314800F0F4FC0B
:100E40002C4E02AC36AD0FCD0FC495E8030084E8FC
:100E5000030006F1100393E803008DE8030096E811
:100E60000F0000F0FFFF8DF8A80001284CD01D4CAA
:100E700001221021204602F03DFA1B4D4FF6FF7370
:100E800001222AA9284603F0B8F84FF6FF73012281
:100E90000DF24711284603F0B0F8322002F022F894
:100EA00000221021204602F025FA104B0493DDE9C0
:100EB0003423CDE90223DDE93223CDE90023DDE946
:100EC0003023104800F0B0FC5BE700BF0871000859
:100ED000107100082871000818710008A80000208F
:100EE00000004E40000801405009002058710008E1
:100EF0004871000890000020447100082C7100081F
:100F0000687100088C710008984F38AB0FCB8DE8E2
:100F10000F0036AC94E80C0016A800F065FE3E46C3
:100F200016AD0FCD0FC695E8030086E80300904D7F
:100F30000FCC0FC594E8030085E803008D4C012217
:100F40001021204602F0D6F98B4D4FF6FF73012297
:100F50002AA9284603F051F84FF6FF7301220DF23B
:100F60004711284603F049F8322001F0BBFF002268
:100F70001021204602F0BEF9804B0493D7E90423E8
:100F8000CDE90223D7E90223CDE90023D7E90023E5
:100F90007B4800F049FCF4E67A492846FFF7B8F8A8
:100FA0008046002840F0BC802022002136A803F0B3
:100FB00070FA12E00136AB5D0BB1202BFAD136ABE3
:100FC00003EBC802311B2819FFF7A6FD07460028CE
:100FD00000F06F82741C08F10108B8F1030F01DC06
:100FE0002646E8E7DDE93623CDE93023DDE938237D
:100FF000CDE93223DDE93A23CDE934235B4EDDE947
:101000003C23CDE9082302AC30AD0FCD0FC495E8E9
:10101000030084E8030006F1100393E803008DE861
:10102000030096E80F0001F055FA8DF8A80001289A
:101030002ED0504C01221021204602F05BF94E4D7B
:101040004FF6FF7301222AA9284602F0D6FF4FF679
:10105000FF7301220DF24711284602F0CEFF322025
:1010600001F040FF00221021204602F043F9464BD8
:101070000493DDE93A23CDE90223DDE93823CDE904
:101080000023DDE93623414800F0CEFB012710E2C2
:10109000344630AD0FCD0FC495E8030084E803005B
:1010A000334E32AB0FCB8DE80F0030AB0CCB16A814
:1010B00000F096FC354616AC0FCC0FC594E8030043
:1010C00085E803002B4C01221021204602F012F982
:1010D000294D4FF6FF7301222AA9284602F08DFF01
:1010E0004FF6FF7301220DF24711284602F085FFEB
:1010F000322001F0F7FE00221021204602F0FAF81B
:101100001E4B0493D6E90423CDE90223D6E902233A
:10111000CDE90023D6E900231D4800F085FBB5E7A3
:101120001C492846FEF7F4FF8046002840F0E7807F
:101130006822002136A803F0ACF912E00136AB5D5D
:101140000BB1202BFAD136AB03EBC802311B2819A7
:10115000FFF7E2FC0746002800F0AB81741C08F1A1
:101160000108B8F10C0F17DC2646E8E7A8000020BC
:101170009000002000080140500900204471000840
:10118000787100089C7100085871000848710008C7
:101190002C710008A4710008DDE93623CDE91E2377
:1011A000DDE93823CDE92023DDE93A23CDE9222307
:1011B000DDE93C23CDE92423DDE93E23CDE92623E7
:1011C000DDE94023CDE92823DDE94223CDE92A23C7
:1011D000DDE94423CDE92C23DDE94623CDE92E23A7
:1011E000DDE94823CDE93023DDE94A23CDE9322387
:1011F000DDE94C23CDE93423DDE94E23CDE9142389
:101200000EAC30AD0FCD0FC495E8030084E80300A9
:1012100008AC2AAD0FCD0FC495E8030084E80300A5
:1012200002AC24AD0FCD0FC495E8030084E80300A1
:1012300022AB93E803008DE803001EAB0FCB01F057
:10124000FDFB8DF87700012820D09D4C0122102154
:10125000204602F04FF89B4D4FF6FF7301220DF12F
:101260007701284602F0C9FE4FF6FF7301220DF206
:101270004711284602F0C1FE322001F033FE002261
:101280001021204602F036F8012712E18E4C24ADE1
:101290000FCD0FC495E8030084E8030026AB0FCB05
:1012A0008DE80F0024AB0CCB16A800F099FB874DFE
:1012B00016AC0FCC0FC594E8030085E80300804C02
:1012C00001221021204602F015F87E4D4FF6FF73E3
:1012D00001220DF17701284602F08FFE4FF6FF73D1
:1012E00001220DF24711284602F087FE322001F05C
:1012F000F9FD00221021204601F0FCFFC4E77449EB
:101300002846FEF705FF074600287ED12C44714988
:101310002046FEF7FDFE80B36F492046FEF7F8FE3B
:1013200000284ED06D492046FEF7F2FE002840F01E
:10133000C08000F0DFF98DF8D800614C0122102147
:10134000204601F0D7FF5F4D4FF6FF73012236A90B
:10135000284602F052FE4FF6FF7301220DF24711AC
:10136000284602F04AFE322001F0BCFD0022102186
:10137000204601F0BFFF01279BE000F093F98DF8B4
:10138000D8004F4C01221021204601F0B3FF4D4DF3
:101390004FF6FF73012236A9284602F02EFE4FF6C3
:1013A000FF7301220DF24711284602F026FE32207B
:1013B00001F098FD00221021204601F09BFF01273B
:1013C00077E000F083F98DF8D8003D4C0122102120
:1013D000204601F08FFF3B4D4FF6FF73012236A9E7
:1013E000284602F00AFE4FF6FF7301220DF2471164
:1013F000284602F002FE322001F074FD0022102186
:10140000204601F077FF012753E035492846FEF7D3
:101410007FFE0746002850D12C4432492046FEF773
:1014200077FE28B330492046FEF772FE002840D1EF
:10143000234C01221021204601F05CFF214D4FF684
:10144000FF7318222149284602F0D7FD4FF6FF739B
:1014500001220DF24711284602F0CFFD322001F0A3
:1014600041FD00221021204601F044FF012720E029
:10147000134C01221021204601F03CFF114D4FF684
:10148000FF7318221049284602F0B7FD4FF6FF738C
:1014900001220DF24711284602F0AFFD322001F083
:1014A00021FD00221021204601F024FF012700E049
:1014B0000027384652B0BDE8F0810027F9E700BFA9
:1014C0000008014050090020A800002090000020E2
:1014D000AC710008B4710008B8710008BC71000854
:1014E000C0710008C4710008C871000830B589B027
:1014F00000240494059406940794174B9A6942F0CB
:1015000020029A619A6902F020020192019A9A6976
:1015100042F004029A619A6902F004020292029A6D
:101520009A6942F008029A619B6903F008030393E9
:10153000039B0A4D22467021284601F0DBFE7023F2
:1015400004930123059306940223079304A92846D4
:1015500001F0C2FD09B030BD00100240000801409A
:1015600072B6FEE700B591B02822002106A802F06D
:1015700090FF0023019302930393049305930122A8
:1015800006924FF4803307930A9202220D920E9333
:101590004FF4E0130F9306A801F0C8FE80B90F23A3
:1015A000019302210291002303934FF4806204927D
:1015B000059301A802F0FAF820B911B05DF804FB18
:1015C000FFF7CEFFFFF7CCFF30B5A5B001F066FC0A
:1015D000FFF7C8FFFFF78AFF01F036FB01F09AFB27
:1015E00001F0D8FB264C0421204602F043FB0C21DD
:1015F000204602F03FFB0021224802F03BFB012283
:101600002149224802F003FF00221021204801F066
:1016100071FE204C00220023C4E9002300221E4B4F
:10162000C4E9022300221D4BC4E9042304F108038A
:101630000FCB8DE80F0094E80C0004A800F0D4FA5A
:10164000174D0DF1100CBCE80F000FC59CE803000E
:1016500085E8030004F1100393E803008DE803001C
:1016600094E80F0000F082FB00F0D8F80028FBD0CF
:101670000BA800F075F881B20BA8FFF7D9FAF3E7D1
:1016800008090020C0080020C400002050090020E4
:101690000008014090000020000054400000344049
:1016A000A800002010B5074C01222021204601F09F
:1016B00021FE01224021204601F01CFE0120024BA8
:1016C000187010BD00080140C000002010B5074C84
:1016D00000222021204601F00DFE0022402120465C
:1016E00001F008FE0020024B187010BD00080140F8
:1016F000C0000020014B1878704700BFC0000020D8
:1017000008B5124B1B78C82B19D0114B1B780D2B29
:101710000BD00A2B09D0FF2B07D00C490A7802F115
:10172000010C81F800C00B498B540B4A0121117048
:101730003B2B08D00122064902F069FE08BD034B8D
:1017400000221A70E1E7054B1970F3E7C50000208D
:10175000C4000020C8000020C3000020C2000020F8
:1017600070B50546294B19780B4600201C460133FD
:10177000DBB2274A125D3B2A06D0C82BF6D10028DF
:1017800041D103460120F1E703B91C46F8B9621ABA
:101790001F4B1944284602F0A9FE1C4B1B78E31A84
:1017A0000022EA542046631C1A4A1278934221D040
:1017B000164B1B78A34221D9C3F1C803184401304A
:1017C000C62C1ED80134E4B2104B1C7070BD104EF4
:1017D000C1F1C8023144284602F088FE0B4B18784C
:1017E000C0F1C70022463146284402F07FFE0023A4
:1017F0002B55D7E7084B00221A70D9E7C01A0130E1
:10180000DEE70024E0E70020E0E700BFC1000020A1
:10181000C8000020C5000020C2000020014B18783D
:10182000704700BFC20000207047000000000000A9
:1018300082B010B5044602A981E80C009DF8203062
:10184000012B2BD02AA3D3E90023DDE90201FEF707
:1018500025FE0022284BFEF74BFFC4E9000124A31C
:10186000D3E90023DDE90401FEF718FE0022224B34
:10187000FEF73EFFC4E902011DA3D3E90023DDE921
:101880000601FEF70BFE00221B4BFEF731FFC4E9F9
:1018900004012046BDE8104002B0704714A3D3E90C
:1018A0000023DDE90201FEF723FF0022124BFEF7C1
:1018B000F5FDC4E900010EA3D3E90023DDE904012D
:1018C000FEF716FF00220C4BFEF7E8FDC4E902010B
:1018D00007A3D3E90023DDE90601FEF709FF002293
:1018E000054BFEF7DBFDC4E90401D2E7AFF300804E
:1018F0004AD8124DFB2109400080664000000000DC
:1019000084B0F8B506AC84E80F00DDE906452AA3EB
:10191000D3E9002320462946FFF746F800283AD0AD
:1019200027A3D3E9002320462946FFF733F80028F0
:1019300036D0DDE9084524A3D3E900232046294613
:10194000FFF732F870B322A3D3E9002320462946DB
:10195000FFF720F840B3DDE90A671BA3D3E90023B2
:1019600030463946FFF720F800B319A3D3E9002326
:1019700030463946FFF70EF8D0B132463B46204696
:101980002946FEF7D5FB14A3D3E90023FFF702F89D
:1019900010B1012000E00020BDE8F84004B070471D
:1019A0000020F9E70020F7E70020F5E70020F3E743
:1019B0000020F1E7AFF30080F2D24D62108056C0F4
:1019C000F2D24D6210805640FCA9F1D24D6250BF58
:1019D00079E92631088066408716D9CEF7FF634043
:1019E00082B02DE9F0478AB0824612A981E80C0046
:1019F000DDE91267DDE91445DDE9168932463B462B
:101A00002046294602F0A8FDCAE9000132463B46BD
:101A100030463946FEF742FD06460F4622462B4623
:101A200020462946FEF73AFD02460B463046394627
:101A3000FEF77EFB02F000FE4FA3D3E90023FEF782
:101A400075FB4FA3D3E90023FEF770FB06460F4654
:101A50000022514B40464946FEF768FB00224F4B9F
:101A6000FEF766FB8046894632463B46304639469D
:101A7000FEF714FD04460D4642464B46CDE9068965
:101A800040464946FEF70AFD02460B4620462946D7
:101A9000FEF74EFB02F0D0FD8046894602460B461B
:101AA000FEF7FCFC02460B46CDE9082336A3D3E93A
:101AB0000023FEF73DFB0022394BFEF737FB0446BF
:101AC0000D460022374B40464946FEF7E7FC0246EA
:101AD0000B4620462946FEF70BFE02F015FD044694
:101AE0000D46DDE9082328A1D1E90001FEF71EFB20
:101AF00000222B4BFEF71CFB00222B4BFEF7F8FDC0
:101B000002F002FD8046894632463B46DDE9060189
:101B1000FEF7EEFD02F0B8FD06460F4602460B4604
:101B200020462946FEF704FBCAE9020132463B463D
:101B300017A1D1E90001FEF7F9FA22462B46FEF77C
:101B4000F5FA42464B46FEF7F1FACAE904010123D1
:101B500004930AF108030FCB8DE80F009AE80C00FC
:101B60005046FFF765FE50460AB0BDE8F04702B0A8
:101B7000704700BFAFF300808195438B6C673140A5
:101B80000000000000C04140000000000064D5409B
:101B90004AD8124DFB210940004058400000344013
:101BA0000000D940008072400020E74084B010B5AA
:101BB0008AB00CAC84E80F0004AC0EAB0FCB8DE800
:101BC0000F000CAB0CCB2046FFF70AFF0AAB13E962
:101BD00003008DE8030094E80F00FFF791FE0AB0C0
:101BE000BDE8104004B0704782B02DE9F0478EB0D8
:101BF000824616A981E80C000023049318AB0FCB92
:101C00008DE80F0016AB0CCB08A8FFF711FEDDE93D
:101C10000867CDE90667DDE90A6732463B4644A11D
:101C2000D1E90001FEF782FADDE90C23FEF77EFA26
:101C300002F0B6FE0022484BFEF730FC02460B468F
:101C40003DA1D1E90001FEF771FA02F0F5FC04466E
:101C50000D4602460B46FEF721FC39A3D3E90023CB
:101C6000FEF766FA00223D4BFEF760FA8046894691
:101C700000223B4B20462946FEF710FC02460B464D
:101C800040464946FEF734FD02F03EFC02460B4654
:101C900030463946FEF74AFA8046894602F080FE11
:101CA00022462B46FEF7FAFB06460F4640464946BB
:101CB00002F0BEFE22462B46FEF7F0FB0022294B27
:101CC000FEF736FA0022284BFEF730FACAE9040183
:101CD0001DA3D3E9002330463946FEF729FA1CA399
:101CE000D3E90023FEF724FA04460D46DDE9066732
:101CF0003046394602F054FE02460B46204629463D
:101D0000FEF7CCFBCAE900013046394602F090FEEE
:101D100002460B4620462946FEF7C0FBCAE90201EF
:101D200050460EB0BDE8F04702B07047AFF30080F8
:101D30004AD8124DFB210940000000000032E74064
:101D4000000000000064D5408195438B6C673140F2
:101D50000000000000C041400020E7400000D940E2
:101D600000807240004058400000344084B070B59C
:101D700082B006AC84E80F000AAB93E803008DE85C
:101D8000030094E80F00FFF7BBFD012806D00024F4
:101D9000204602B0BDE8704004B0704704460022FF
:101DA0000023DDE90601FEF7C3F90022274BFEF709
:101DB000BFF90022264BFEF79BFC0022254BFEF7C5
:101DC0006DFB0022244BFEF7B3F9244B1D68FEF790
:101DD0003DFE6863142001F085F800221B4BDDE90D
:101DE0000801FEF7A5F90022184BFEF79FF9002223
:101DF000174BFEF77DFC0022164BFEF74FFB00222F
:101E0000154BFEF795F9164D2E68FEF71FFEB063D1
:101E1000142001F067F800220023DDE90A01FEF733
:101E200087F900220A4BFEF763FC0022094BFEF7FC
:101E300035FB0022084BFEF77BF92D68FEF706FE06
:101E40002864142001F04EF8A2E700BF008056403D
:101E50000080664000409F4000407F40C008002056
:101E60000809002084B02DE9F04182B008AC84E874
:101E70000F0012AB93E803008DE803000EAB0FCB0D
:101E8000FFF73EFD012806D00024204602B0BDE841
:101E9000F04104B070470446DDE90E6700220023DC
:101EA00030463946FEF744F900224B4BFEF740F925
:101EB00000224A4BFEF71CFC0022494BFEF7EEFACB
:101EC0000022484BFEF734F9474B1D68FEF7BEFD74
:101ED0006863DDE9082330463946FEF727F9FEF747
:101EE0008DFD0028B8BF4042FEF76EFA00223F4B3E
:101EF000FEF7D4FA00223E4BFEF7FAFBFEF7A6FDF2
:101F000000F0F0FFDDE910670022334B3046394620
:101F1000FEF70EF90022304BFEF708F900222F4B96
:101F2000FEF7E6FB00222E4BFEF7B8FA00222D4BFF
:101F3000FEF7FEF82F4DD5F80080FEF787FDC8F8B4
:101F40003800DDE90A2330463946FEF7EFF8FEF7A0
:101F500055FD0028B8BF4042FEF736FA0022234B59
:101F6000FEF79CFA0022224BFEF7C2FBFEF76EFD45
:101F700000F0B8FFDDE91267002200233046394641
:101F8000FEF7D6F80022154BFEF7B2FB0022144BE9
:101F9000FEF784FA0022134BFEF7CAF82D68FEF70D
:101FA00055FD2864DDE90C2330463946FEF7BEF8BE
:101FB000FEF724FD0028B8BF4042FEF705FA0022D4
:101FC0000A4BFEF76BFA0022094BFEF791FBFEF776
:101FD0003DFD00F087FF58E70080564000806640D6
:101FE00000409F4000407F40C008002000004E405D
:101FF00000002E400809002084B02DE9F04FA7B062
:1020000030AC84E80F003AAB93E803008DE803009E
:1020100036AB0FCBFFF7CAFD20B927B0BDE8F04FB4
:1020200004B07047DDE93034184621461A4623468D
:10203000CDE90401FEF732FA04460D46DDE932AB84
:1020400052465B4650465946FEF728FA02460B4672
:1020500020462946FEF76CF802F0EEFAC8A3D3E951
:102060000023FEF763F80022CB4BFEF741FB02464C
:102070000B46DDE93401FEF75BF803460C46CDE97B
:102080000634CDE93434DDE9368942464B464046D4
:102090004946FEF703FA04460D46DDE93867324645
:1020A0003B4630463946FEF7F9F902460B462046D4
:1020B0002946FEF73DF802F0BFFAB1A3D3E90023A9
:1020C000FEF734F80022B44BFEF712FB02460B4633
:1020D000DDE93A01FEF72CF804460D46CDE93A4514
:1020E000DDE9042340464946FEF720F8CDE9080122
:1020F00052465B4630463946FEF718F88046894618
:10210000CDE90A89DDE9062320462946FEF70EF8C7
:1021100006460F46CDE90C67DDE9080102460B468D
:10212000FEF7BCF904460D4642464B46404649463A
:10213000FEF7B4F902460B4620462946FDF7F8FFA4
:1021400004460D4632463B4630463946FEF7A6F970
:1021500002460B4620462946FDF7EAFF02F06CFADC
:10216000DDE93C23FEF7C4FA04460D4600228B4B02
:10217000FEF794F900228A4BFEF7BAFAFEF73EFC0E
:102180000746B0F5967F04DD4FF496777EA5D5E936
:1021900000450022834B2046294602F0DFF9024623
:1021A0000B4600207C49FEF7A3FACDE90E01002280
:1021B0007D4B2046294602F0D1F902460B4600200D
:1021C0007A49FEF795FACDE910010022784B2046B6
:1021D000294602F0C3F902460B4600207549FEF776
:1021E00087FACDE912010026B74240F30D8130464F
:1021F000FEF7EAF800226A4BFEF750F90022674B1F
:10220000FEF776FA04460D4600220023FEF746F953
:1022100000220023FDF78CFF8046894600224FF004
:1022200080432046294602F099F900220023FEF758
:1022300035F902460B4640464946FDF779FF804690
:1022400089460022574B2046294602F087F9DDE9EE
:102250000E23FEF723F902460B4640464946FDF79A
:1022600067FF8046894600224F4B2046294602F0F0
:1022700075F9DDE91023FEF711F902460B464046D9
:102280004946FDF755FF804689460022484B2046C7
:10229000294602F063F9DDE91223FEF7FFF8024652
:1022A0000B4640464946FDF743FF04460D460246AD
:1022B0000B46DDE90801FEF7F1F802460B46DDE9C1
:1022C0000401FDF735FFCDE9140122462B46DDE977
:1022D0000A01FEF7E3F802460B4650465946FDF761
:1022E00027FFCDE9160122462B46DDE90C01FEF75A
:1022F000D5F802460B46DDE90601FDF719FFCDE9E9
:1023000018011AAC16AB0FCB8DE80F0014AB0CCB39
:102310002046FFF765FB1EAB93E803008DE8030042
:1023200094E80F00FFF7ECFA01286BD10022224B52
:10233000DDE91A01FDF7FCFE00220023FDF7F8FE9F
:1023400013A3D3E90023FEF7A9F800221B4BFDF7E6
:10235000EFFE1B4D06EB46044FEA440805EB440430
:10236000FEF774FB25F808000022134BDDE91C0181
:10237000FDF7DEFE0022104BFDF7D8FE22E000BF85
:102380000000000000A06A40000000000094D1405E
:10239000D42B6519E23826400000244000408F40CD
:1023A00000004E40000008400000104000002EC019
:1023B00000001440000018400080564000407F405C
:1023C000980100203CA3D3E90023FEF767F8002220
:1023D0003B4BFDF7ADFEFEF739FB6080002200238A
:1023E000DDE91E01FDF7A4FE33A3D3E90023FEF7C8
:1023F00055F80022324BFDF79BFEFEF727FBA0802D
:102400000136F1E6002008E638AB0FCB8DE80F006F
:1024100036AB0CCB20A8FFF7E3FA0022294BDDE90D
:102420002001FDF785FE00220023FDF781FE22A397
:10243000D3E90023FEF732F80022214BFDF778FEA6
:10244000214D07EB4704660005EB4404FEF7FEFA56
:10245000A85300221B4BDDE92201FDF769FE002293
:10246000184BFDF763FE14A3D3E90023FEF716F81B
:102470000022134BFDF75CFEFEF7E8FA60800022B5
:102480000023DDE92401FDF753FE0BA3D3E900236C
:10249000FEF704F800220A4BFDF74AFEFEF7D6FAD3
:1024A000A0800A4B00221A600137094B1F600120EF
:1024B000B3E500BFAFF30080D42B6519E2382640A6
:1024C00000407F4000805640980100209401002089
:1024D0009001002084B0F0B58BB010AC84E80F0000
:1024E000DDE91C23CDE908230DF1080C0DF1580E90
:1024F000BEE80F00ACE80F009EE803008CE8030084
:1025000014AB93E803008DE8030094E80F00FFF795
:1025100073FD012806D0002528460BB0BDE8F04029
:1025200004B070470546114B1C681AE0104B19683F
:10253000104B04EB440203EB420633F812304B63BA
:10254000142000F0CFFC0C4F3B6872889A63142073
:1025500000F0C8FC3B68B2881A64142000F0C2FC8A
:102560000134064B1B68A342E0DCD5E79401002050
:10257000C0080020980100200809002090010020D8
:1025800084B02DE9F04F9DB026AC84E80F00002206
:102590000F4BDDE93E01FEF7ABF8FEF72FFA07908F
:1025A000B0F5967F02DD4FF4967307930798FDF719
:1025B0000BFF02460B4600200649FEF799F8CDE9CD
:1025C0000801002306934FF000084FF0000953E084
:1025D00000004E400000F03F0022D54BDDE9100125
:1025E000FDF7A6FD00220023FDF7A2FDCEA3D3E94F
:1025F0000023FDF753FF0022CE4BFDF799FDCE4D92
:10260000069F07EB4704660005EB4404FEF71EFA3D
:10261000A8530022C64BDDE91201FDF789FD002217
:10262000C34BFDF783FDC0A3D3E90023FDF736FFBD
:102630000022C04BFDF77CFDFEF708FA6080002207
:102640000023DDE91401FDF773FDB7A3D3E90023EF
:10265000FDF724FF0022B74BFDF76AFDFEF7F6F900
:10266000A080DDE9082340464946FDF761FD80462C
:1026700089463B4601330693079B069A934240F3F3
:102680007181DDE9264542464B460020AB49FDF706
:102690004DFD02460B46CDE904234FF0000ADFF85A
:1026A000A0B252465B4601F059FF02460B46204657
:1026B0002946FDF7F3FE04460D4652465B46DDE92A
:1026C0002C01FDF7EBFE42464B46FDF7E7FE0646C2
:1026D0000F4600224FF08043DDE9040101F03EFF88
:1026E00002460B4630463946FDF7D8FE02460B46F9
:1026F00020462946FDF71CFD06460F4652465B461E
:10270000DDE93201FDF7CAFE04460D4600224FF016
:1027100080434046494601F021FF02460B462046D1
:102720002946FDF7BBFE02460B46DDE90401FDF735
:10273000B5FE02460B4630463946FDF7F9FC044625
:102740000D46DDE9386752465B464046494601F092
:1027500005FF02460B4630463946FDF79FFE02460E
:102760000B4620462946FDF7E3FCCDE90A01DDE9E9
:10277000284552465B46DDE9040101F0EFFE0246C2
:102780000B4620462946FDF789FE06460F4652466F
:102790005B46DDE92E01FDF781FE42464B46FDF723
:1027A0007DFE04460D4600224FF08043DDE9040122
:1027B00001F0D4FE02460B4620462946FDF76EFE88
:1027C00002460B4630463946FDF7B2FC06460F4638
:1027D00052465B46DDE93401FDF760FE04460D46D6
:1027E00000224FF080434046494601F0B7FE0246C2
:1027F0000B4620462946FDF751FE02460B46DDE911
:102800000401FDF74BFE02460B4630463946FDF704
:102810008FFC04460D46DDE93A6752465B4640466A
:10282000494601F09BFE02460B4630463946FDF70D
:1028300035FE02460B4620462946FDF779FCCDE9D8
:102840000C01DDE92A4552465B46DDE9040101F051
:1028500085FE02460B4620462946FDF71FFE06462A
:102860000F4652465B46DDE93001FDF717FE424652
:102870004B46FDF713FE04460D4600224FF0804301
:10288000DDE9040101F06AFE02460B4620462946B6
:10289000FDF704FE02460B4630463946FDF748FC7C
:1028A00004460D4652465B46DDE93601FDF7F6FD6E
:1028B00006460F4600224FF080434046494601F04D
:1028C0004DFE02460B4630463946FDF7E7FD02460F
:1028D0000B46DDE90401FDF7E1FD02460B4620460B
:1028E0002946FDF725FC04460D46DDE93C675246C6
:1028F0005B464046494601F031FE02460B463046F3
:102900003946FDF7CBFD02460B4620462946FDF72A
:102910000FFCCDE90E0110AC0CAB0FCB8DE80F0016
:102920000AAB0CCB20460DE0D42B6519E2382640CB
:102930000080564000407F40980100200000F03F9A
:1029400000000840FFF74CF814AB93E803008DE853
:10295000030094E80F00FEF7D3FF01283FF43CAEDC
:10296000002055E03AAB0FCB8DE80F0038AB0CCB15
:1029700016A8FFF735F800222B4BDDE91601FDF70D
:10298000D7FB00220023FDF7D3FB25A3D3E90023C7
:10299000FDF784FD0022254BFDF7CAFB244D079F60
:1029A00007EB4704660005EB4404FEF74FF8A85315
:1029B00000221D4BDDE91801FDF7BAFB00221A4B7E
:1029C000FDF7B4FB16A3D3E90023FDF767FD002252
:1029D000164BFDF7ADFBFEF739F8608000220023AF
:1029E000DDE91A01FDF7A4FB0DA3D3E90023FDF7F0
:1029F00055FD00220D4BFDF79BFBFEF727F8A0804D
:102A00000C4B00221A603B4601330B4A1360012035
:102A10001DB0BDE8F04F04B0704700BFAFF30080B9
:102A2000D42B6519E23826400080564000407F4094
:102A300098010020940100209001002084B0F0B59E
:102A400097B01CAC84E80F00DDE93423CDE91423F2
:102A50000DF1380C0DF1880EBEE80F00ACE80F0048
:102A60009EE803008CE803000DF1200C0DF1B80E78
:102A7000BEE80F00ACE80F009EE803008CE80300FE
:102A80000DF1080C0DF1A00EBEE80F00ACE80F0030
:102A90009EE803008CE8030020AB93E803008DE878
:102AA000030094E80F00FFF76BFD012806D0002516
:102AB000284617B0BDE8F04004B070470546114BFA
:102AC0001C681AE0104B1968104B04EB440203EB2E
:102AD000420633F812304B63142000F003FA0C4F17
:102AE0003B6872889A63142000F0FCF93B68B28856
:102AF0001A64142000F0F6F90134064B1B68A34257
:102B0000E0DCD5E794010020C008002098010020F7
:102B1000080900209001002082B00A4B9A6942F017
:102B200001029A619A6902F001020092009ADA6940
:102B300042F08052DA61DB6903F080530193019B1C
:102B400002B0704700100240FEE7FEE7FEE7FEE736
:102B5000FEE770477047704708B500F0B1F908BD4F
:102B600008B5024801F038FB08BD00BF500900203D
:102B70007047000082B003680E4A934204D00E4AA8
:102B800093420CD002B070470C4B9A6942F4006239
:102B90009A619B6903F400630093009BF2E7074B83
:102BA000DA6942F00402DA61DB6903F0040301939D
:102BB000019BE7E7002C01400008004000100240A4
:102BC00000B587B000230293039304930593036831
:102BD000184A934205D0184A934217D007B05DF8BF
:102BE00004FB164B9A6942F004029A619B6903F058
:102BF00004030093009B4FF420630293022303938A
:102C0000059302A90E4800F067FAE7E70B4B9A69B3
:102C100042F008029A619B6903F008030193019B4B
:102C20004023029302230393059302A9054800F071
:102C300053FAD3E7002C0140000800400010024086
:102C400000080140000C014010B592B0002410941F
:102C5000119409940A940B940C940D940E940F946F
:102C60002022214601A801F014FC2848284B0360CB
:102C700047234360846044F61F63C360046144617A
:102C8000846100F025FF002831D1002310931193B7
:102C900010A91E4801F05CF800282BD1602309938D
:102CA00000230A930B930C930D930E930F9304221E
:102CB00009A9164800F066FFF8B90C2209A91348C3
:102CC00000F060FFE0B900230193029303930493A3
:102CD00005934FF400520692089301A90B4801F0A6
:102CE0006DF880B90948FFF76BFF12B010BDFEF711
:102CF00037FCCAE7FEF734FCD0E7FEF731FCDCE72F
:102D0000FEF72EFCDFE7FEF72BFCEBE708090020BF
:102D1000002C014000B58BB0002308930993019368
:102D20000293039304930593069307931748184A55
:102D3000026047224260836044F61F62C260036102
:102D4000836100F0C5FEC0B900230893099308A968
:102D50000E4800F0FDFF98B9602301930022029213
:102D60000392059201A9094800F00CFF58B90748E1
:102D7000FFF726FF0BB05DF804FBFEF7F1FBE3E77E
:102D8000FEF7EEFBE8E7FEF7EBFBF0E7C0080020FC
:102D90000008004008B50A480A4B03604FF4E133CD
:102DA000436000238360C36003610C22426183613E
:102DB000C36101F0F3F800B908BDFEF7D1FBFBE7F2
:102DC000500900200044004030B587B00023029332
:102DD00003930493059302681B4B9A4201D007B0FA
:102DE00030BD03F5E633DA6942F40032DA61DA69BC
:102DF00002F400320092009A9A6942F004029A6149
:102E00009B6903F004030193019B042302930223B3
:102E10000393032305930D4D02A9284600F05CF9A6
:102E2000082302930024039404940DEB0301284625
:102E300000F052F922462146262000F0ADF8262067
:102E400000F0BAF8CBE700BF0044004000080140A2
:102E500010B504460E4B1A784FF47A73B3FBF2F3B5
:102E60000C4A1068B0FBF3F000F0B4F868B90F2C0E
:102E700001D901200AE0002221464FF0FF3000F086
:102E80008BF8054B1C60002000E0012010BD00BF46
:102E900004000020000000200800002008B5074AB8
:102EA000136843F010031360032000F063F80F2051
:102EB000FFF7CEFFFFF730FE002008BD00200240E4
:102EC000034A1168034B1B780B441360704700BF23
:102ED0009409002004000020014B1868704700BFCF
:102EE0009409002038B50446FFF7F6FF0546B4F113
:102EF000FF3F02D0044B1B781C44FFF7EDFF401B43
:102F0000A042FAD338BD00BF04000020002808DB2F
:102F10000901C9B200F1604000F5614080F800137A
:102F2000704700F00F000901C9B2014B19547047F6
:102F300014ED00E000B500F00700C0F1070CBCF193
:102F4000040F28BF4FF0040C031D062B0FD9C31E1E
:102F50004FF0FF3E0EFA0CF021EA000199400EFA04
:102F600003FE22EA0E0241EA02005DF804FB0023A0
:102F7000EEE70000074AD36823F4E0631B041B0C50
:102F8000000200F4E060034343F0BF6343F4003306
:102F9000D360704700ED00E010B50446054BD868DB
:102FA000C0F30220FFF7C6FF01462046FFF7AEFF41
:102FB00010BD00BF00ED00E0002807DB00F01F029D
:102FC000400901239340024A42F82030704700BF75
:102FD00000E100E00138B0F1807F0BD24FF0E02338
:102FE0005861054AF02182F82310002098610722D9
:102FF0001A6170470120704700ED00E0034690F829
:103000002120022A06D004228263002280F8202098
:103010000120704701680A6822F00E020A60016808
:103020000A6822F001020A60026CC06B012101FAF9
:1030300002F2426083F82110002083F820007047DC
:1030400008B590F82130022B03D0042383630120BC
:1030500008BD0268136823F00E031360026813684A
:1030600023F0010313600368194A934214D0143209
:1030700093421FD0143293421ED0143293421ED07A
:10308000143293421ED01432934202D04FF0807219
:1030900003E04FF4801200E001220E4B5A6001233E
:1030A00080F82130002380F82030436B6BB19847C3
:1030B0000020CDE71022F0E74FF48072EDE74FF4E7
:1030C0008052EAE74FF48032E7E70020C0E700BF14
:1030D000080002400000024070B582B00024A446FF
:1030E000A2E07E4DAB4210D007D97D4DAB420CD053
:1030F00005F58035AB4208D013E0A5F58015AB424D
:1031000003D005F57025AB4207D18B68002B55D055
:10311000012B4ED04261082403E0A5F58015AB4297
:10312000F3D0BEF1FF0F4BD806464FEA8C0233684E
:103130000F25954023EA050304FA02F21343336096
:103140004B6813F0805F6DD0664B9A6942F00102C4
:103150009A619B6903F001030193019B4FEA9C0272
:10316000951C614B53F825600CF00305AD000F234F
:10317000AB4026EA03065D4B984228D003F58063F6
:10318000984200F08D8003F58063984200F08A80B9
:1031900003F58063984218D0042319E0CC68C0E797
:1031A000CC680434BDE7CC680834BAE7CC680C348A
:1031B000B7E702610824B4E70024B2E70424B0E7CB
:1031C000061DACF108029200B1E7032300E00023E2
:1031D000AB4033430232444D45F822304B6813F480
:1031E000803F61D0424A136843EA0E0313604B6884
:1031F00013F4003F5ED03E4A536843EA0E03536027
:103200004B6813F4801F5BD0394A936843EA0E037E
:1032100093604B6813F4001F58D0354AD36843EAD3
:103220000E03D3600CF1010C0B6833FA0CF253D08F
:10323000012202FA0CF203EA020E32EA0303F1D190
:103240004B68122B3FF64DAF122B3FF66AAF01A52C
:1032500055F823F00B3100089D310008A731000814
:10326000B931000823310008233100082331000858
:1032700023310008233100082331000823310008DE
:1032800023310008233100082331000823310008CE
:103290002331000823310008A1310008AD310008B6
:1032A000012395E7022393E7114A136823EA0E03EB
:1032B00013609CE70E4A536823EA0E0353609FE7AE
:1032C0000B4A936823EA0E039360A2E7084AD36887
:1032D00023EA0E03D360A5E702B070BD0000221000
:1032E00000003110001002400000014000080140C1
:1032F000000401400AB1016170470904016170478F
:1033000082B0084B1B68084AA2FB03235B0A00FB40
:1033100003F3019300BF019B5A1E0192002BF9D1C8
:1033200002B0704700000020D34D6210002800F06A
:10333000F18170B582B00446036813F0010F2CD000
:10334000994B5B6803F00C03042B1DD0964B5B6814
:1033500003F00C03082B12D06368B3F5803F41D013
:10336000002B55D103F1804303F504331A6822F48E
:1033700080321A601A6822F480221A6037E08A4B81
:103380005B6813F4803FE7D0874B1B6813F4003F62
:1033900003D06368002B00F0BF81236813F0020F95
:1033A00075D0814B5B6813F00C0F5FD07E4B5B6870
:1033B00003F00C03082B54D02369002B00F08A8003
:1033C0007A4B01221A60FFF787FD0546764B1B6892
:1033D00013F0020F75D1FFF77FFD401B0228F5D9CE
:1033E00003209EE1704A136843F4803313606368DE
:1033F00043B3FFF771FD05466B4B1B6813F4003FA9
:10340000CBD1FFF769FD401B6428F5D9032088E183
:10341000B3F5A02F09D0644B1A6822F480321A60E9
:103420001A6822F480221A60E1E703F18043A3F5D1
:103430003C331A6842F480221A601A6842F48032DF
:103440001A60D4E7FFF748FD0546574B1B6813F495
:10345000003FA2D0FFF740FD401B6428F5D90320B0
:103460005FE1514B5B6813F4803FA5D14E4B1B6865
:1034700013F0020F03D02369012B40F04F814A4A19
:10348000136823F0F803616943EAC10313602368FA
:1034900013F0080F33D0A369002B5CD0434B0122FB
:1034A000C3F88024FFF718FD05463F4B5B6A13F015
:1034B000020F21D1FFF710FD401B0228F5D9032090
:1034C0002FE1394A136823F0F803616943EAC10325
:1034D0001360DCE7354B00221A60FFF7FDFC054660
:1034E000314B1B6813F0020FD1D0FFF7F5FC401BE6
:1034F0000228F5D9032014E10120FFF701FF23681A
:1035000013F0040F00F09680274BDB6913F0805F07
:1035100034D1254BDA6942F08052DA61DB6903F07D
:1035200080530193019B0125214B1B6813F4807F7D
:1035300026D0E368012B3DD0002B53D103F180430B
:1035400003F504331A6A22F001021A621A6A22F0A1
:1035500004021A6233E0154B0022C3F88024FFF7FF
:10356000BBFC0546104B5B6A13F0020FC7D0FFF798
:10357000B3FC401B0228F5D90320D2E00025D3E795
:103580000B4A136843F480731360FFF7A5FC0646EB
:10359000074B1B6813F4807FCBD1FFF79DFC801B8A
:1035A0006428F5D90320BCE000100240000042422C
:1035B000007000405F4A136A43F001031362E3683E
:1035C00033B3FFF789FC06465A4B1B6A13F0020F10
:1035D0002FD1FFF781FC801B41F288339842F3D949
:1035E00003209EE0052B09D0524B1A6A22F00102FB
:1035F0001A621A6A22F004021A62E0E74D4B1A6A54
:1036000042F004021A621A6A42F001021A62D6E714
:10361000FFF762FC0646474B1B6A13F0020F08D007
:10362000FFF75AFC801B41F288339842F3D90320FC
:1036300077E0E5B9E369002B72D03E4A526802F0A8
:103640000C02082A56D0022B17D03B4B00221A66D8
:10365000FFF742FC0446374B1B6813F0007F47D04E
:10366000FFF73AFC001B0228F5D9032059E0314A44
:10367000D36923F08053D361DCE72F4B00221A6615
:10368000FFF72AFC05462B4B1B6813F0007F06D082
:10369000FFF722FC401B0228F5D9032041E0236AF2
:1036A000B3F5803F1AD023494B6823F47413226A80
:1036B000606A024313434B601F4B01221A66FFF7F7
:1036C0000BFC04461B4B1B6813F0007F0ED1FFF769
:1036D00003FC001B0228F5D9032022E0154A536899
:1036E00023F40033A1680B435360DCE7002018E0AB
:1036F000002016E0012B16D00E4B5B6803F48031DE
:10370000226A914211D103F47013626A93420ED17E
:10371000002006E001207047012002E0012000E0C7
:10372000002002B070BD0120FBE70120F9E7012075
:10373000F7E700BF001002400000424286B0174B7E
:103740000FCB0DF1180C0CE90F0040F20123ADF87E
:103750000430134B5B6803F00C02082A02D01148B6
:1037600006B07047C3F3834218326A4412F8100C53
:1037700013F4803F0DD00A4B5B68C3F3404318330A
:103780006B4413F8143C074A02FB00F0B0FBF3F063
:10379000E6E7054B03FB00F0E2E700BFE471000839
:1037A0000010024000127A0000093D00002800F0DD
:1037B000A08070B50D460446524B1B6803F007030A
:1037C0008B420BD24F4A136823F007030B4313605D
:1037D000136803F007038B4240F08D80236813F0D9
:1037E000020F17D013F0040F04D0474A536843F474
:1037F000E0635360236813F0080F04D0424A536813
:1038000043F460535360404A536823F0F003A168C7
:103810000B435360236813F0010F31D06368012B11
:1038200020D0022B25D0384A126812F0020F64D043
:1038300035494A6822F0030213434B60FFF74CFB03
:103840000646314B5B6803F00C036268B3EB820FF2
:1038500016D0FFF741FB801B41F288339842F0D924
:10386000032045E0284A126812F4003FE0D101200D
:103870003EE0254A126812F0007FD9D1012037E0DE
:10388000204B1B6803F00703AB420AD91D4A13689B
:1038900023F007032B431360136803F00703AB42C5
:1038A0002DD1236813F0040F06D0174A536823F470
:1038B000E063E1680B435360236813F0080F07D0FF
:1038C000114A536823F46053216943EAC1035360EA
:1038D000FFF734FF0C4B5B68C3F303130B4AD35C55
:1038E000D8400B4B18600B4B1868FFF7B1FA00205B
:1038F00070BD012070470120FAE70120F8E70120A0
:10390000F6E700BF0020024000100240D47100081A
:103910000000002008000020014B1868704700BF1D
:103920000000002008B5FFF7F7FF044B5B68C3F306
:103930000223034AD35CD84008BD00BF00100240F8
:10394000CC71000808B5FFF7E7FF044B5B68C3F3D1
:10395000C223034AD35CD84008BD00BF0010024018
:10396000CC71000830B4036A23F001030362026AD9
:103970004568836923F073030C681C4322F002023C
:103980008B6813430B4A904206D0456084614A68B5
:103990004263036230BC704723F00803CA681A43CD
:1039A00022F0040325F440754A692A438D691543C2
:1039B000EBE700BF002C014030B4036A23F48073AE
:1039C0000362036A4468C26922F073020D681543FA
:1039D00023F400738A6843EA02230D4A904206D01A
:1039E0004460C5614A68C263036230BC704723F417
:1039F0000063CA6843EA022323F4806324F440543A
:103A00004A6944EA02148A6944EA0214E8E700BFFA
:103A1000002C014030B4036A23F480530362036A2C
:103A20004468C26922F4E6420D6842EA052223F4A2
:103A300000538D6843EA0533074DA84206D0446021
:103A4000C2614A680264036230BC704724F4804457
:103A50004D6944EA8514F2E7002C014003681B4AD3
:103A600090420AD0B0F1804F07D0A2F59432904234
:103A700003D002F58062904203D123F070034A68BC
:103A80001343124A90420AD0B0F1804F07D0A2F5FA
:103A90009432904203D002F58062904203D123F425
:103AA0004073CA68134323F080034A6913430360D9
:103AB0008B68C3620B688362044B984202D0012377
:103AC000436170470B690363F9E700BF002C0140B5
:103AD00040B310B5044690F83D30F3B1022384F8AA
:103AE0003D30214651F8040BFFF7B8FF012384F85D
:103AF000463084F83E3084F83F3084F8403084F813
:103B0000413084F8423084F8433084F8443084F8FB
:103B1000453084F83D30002010BD80F83C30FFF780
:103B200029F8DBE70120704730B4036A23F0100363
:103B30000362036A4468826922F4E6420D6842EA3D
:103B4000052223F020038D6843EA05130C4DA8429B
:103B500006D0446082614A688263036230BC704769
:103B600023F08003CD6843EA051323F0400324F4D7
:103B700040644D6944EA85048D6944EA8504E8E7B8
:103B8000002C014038B590F83C30012B60D0044641
:103B90000D46012380F83C300C2A1AD8DFE802F0E9
:103BA000071919191D191919311919194400006833
:103BB000FFF7D8FE2268936943F0080393612268F7
:103BC000936923F0040393612268936929690B4385
:103BD0009361002084F83C0038BD0068FFF7A4FF23
:103BE0002268936943F4006393612268936923F424
:103BF0008063936122689369296943EA0123936191
:103C0000E7E70068FFF7D8FE2268D36943F00803AE
:103C1000D3612268D36923F00403D3612268D36996
:103C200029690B43D361D4E70068FFF7F3FE2268EC
:103C3000D36943F40063D3612268D36923F48063BA
:103C4000D3612268D369296943EA0123D361C0E7BC
:103C50000220C1E701F01F014FF0010C0CFA01FC3A
:103C6000036A23EA0C030362036A8A401343036274
:103C70007047000010B50446084651BB94F83E302A
:103C8000DBB2013B18BF0123002B5BD1002839D1E7
:103C9000022384F83E30012201462068FFF7DAFF54
:103CA00023682A4A93423DD02368284A93423ED053
:103CB000B3F1804F3BD0A2F59432934237D002F556
:103CC0008062934233D01A6842F001021A600020E9
:103CD00039E0042908D008290DD094F84130DBB22E
:103CE000013B18BF0123CFE794F83F30DBB2013B23
:103CF00018BF0123C8E794F84030DBB2013B18BF7E
:103D00000123C1E7042805D0082807D0022384F83E
:103D10004130C0E7022384F83F30BCE7022384F837
:103D20004030B8E75A6C42F400425A64BCE79A68E3
:103D300002F00702062A07D01A6842F001021A6050
:103D4000002000E0012010BD0020FCE7002C014015
:103D500090F83C20012A2CD010B40346012280F8B0
:103D60003C20022280F83D2002685068946820F0D0
:103D7000700C086840EA0C0050601A680E488242D5
:103D80000AD0B2F1804F07D0A0F59430824203D020
:103D900000F58060824204D124F080044968214308
:103DA0009160012283F83D20002083F83C0010BC84
:103DB00070470220704700BF002C0140024690F877
:103DC0003C30012B21D0012380F83C30CB6823F418
:103DD00040738868034323F480634868034323F4F3
:103DE00000630868034323F480530869034323F402
:103DF00000534869034323F48043C9690B431168A6
:103E00004B64002082F83C00704702207047026833
:103E1000D36823F49073D3600268536923F00103DD
:103E20005361036B012B05D0202380F83E30002323
:103E3000036370470268D36823F01003D360F3E78D
:103E400090F83D30DBB2212B01D00220704783680F
:103E5000B3F5805F17D0036A5A1C02621A780368B0
:103E60005A60C38C9BB2013B9BB2C3844BB90268BE
:103E7000D36823F08003D3600268D36843F0400323
:103E8000D360002070470369002BE4D1036A1B88CC
:103E90000268C3F308035360036A02330362E0E776
:103EA00010B504460268136923F44053C1680B43FC
:103EB000136183680269134342691A430168CB683E
:103EC00023F4B05323F00C031343CB60026853690F
:103ED00023F4407381690B4353610268134B9A4288
:103EE00020D0FFF71FFD024602EB820202EB8202A6
:103EF00063689B00B2FBF3F20D48A0FB0231490955
:103F0000642303FB11231B013233A0FB03035B0972
:103F100003F0F00202EB011203F00F0321681344D7
:103F20008B6010BDFFF70EFD0246DDE70038014053
:103F30001F85EB512DE9F84305460F461646994675
:103F4000DDF820802B681C6837EA04040CBF0124CC
:103F50000024B4421FD1B8F1FF3FF3D0B8F1000FF5
:103F600005D0FEF7B9FFA0EB09004045EAD92A6861
:103F7000D36823F4D073D3602A68536923F0010314
:103F80005361202385F83D3085F83E30002385F8C5
:103F90003C30032000E00020BDE8F88358B310B5A2
:103FA000044690F83D300BB3242384F83D3022685A
:103FB000D36823F40053D3602046FFF771FF2268D3
:103FC000136923F4904313612268536923F02A0391
:103FD00053612268D36843F40053D3600020206407
:103FE000202384F83D3084F83E3010BD80F83C300A
:103FF000FEF7EAFED8E7012070472DE9F04182B0D4
:104000001E4690F83D30DBB2202B54D104460D46BD
:104010009046002953D0002A53D090F83C30012B11
:1040200051D0012380F83C3000230364212380F821
:104030003D30FEF751FF0746A4F82480A4F82680FF
:10404000A368B3F5805F05D04FF00008002384F823
:104050003C3012E0236913B14FF00008F6E7A846A0
:104060000025F3E738F8023B2268C3F308035360E6
:10407000E28C92B2013A92B2E284E38C9BB273B1C9
:1040800000963B46002280212046FFF753FFE0B90F
:10409000002DE7D015F8012B23685A60E8E7009659
:1040A0003B46002240212046FFF744FF78B92023F9
:1040B00084F83D3000E0022002B0BDE8F08101202C
:1040C000FAE70120F8E70220F6E70320F4E70320EF
:1040D000F2E7704708B50168CA6822F04002CA607A
:1040E000202280F83D20FFF7F4FF002008BD704734
:1040F00008B5406A0023C385C384FFF7F8FF08BDF5
:10410000704790F83E30DBB2222B60D18368B3F564
:10411000805F46D0826AB3F5805F04D0002B4DD11A
:104120000369002B4AD103685B681370836A01330B
:104130008362C38D9BB2013B9BB2C385002B48D1E8
:1041400000B583B00268D36823F02003D36002680F
:10415000D36823F48073D3600268536923F00103AA
:104160005361202380F83E30036B012B2CD10023B8
:1041700003630268D36823F01003D36003681A68EE
:1041800012F0100F06D0002201921A6801925B68AB
:104190000193019B818DFFF7B3FF002003B05DF811
:1041A00004FB0269002AB5D1826A03685B68C3F325
:1041B00008031380836A02338362BAE703685B688B
:1041C00003F07F031370B1E7FDF79AFAE5E70220E9
:1041D000704700207047000010B582B004460268A6
:1041E0001368D068516913F00F0F09D113F0200F35
:1041F0000CD010F0200F09D02046FFF782FF16E008
:1042000011F0010115D110F4907F12D1216B012919
:1042100071D013F0800F03D010F0800F40F0D280E7
:1042200013F0400F03D010F0400F40F0CF8002B0E9
:1042300010BD13F0010F06D010F4807F03D0226C64
:1042400042F00102226413F0040F04D019B1226C71
:1042500042F00202226413F0020F04D019B1226C62
:1042600042F00402226413F0080F07D010F0200F70
:1042700000D119B1226C42F008022264226C002A9B
:10428000D5D013F0200F02D010F0200F21D12368D9
:104290005B6903F04003226C12F0080F00D123B3D6
:1042A0002046FFF7B4FD23685A6912F0400F18D07A
:1042B0005A6922F040025A61A36B73B1454A5A63AE
:1042C000A06BFEF7BDFE0028B1D0A06B436B9847F2
:1042D000ADE72046FFF715FFD9E72046FFF707FFB8
:1042E000A5E72046FFF703FFA1E72046FFF7FFFE03
:1042F000002323649BE713F0100F8AD010F0100FF7
:1043000087D0002301931368019353680193019BA5
:10431000536913F0400F31D0A16B0B685B689BB2FF
:10432000002B84D0A08D984281D9E3858B69202B06
:1043300008D1A18DE38D9BB2C91A89B22046FFF73F
:10434000DFFE74E7D36823F48073D3602268536977
:1043500023F0010353612268536923F04003536142
:10436000202384F83E30002323632268D36823F09F
:104370001003D360A06BFEF741FEDAE7A38DE18D59
:1043800089B25B1A99B2E38D9BB2002B3FF44FAF19
:1043900000293FF44CAFD36823F49073D3602268B4
:1043A000536923F001035361202384F83E30002336
:1043B00023632268D36823F01003D3602046FFF7FD
:1043C0009FFE34E72046FFF73BFD30E72046FFF72E
:1043D00081FE2CE7F1400008034681628285C28598
:1043E00000201864222283F83E2083F83C001968DC
:1043F000CA6842F48072CA6019684A6942F00102D0
:104400004A611A68D36843F02003D360704708B547
:1044100090F83E30DBB2202B0DD171B17AB190F81B
:104420003C30012B0DD0012380F83C300023036386
:10443000FFF7D2FF00E0022008BD0120FCE70120C9
:10444000FAE70220F8E700000C480D490D4A002366
:1044500002E0D458C4500433C4188C42F9D30A4A39
:104460000A4C002301E013600432A242FBD3FEF7A2
:104470007FFB00F017F8FDF7A7F870470000002059
:10448000700000205074000870000020D00A002046
:10449000FEE703460244934200D1704703F8011B34
:1044A000F9E7000070B500260C4D0D4C641BA410FC
:1044B000A64209D102F01AFE00260A4D0A4C641BDE
:1044C000A410A64205D170BD55F8043B98470136AB
:1044D000EEE755F8043B98470136F2E748740008C8
:1044E00048740008487400084C7400080A4491425B
:1044F00000F1FF3300D1704710B511F8014B914224
:1045000003F8014FF9D110BDF8B504460D4600F08F
:10451000B3FD224606460F462B4620462946FCF7A9
:1045200057FA40B92046294600F07EFA0022084B8F
:10453000FCF744FA10B930463946F8BD02F0D0FD18
:104540002122034603481A60BDE8F84000F0C0BAD3
:104550000000F03FF471000800F0E6BF2DE9F843D9
:1045600014461D468046894601F0AAF822460646B2
:104570000F462B4620462946FCF72AFA78B9002236
:10458000002340464946FCF7F1F9D8B10022002348
:1045900020462946FCF7EAF928B10026254F304687
:1045A0003946BDE8F8832046294600F08BFA0028FA
:1045B000F5D02046294600220023FCF7E1F9002827
:1045C000EDD02CE03046394600F07CFAA0B1002254
:1045D000002330463946FCF7C9F90028DFD04046B1
:1045E000494600F06FFA0028D9D02046294600F04D
:1045F00069FA0028D3D012E04046494600F062FA3A
:104600000028E4D02046294600F05CFA0028DED0DD
:1046100032463B4630463946FCF7DAF920B902F01B
:104620005FFD22230360BAE702F05AFD21230360F5
:10463000B5E700BF0000F03FF8B504460D4600F0B6
:104640004DFA224606460F462B4620462946FCF7E1
:10465000BFF930B92046294600220023FCF790F923
:1046600010B930463946F8BD02F03AFD0022002369
:104670002121016010461946FCF73AF806460F461C
:1046800030463946F8BD00BF2DE9F84FBA4B21F04E
:1046900000469E4204460D468A4616D9B74B9E42B6
:1046A0000BD808D0BAF1000F40F3C18096A1D1E930
:1046B0000001BDE8F88F0028F4D022462B462046A2
:1046C0002946FBF735FDBDE8F88FAD4B9E4200F261
:1046D000B380A3F1DE739E4240F29A804FF0FF3B1D
:1046E00022462B4620462946FBF7D8FE02460B46BB
:1046F00080468946FBF7D2FE85A3D3E90023064610
:104700000F46FBF7CBFE84A3D3E90023FBF710FD94
:1047100032463B46FBF7C2FE81A3D3E90023FBF7F9
:1047200007FD32463B46FBF7B9FE7FA3D3E90023E2
:10473000FBF7FEFC32463B46FBF7B0FE7CA3D3E919
:104740000023FBF7F5FC32463B46FBF7A7FE7AA3B6
:10475000D3E90023FBF7ECFC42464B46FBF79EFEF9
:1047600077A3D3E900238046894630463946FBF7D4
:1047700095FE75A3D3E90023FBF7D8FC32463B46F0
:10478000FBF78CFE72A3D3E90023FBF7CFFC324684
:104790003B46FBF783FE70A3D3E90023FBF7C6FC7F
:1047A00032463B46FBF77AFE6DA3D3E90023FBF7C5
:1047B000BDFC32463B46FBF771FEBBF1FF3F0246B4
:1047C0000B464046494656D0FBF7B2FC6D4E22469A
:1047D0002B46FBF763FE6C4B06EBCB064FEACB0B8D
:1047E0005B44D3E90023FBF7A1FC22462B46FBF7F1
:1047F0009DFC02460B46D6E90001FBF797FCBAF197
:10480000000FBFF660AF01F100431946BDE8F88F15
:1048100055A3D3E90023FBF78BFC00225B4BFCF78D
:10482000CDF800283FF45AAF204629464BE750A167
:10483000D1E90001BDE8F88F00F0F6F8544B0446CA
:104840009E420D4625D8A3F550239E424CD80246E1
:104850000B46FBF76DFC00224C4BFBF767FC024656
:104860000B462046294614461D464FF0000B0022F9
:104870004FF0804322E0FBF75BFC22462B46FBF720
:104880000DFE02460B4620462946FBF74FFCBDE8CD
:10489000F88F404B9E421CD200223F4BFBF746FC58
:1048A00002460B462046294614461D4600223A4B36
:1048B0004FF0020BFBF7F2FD0022344BFBF738FC04
:1048C00002460B4620462946FBF712FF04460D46DA
:1048D00006E702460B4600203049FBF709FF4FF080
:1048E000030B04460D46FBE60022284BFBF71EFC9B
:1048F00002460B46204629464FF0010B14461D4642
:10490000DAE700BFAFF30080182D4454FB21F93FD4
:1049100011DA22E33AAD903FEB0D76244B7BA93FB1
:10492000513DD0A0660DB13F6E204CC5CD45B73F7F
:10493000FF8300922449C23F0D5555555555D53F2B
:104940002F6C6A2C44B4A2BF9AFDDE522DDEAD3F1F
:104950006D9A74AFF2B0B33F711623FEC671BC3FBF
:10496000C4EB98999999C93F9C7500883CE4377EBF
:10497000182D4454FB21F9BFFFFF0F440000F07FC6
:10498000FFFFDB3F18720008F87100080000F03FDD
:10499000FFFFF23F008003400000F83F0000F0BF3F
:1049A0001F4A21F0004393421DD930B51D4A87B0FC
:1049B000934205D902460B46FBF7B8FB07B030BD62
:1049C00002AA01F025FC00F0030001280FD0022804
:1049D0001FD0B8B1DDE90423DDE902010124009410
:1049E00000F092FAEAE70022002300F065B9009097
:1049F000DDE90423DDE9020100F086FA01F100415E
:104A000007B030BDDDE90423DDE9020100F054F90F
:104A1000D4E7DDE90423DDE9020100F04DF9EDE71B
:104A2000FB21E93FFFFFEF7F21F00043194670476C
:104A300030B5224A21F00043934287B01CD9204A66
:104A4000934205D902460B46FBF770FB07B030BD19
:104A500002AA01F0DDFB00F00300012814D00228B7
:104A600022D0C0B1DDE90423DDE9020100F024F920
:104A700001F1004107B030BD002400220023009462
:104A800000F042FA07B030BDDDE90423DDE90201A0
:104A900000F012F9DAE70124DDE90423DDE902017F
:104AA000009400F031FAD1E70124DDE90423DDE9C7
:104AB0000201009400F028FADAE700BFFB21E93F89
:104AC000FFFFEF7F41F0004000F58010C00F7047FE
:104AD00000200149704700BF0000F87F2DE9F84F22
:104AE000724F04468F430D4600F0B28000290B46FA
:104AF0000646024655DD081500F09B80C3F31303FC
:104B0000C107A0F2FF3743F4801303D4D10F01EBA8
:104B100043035200002616244FF40011B4465B00F4
:104B200003EBD2737F1052000CEB0100834203DBD6
:104B30001B1A01EB000C0E445B00013C03EBD2732B
:104B40004FEA51014FEA4202EED120254FF00040DA
:104B5000A0460AE039D0590001EBD271013D0B4665
:104B60004FEA42024FEA50003BD09C4508EB000E52
:104B7000F0DABEF1000F0EEB00080CDBE146A3EB10
:104B80000C01CC46964588BF01F1FF314900A2EBEC
:104B90000E020444E0E7B8F1000FEFDB0CF101096D
:104BA000EDE721F0004707433DD0002973D1D10A3A
:104BB000153B52050029FAD0CD02184616460B4681
:104BC00037D520244FF0FF313EE0964502D94FEA19
:104BD0004C01C1E7BEF1000F0EEB000825DB002100
:104BE000D5E7114312D0DFF8C8A0DFF8C8B0DAE982
:104BF0000001DBE90023FBF799FADAE900890246B4
:104C00000B4640464946FBF7C5FE58BB6508F20710
:104C100048BF45F000452846731003F17F5303F564
:104C2000001303EB0751BDE8F88FB8F1000FB5DAB8
:104C3000D5E700225B00DC02114602F10102F9D542
:104C4000C2F1200406FA02F2E640401A334355E767
:104C500002460B46FBF722FC22462B46FBF768FA7E
:104C6000BDE8F88FB4F1FF3FDAE90001DBE900238A
:104C700018D0DAE90089FBF75BFA02460B4640469A
:104C80004946FBF77DFE78B1A11C04F1020508BF7F
:104C900001366D08BBE7FBF749FA02460B46FBF706
:104CA00027FDC0E70136B2E70134AFE70000F07F2F
:104CB00068000020600000202DE9F04F21F000483E
:104CC000B8F1795F06460F4692469B4685B06DD295
:104CD000FBF794FE002800F0ED8032463B4630465C
:104CE0003946FBF7DBFB76A3D3E9002304460D46E8
:104CF000FBF7D4FB74A3D3E90023FBF719FA224690
:104D00002B46FBF7CBFB72A3D3E90023FBF70EFA8C
:104D100022462B46FBF7C2FB6FA3D3E90023FBF728
:104D200007FA22462B46FBF7B9FB6DA3D3E9002314
:104D3000FBF7FCF922462B46FBF7B0FB6AA3D3E94D
:104D40000023FBF7F5F922462B46FBF7A7FBCDE93D
:104D50000001002220462946654BFBF79FFBDDE959
:104D600000238046894620462946FBF797FB4446A8
:104D70004D468046894652465B4630463946FBF7EB
:104D80008DFB02460B4640464946FBF7CFF90246EB
:104D90000B4620462946FBF7C9F902460B46002080
:104DA0005449FBF7C3F905B0BDE8F08F02460B4646
:104DB000FBF774FB42A3D3E9002304460D46FBF73F
:104DC0006DFB41A3D3E90023FBF7B2F922462B4642
:104DD000FBF764FB3EA3D3E90023FBF7A7F92246C8
:104DE0002B46FBF75BFB3CA3D3E90023FBF7A0F9C1
:104DF00022462B46FBF752FB39A3D3E90023FBF7EE
:104E000095F922462B46FBF749FB37A3D3E900234C
:104E1000FBF78EF92B462246FBF740FB364BCDE9DC
:104E20000001984595D9354B002298453AD8A8F508
:104E3000001300202F4990469946FBF777F9CDE9FA
:104E40000201002220462946294BFBF727FB424658
:104E50004B46FBF76BF9DDE9002380468946204687
:104E60002946FBF71BFB44464D4680468946524681
:104E70005B4630463946FBF711FB02460B4640467F
:104E80004946FBF753F902460B4620462946FBF7F5
:104E90004DF902460B46DDE90201FBF747F905B083
:104EA000BDE8F08F164B4FF00008CDE90223DFF884
:104EB0005490C6E700200F4905B0BDE8F08F00BF51
:104EC000D43888BEE9FAA8BDC4B1B4BD9EEE213E77
:104ED000AD529C804F7E923E9015CB19A001FA3EB8
:104EE0007751C1166CC1563F4C5555555555A53F88
:104EF0000000E03F0000F03F3233D33F0000E93FC5
:104F00000000E73F0000D23F2DE9F04F83B0CDE92C
:104F1000002321F00043B3F1795F04460D4604D22B
:104F2000FBF76CFD002800F0858022462B462046CA
:104F30002946FBF7B3FA06460F4632463B46204663
:104F40002946FBF7ABFA3EA3D3E9002382468B4602
:104F500030463946FBF7A2FA3BA3D3E90023FBF71F
:104F6000E5F832463B46FBF799FA39A3D3E900232B
:104F7000FBF7DEF832463B46FBF790FA36A3D3E95F
:104F80000023FBF7D3F832463B46FBF787FA34A3FE
:104F9000D3E90023FBF7CCF80C9B804689469BB3F2
:104FA000DDE900010022324BFBF778FA42464B461E
:104FB0008046894650465946FBF770FA02460B4632
:104FC00040464946FBF7B2F832463B46FBF766FAE5
:104FD000DDE90023FBF7AAF823A3D3E90023064663
:104FE0000F4650465946FBF759FA02460B463046E3
:104FF0003946FBF79DF802460B4620462946FBF74B
:1050000095F803B0BDE8F08F02460B4630463946AE
:10501000FBF744FA14A3D3E90023FBF787F85246C1
:105020005B46FBF73BFA22462B46FBF781F803B0C1
:10503000BDE8F08F2046294603B0BDE8F08F00BFE1
:105040007CD5CF5A3AD9E53DEB9C2B8AE6E55A3E12
:105050007DFEB157E31DC73ED561C119A0012A3FAE
:10506000A6F810111111813F495555555555C53FA9
:105070000000E03F000000002DE9F84FC44E21F091
:105080000043B34204460D460DD903F1404303F5F6
:105090008013034340F0B980002940F3C080002012
:1050A0000021BDE8F88FBB4EB34208D8BA4A9342FC
:1050B00000F2BA809CA1D1E90001BDE8F88F002977
:1050C000C0F2708102460B460020B449FBF72EF86F
:1050D0000022B34BFBF7E2F904460D46FFF7FEFC56
:1050E00093A3D3E900238946804629462046FBF74F
:1050F000D5F991A3D3E90023FBF71AF822462B46F2
:10510000FBF7CCF98EA3D3E90023FBF70FF8224677
:105110002B46FBF7C3F98CA3D3E90023FBF708F870
:1051200022462B46FBF7BAF989A3D3E90023FAF705
:10513000FDFF22462B46FBF7B1F987A3D3E90023F5
:10514000FAF7F6FF22462B46FBF7A8F984A3D3E92A
:10515000002382468B4620462946FBF79FF982A30F
:10516000D3E90023FAF7E2FF22462B46FBF796F934
:105170007FA3D3E90023FAF7DBFF22462B46FBF798
:105180008DF97DA3D3E90023FAF7D0FF22462B4601
:10519000FBF784F90022814BFAF7CAFF02460B465F
:1051A00050465946FBF7A4FA42464B46FBF776F9C0
:1051B000002682468B4632464B4630464946FBF730
:1051C0006DF902460B4620462946FAF7AFFF3246F4
:1051D00004460D464B4640464946FAF7A9FF0246AB
:1051E0000B4620462946FBF783FA02460B465046FB
:1051F0005946FAF79DFF32464B46FAF799FF0246A9
:105200000B46FAF795FFBDE8F88F02460B46FAF712
:105210008DFF02460B46FBF76BFABDE8F88F58A1ED
:10522000D1E90001BDE8F88F02460B46FBF736F9DD
:105230003FA3D3E9002306460F46FBF72FF93EA311
:10524000D3E90023FAF774FF32463B46FBF726F911
:105250003BA3D3E90023FAF769FF32463B46FBF74D
:105260001DF939A3D3E90023FAF762FF32463B4622
:10527000FBF714F936A3D3E90023FAF757FF3246B8
:105280003B46FBF70BF934A3D3E90023FAF750FFB1
:1052900032463B46FBF702F931A3D3E900238046AF
:1052A000894630463946FBF7F9F82FA3D3E90023A6
:1052B000FAF73CFF32463B46FBF7F0F82CA3D3E964
:1052C0000023FAF735FF32463B46FBF7E7F82AA3FF
:1052D000D3E90023FAF72AFF32463B46FBF7DEF814
:1052E00000222E4BFAF724FF02460B464046494661
:1052F000FBF7FEF922462B46FBF7D0F802460B4699
:1053000021A1D1E90001FAF711FF02460B46204620
:105310002946FAF70BFF02460B4603A1D1E900012B
:10532000FAF704FFBDE8F88F182D4454FB21F93F2C
:1053300009F7FD0DE13D023F88B20175E0EF493FFD
:105340003B8F68B52882A43F5544880E55C1C93F9C
:105350007D6FEB0312D6D43F555555555555C53F76
:1053600082922EB1C5B8B33F59018D1B6C06E63F42
:10537000C88A599CE52A00404B2D8A1C273A0340D5
:10538000182D4454FB210940075C143326A6913C98
:10539000FFFFEF3FFFFFDF3F0000603C0000F03FFA
:1053A0000000E03F00225E4BFAF7C2FE00225D4B98
:1053B000FBF774F842A3D3E9002304460D46FBF73C
:1053C0006DF841A3D3E90023FAF7B2FE22462B463B
:1053D000FBF764F83EA3D3E90023FAF7A7FE2246C1
:1053E0002B46FBF75BF83CA3D3E90023FAF7A0FEBA
:1053F00022462B46FBF752F839A3D3E90023FAF7EC
:1054000095FE22462B46FBF749F837A3D3E9002344
:10541000FAF78EFE22462B46FBF740F834A3D3E979
:10542000002306460F4620462946FBF737F832A3ED
:10543000D3E90023FAF77AFE22462B46FBF72EF833
:105440002FA3D3E90023FAF773FE22462B46FBF77E
:1054500025F82DA3D3E90023FAF768FE22462B4650
:10546000FBF71CF800222E4BFAF762FE80468946B5
:1054700020462946FFF732FB04460D4642464B467E
:1054800030463946FBF734F922462B46FBF706F83F
:105490001FA3D3E90023FAF749FE22462B46FAF769
:1054A00047FE02460B46FAF743FE02460B461AA198
:1054B000D1E90001FAF73AFEBDE8F88FAFF30080BA
:1054C00009F7FD0DE13D023F88B20175E0EF493F6C
:1054D0003B8F68B52882A43F5544880E55C1C93F0B
:1054E0007D6FEB0312D6D43F555555555555C53FE5
:1054F00082922EB1C5B8B33F59018D1B6C06E63FB1
:10550000C88A599CE52A00404B2D8A1C273A034043
:10551000075C143326A6913C182D4454FB21094006
:105520000000F03F0000E03F2DE9F84F994653425C
:105530005F4F134329F0004E4EEAD373BB4204463B
:105540000D4690463DD84642064321F0004A4AEABD
:10555000D676BE4203468B4633D809F1404606F55F
:10556000801616433DD04FEAA97606F002065AEAA5
:10557000030346EAD1762CD05EEA020235D0BE455E
:1055800046D0BA4531D0AAEB0E0ABAF1747F4FEA81
:105590002A5339DAB9F1000F46DA3C3344DA0020F5
:1055A0000021012E58D0022E49D086B134A3D3E970
:1055B0000023FAF7BBFD34A3D3E90023FAF7B6FDC5
:1055C00005E022462B4640464946FAF7B1FDBDE8C4
:1055D000F88F022E10D0032EF9D12DA1D1E90001B0
:1055E000F5E7BDE8F84FFFF74FB8BBF1000F07DB59
:1055F00029A1D1E90001EAE723A1D1E90001E6E709
:1056000027A1D1E90001E2E723A1D1E90001C8E720
:10561000F24506F1FF3623D0022E29D8254B03EBA5
:10562000C603D3E90001D2E742464B46204629464D
:10563000FBF75EF8FFF7F8F9FFF726F8B1E710A3DC
:10564000D3E90023FAF772FD02460B460EA1D1E919
:105650000001FAF76BFDBAE701F100431946B6E71E
:10566000022E08D8144B03EBC603D3E90001AEE7C2
:1056700000200021ABE70CA1D1E90001A7E700BFA2
:10568000075C143326A6A13C182D4454FB21094085
:10569000182D4454FB2109C0182D4454FB21F93F17
:1056A000182D4454FB21F9BF182D4454FB21E93F28
:1056B0000000F07F387200085072000800000000FF
:1056C0002DE9F04F23F00049064659EA020014463E
:1056D0001D460F4693B010D1B319264987F4002216
:1056E00052419842914120D222462B4630463946BB
:1056F000FAF71EFD13B0BDE8F08F11461E4A27F0E1
:10570000004B93459A46B846334613D908F14048B2
:1057100008F5801858EA0308E6D12319154985F4DD
:105720000022524198459141DED30020134913B025
:10573000BDE8F08F15D09145E8D85A4600F0D983DE
:10574000B8F1000F1CDB002940F0E9830B488145CC
:1057500040F01C84BAF1000FC0F2D68430463946BE
:10576000C8E7002EC0D1D945BED800F042845A46C1
:10577000E6E700BF0000F0FF0000F07F0000F03F10
:10578000D348814500F2DF83D24881450FD94FEAE3
:105790002950A0F2FF30142840F39D84C0F134005A
:1057A00021FA00FC0CFA00F0884200F0278300295F
:1057B00040F06A83BAF1804F00F02C8300913046AC
:1057C000394604920293FFF72FF9029B049A002BAB
:1057D00000F06583DDF800C04FEAD873013B0A93FF
:1057E0005CEA030300F0AC83BB4B994500F2BD8338
:1057F000BA4B08EA0303002B40F0FF830022B84BAA
:10580000FAF74CFE6FF034060A461315A3F2FF3385
:105810009F19B44BC2F3130242F07F569A420B9782
:1058200046F4401607DDB04B9A4240F380840137BE
:105830000B97A6F58016002200234FF000080027E2
:10584000DFF8A892CDE90823CDE90689CDE9102338
:10585000DDE9062331468246FAF768FCDDE90623D6
:10586000B3468046894650463146CDE90CABFAF73F
:105870005FFC02460B4600209C49FAF739FF8C4634
:10588000834663465A4640464946CDE90EBCFAF780
:1058900005FE82468B46731043F0005303F5002348
:1058A000D9190F465A46514600230020CDE902126D
:1058B0000293064602463B46CDE904ABDDE902AB66
:1058C00050465946FAF7EAFD02460B46404649461D
:1058D000FAF72CFCDDE90623804689463046394636
:1058E000FAF724FC02460B46DDE90C01FAF71EFC30
:1058F00052465B46FAF7D2FD02460B464046494601
:10590000FAF714FCDDE90E23FAF7C8FDDDE90467B8
:10591000CDE9060132463B4630463946FAF7BEFD30
:105920005BA3D3E9002306460F46FAF7B7FD5AA357
:10593000D3E90023FAF7FCFB32463B46FAF7AEFD0B
:1059400057A3D3E90023FAF7F3FB32463B46FAF7B5
:10595000A5FD55A3D3E90023FAF7EAFB32463B46FF
:10596000FAF79CFD52A3D3E90023FAF7E1FB324694
:105970003B46FAF793FD50A3D3E90023FAF7D8FB8F
:105980003246804689463B4630463946FAF786FD20
:1059900002460B4640464946FAF780FD06460F464A
:1059A000DDE9040152465B46FAF7C2FBDDE9062356
:1059B000FAF774FD32463B46FAF7BAFB5246804688
:1059C00089465B4650465946FAF768FD02460B4643
:1059D000CDE90C230022464BFAF7AAFB42464B4680
:1059E000FAF7A6FB00260F4632463B46504659467C
:1059F000FAF754FD002282468B46304639463C4B2E
:105A0000FAF794FBDDE90C23FAF790FB02460B460C
:105A100040464946FAF78AFBDDE90423FAF73EFDE2
:105A2000324680468946DDE906013B46FAF736FDF7
:105A300002460B4640464946FAF77AFB80468946BD
:105A4000002642464B4650465946FAF771FB1CA3C6
:105A5000D3E9002330460F46FAF720FD52465B4655
:105A600082468B4630463946FAF760FB02460B46C3
:105A700040464946FAF75AFB13A3D3E90023FAF745
:105A80000DFD02460B463046394616461F4631E0AC
:105A9000EF4E454A287ECA3F65DBC9934A86CD3F13
:105AA00001411DA96074D13F4D268F515555D53FF9
:105AB000FFAB6FDBB66DDB3F033333333333E33F91
:105AC000000000E009C7EE3FFD033ADC09C7EE3FE6
:105AD000FFFF3F43FFFFEF3F0000E0410000F07F8A
